:040000000EEF00F00F
:04000800B7EF2BF033
:0800180076EF2BF0AFEF3DF095
:10084800424C494E4B2020000001CB51D8A42FEF39
:1008580004F031EF04F08CEF05F0F5EF04F0EEC191
:10086800D9FFEFC1DAFF030EDF603DEF04F03FEF81
:1008780004F04FEF04F0BEC0A8F0BDC0A9F0710E9F
:100888000001AA6F010EAB6F010EAC6FAF0E67ECE3
:100898003FF088EF04F0010120EE02F0EE51D92676
:1008A800EF51DA22DF500001BE6F010120EE03F0A4
:1008B800EE51D926EF51DA22DF500001BD6FFC0E50
:1008C800936F030E946F000E956FBEC096F0000EE6
:1008D800EAEC3AF0FD0E0001936F030E946F000EE0
:1008E800956FBDC096F0000EEAEC3AF0010E0001DB
:1008F800CB6FBEC0A8F0BDC0A9F0520E50EC3FF0BF
:10090800424A432AEFEC3DF0010E9DEF0AF0A50E96
:100918000001A86F610EA96FFC0EAA6F010EAB6FE4
:10092800010EAC6F000EAD6F010EAE6FEF0EF4EC62
:100938003EF088EF04F0480EF66E080EF76E000ED3
:10094800F86E0800F5CFA8F0490EF66E080EF76E9F
:10095800000EF86E0800F5CFA9F04A0EF66E080EE4
:10096800F76E000EF86E0800F5CFAAF04B0EF66E83
:10097800080EF76E000EF86E0800F5CFABF04C0EBF
:10098800F66E080EF76E000EF86E0800F5CFACF0A4
:100998004D0EF66E080EF76E000EF86E0800F5CFD5
:1009A800ADF04E0EF66E080EF76E000EF86E0800EB
:1009B800F5CFAEF0E20EF4EC3EF088EF04F0000E56
:1009C8000001A86F000EA96FA50EAA6FFC0EAB6FF1
:1009D80074EC36F00001AC6FB60E67EC3FF088EFB0
:1009E80004F0010120EE01F0EE51D926EF51DA2290
:1009F800DF500201006F016B0151000AD8B407EF04
:100A080005F01AEF05F000510D0AD8B4E3EF04F031
:100A18001D0AD8B48BEF04F0010AD8B49FEF04F094
:100A2800530AD8B433EF04F01AEF05F0000E9DEF27
:100A38000AF0BEC0A8F0BDC0A9F0A50E0001AA6FBB
:100A4800FC0EAB6F74EC36F00001AC6FB60E67ECC1
:100A58003FF088EF04F0EEC1D9FFEFC1DAFF040ED2
:100A6800DF6039EF05F03BEF05F04BEF05F0BEC056
:100A7800A8F0BDC0A9F0760E0001AA6F010EAB6FF9
:100A8800010EAC6FAF0E67EC3FF088EF04F0010188
:100A980020EE02F0EE51D926EF51DA22DF50D8A429
:100AA80058EF05F05AEF05F0A9EF05F020EE03F036
:100AB800EE51D926EF51DA22DF50D8A466EF05F0BF
:100AC80068EF05F0A9EF05F020EE04F0EE51D92605
:100AD800EF51DA22DF50F36F0C0EF319D8A477EF39
:100AE80005F079EF05F07DEF05F00001CE8588EF80
:100AF80004F00D0EF319D8A484EF05F086EF05F085
:100B08008AEF05F00001CE9588EF04F0A9EF05F013
:100B1800010120EE01F0EE51D926EF51DA22DF5023
:100B28000201006F016B0151000AD8B49EEF05F075
:100B3800A9EF05F000510D0AD8B41DEF05F07B0AA6
:100B4800D8B42FEF05F0A9EF05F0EEC1D9FFEFC13A
:100B5800DAFF030EDF60B3EF05F0B5EF05F0B7EF8E
:100B680005F01AEF05F0010120EE02F0EE51D9264A
:100B7800EF51DA22DE500001BE19D8B4C6EF05F0F5
:100B8800C8EF05F0CAEF05F01AEF05F0010120EEF5
:100B980003F0EE51D926EF51DA220001BD51DE18DB
:100BA800D8B4D9EF05F0DBEF05F070EF0AF01AEFD3
:100BB80005F0EEC1D9FFEFC1DAFF040EDF60E7EF01
:100BC80005F0E9EF05F0F9EF05F0BEC0A8F0BDC0EB
:100BD800A9F0730E0001AA6F010EAB6F010EAC6F86
:100BE800AF0E67EC3FF088EF04F0010120EE04F04F
:100BF800EE51D926EF51DA22140EDF6406EF06F023
:100C080008EF06F022EF06F0BEC0A8F0BDC0A9F0BC
:100C1800090E0001AA6F6F0E39EC3FF0BEC0A8F0B4
:100C2800BDC0A9F0730E0001AA6F010EAB6F090ECB
:100C3800AC6FAF0E67EC3FF088EF04F020EE04F0E5
:100C4800EE51D926EF51DA22DF50EDEC26F0010102
:100C5800F06FBEC0A8F0BDC0A9F020EE04F0EE51C0
:100C6800D926EF51DA22DF500001AA6FF0C1ABF0AC
:100C78009B0E22EC3FF0010120EE04F0EE51D92644
:100C8800EF51DA22DF50D8A44CEF06F04EEF06F011
:100C980088EF04F0010E15EC35F000018D6F560E4B
:100CA8008E6F7C0E8F6F070EB9EC3AF088EF04F068
:100CB800BDC0BBF0BEC0BCF087EC28F00001BB5142
:100CC800BC11D8B46AEF06F06CEF06F088EF04F0B8
:100CD800BCC0A8F0BBC0A9F0510E50EC3FF088EFA3
:100CE80004F0EEC1D9FFEFC1DAFF050EDF607FEF38
:100CF80006F081EF06F091EF06F0BEC0A8F0BDC087
:100D0800A9F0870E0001AA6F010EAB6F010EAC6F40
:100D1800AF0E67EC3FF088EF04F0010120EE04F01D
:100D2800EE51D926EF51DA22DF50D8A49EEF06F013
:100D3800A0EF06F0ACEF06F0000E00018D6FFE0E7E
:100D48008E6F4E0E8F6F040EB9EC3AF088EF04F0F8
:100D580020EE04F0EE51D926EF51DA22050EDF64B9
:100D6800B8EF06F0BAEF06F0CAEF06F0BEC0A8F07A
:100D7800BDC0A9F0870E0001AA6F010EAB6FFC0E73
:100D8800AC6FAF0E67EC3FF088EF04F020EE04F094
:100D9800EE51D926EF51DA22DF500201006F016BC4
:100DA800D89000370137FE0E0025026FFF0E012193
:100DB800036F910E0225F66EFF0E0321F76EF86A97
:100DC800000EF8220900F5CF04F20900F5CF05F26C
:100DD800100E0427000E052304C2F6FF05C2F7FF14
:100DE800F86A0900F5500900F510D8A4FEEF06F0DE
:100DF80000EF07F00EEF07F0BEC0A8F0BDC0A9F0E5
:100E0800870E0001AA6F010EAB6FFD0EAC6FAF0E1F
:100E180067EC3FF0010120EE05F0EE51D926EF51C5
:100E2800DA22DF50D8A41BEF07F01DEF07F02FEFF1
:100E380007F020EE04F0EE51D926EF51DA22DF5008
:100E480000018D6FFE0E8E6F4E0E8F6F040EB9EC83
:100E58003AF088EF04F020EE04F0EE51D926EF5175
:100E6800DA22DF500201006F016BD890003701379A
:100E7800FE0E0025026FFF0E0121036F910E022561
:100E8800F66EFF0E0321F76EF86A000EF8220900CD
:100E9800F5CF04F20900F5CF05F2100E0427000E75
:100EA800052304C2F6FF05C2F7FFF86A0900F5CF6B
:100EB80006F20900F5CF07F202D874EF07F0050033
:100EC800FA6E0651FD6E0751FE6EFF6AFA50010177
:100ED80020EE05F0EE51D926EF51DA22DF5012004C
:100EE80089C0F1F18AC0F2F10101F151F211D8A4DF
:100EF80080EF07F082EF07F092EF07F0BEC0A8F08E
:100F0800BDC0A9F0870E0001AA6F010EAB6FFD0EE0
:100F1800AC6FAF0E67EC3FF088EF04F0BEC0A8F0EE
:100F2800BDC0A9F020EE04F0EE51D926EF51DA2227
:100F3800DF500001AA6F010120EE05F0EE51D9261D
:100F4800EF51DA22DF500001AB6F010120EE01F012
:100F5800F151D926F251DA22DF500001AC6FF1C10C
:100F6800D9FFF2C1DAFFDF50AD6FC70E0BEC3FF0CF
:100F780088EF04F0EEC1D9FFEFC1DAFF040EDF609D
:100F8800C8EF07F0CAEF07F0DAEF07F0BEC0A8F025
:100F9800BDC0A9F0780E0001AA6F010EAB6F010E5B
:100FA800AC6FAF0E67EC3FF088EF04F0010120EE64
:100FB80004F0EE51D926EF51DA22DF50D8A4E7EF3A
:100FC80007F0E9EF07F003EF08F0BEC0A8F0BDC0D6
:100FD800A9F0000E0001AA6F000EAB6F050EAC6FF2
:100FE800AC0E67EC3FF0010E00018D6FD40E8E6FD2
:100FF800670E8F6F030EB9EC3AF088EF04F020EE1D
:1010080004F0EE51D926EF51DA22050EDF640FEF16
:1010180008F011EF08F021EF08F0BEC0A8F0BDC03D
:10102800A9F0780E0001AA6F010EAB6FFC0EAC6F31
:10103800AF0E67EC3FF088EF04F020EE04F0EE51BD
:10104800D926EF51DA22DF500201006F016BD890E8
:1010580000370137FE0E0025026FFF0E0121036FD6
:10106800910E0225F66EFF0E0321F76EF86A000E48
:10107800F8220900F5CF04F20900F5CF05F20E0EAB
:101088000427000E052304C2F6FF05C2F7FFF86A1D
:101098000900F5500900F510D8A455EF08F057EFEE
:1010A80008F09CEF08F0BEC0A8F0BDC0A9F001018F
:1010B80020EE04F0EE51D926EF51DA22DF5000017C
:1010C800AA6F010120EE04F0EE51D926EF51DA2281
:1010D800DF500201006F016BD89000370137FE0E18
:1010E8000025026FFF0E0121036F910E0225F66E97
:1010F800FF0E0321F76EF86A000EF8220900F5CFFB
:1011080004F20900F5CF05F204C2F6FF05C2F7FFA5
:10111800F86A0800F5CFABF0000E0001AC6F000EC6
:10112800AD6F000EAE6FE70EF4EC3EF088EF04F002
:10113800BEC0A8F0BDC0A9F0010120EE04F0EE5138
:10114800D926EF51DA22DF500001AA6F010120EE03
:1011580004F0EE51D926EF51DA22DF500201006F78
:10116800016BD89000370137FE0E0025026FFF0E85
:101178000121036F910E0225F66EFF0E0321F76E13
:10118800F86A000EF8220900F5CF04F20900F5CF3D
:1011980005F204C2F6FF05C2F7FFF86A0800F5CFAA
:1011A800ABF0010120EE04F0EE51D926EF51DA221E
:1011B800DF500201066F076BD89006370737FE0E1F
:1011C8000625086FFF0E0721096F910E0825F66E98
:1011D800FF0E0921F76EF86A000EF8220900F5CF14
:1011E8000AF20900F5CF0BF20E0E0A27000E0B23A8
:1011F8000AC2F6FF0BC2F7FFF86A0900F5CF0CF236
:101208000900F5CF0DF202D814EF09F00500FA6EC7
:101218000C51FD6E0D51FE6EFF6AFA50010E120060
:101228000001AC6F010120EE04F0EE51D926EF5118
:10123800DA22DF5002010E6F0F6BD8900E370F378E
:10124800FE0E0E25106FFF0E0F21116F910E102547
:10125800F66EFF0E1121F76EF86A000EF8220900EB
:10126800F5CF12F20900F5CF13F20E0E1227000E79
:10127800132312C2F6FF13C2F7FFF86A0900F5CF6D
:1012880014F20900F5CF15F202D855EF09F0050060
:10129800FA6E1451FD6E1551FE6EFF6AFA50020E79
:1012A80012000001AD6F010120EE04F0EE51D926C5
:1012B800EF51DA22DF500201166F176BD8901637FC
:1012C8001737FE0E1625186FFF0E1721196F910E8E
:1012D8001825F66EFF0E1921F76EF86A000EF8222F
:1012E8000900F5CF1AF20900F5CF1BF20E0E1A27E6
:1012F800000E1B231AC2F6FF1BC2F7FFF86A09008B
:10130800F5CF1CF20900F5CF1DF202D896EF09F0CF
:101318000500FA6E1C51FD6E1D51FE6EFF6AFA50F3
:10132800030E12000001AE6FE70EF4EC3EF088EFFA
:1013380004F0EEC1D9FFEFC1DAFF040EDF60A7EFBA
:1013480009F0A9EF09F0B9EF09F0BEC0A8F0BDC0D7
:10135800A9F0760E0001AA6F010EAB6F010EAC6FFB
:10136800AF0E67EC3FF088EF04F0010120EE04F0C7
:10137800EE51D926EF51DA22DF50F36FBDC0BBF032
:10138800BEC0BCF02CEF0AF00101F351D8A4CFEF96
:1013980009F0D1EF09F038EF0AF0000E0001CB6F29
:1013A800C869BCC0A8F0BBC0A9F0760EAA6F010E30
:1013B800AB6F000EAC6FAF0E67EC3FF0BEC0A8F08D
:1013C800BDC0A9F0500E50EC3FF086EF04F00101CB
:1013D800F351D8A4F2EF09F0F4EF09F038EF0AF06E
:1013E800BEC0A8F0BDC0A9F0760E0001AA6F010E1C
:1013F800AB6F000EAC6FAF0E67EC3FF0BEC0A8F04D
:10140800BDC0A9F0500E50EC3FF0000E0001BE6FB9
:10141800BEC0BDF0FC0E936F030E946F000E956F67
:10142800BEC096F0000EEAEC3AF0FD0E0001936F94
:10143800030E946F000E956FBDC096F0000EEAEC97
:101448003AF0000E0001CB6F010EC86F86EF04F072
:101458000001CB51000AD8B438EF0AF0FF0AD8B41B
:10146800C8EF09F0EBEF09F00C0E0101F319D8A44D
:1014780040EF0AF042EF0AF053EF0AF00001CE8580
:10148800BEC0A8F0BDC0A9F0760EAA6F010EAB6F62
:10149800000EAC6FAF0E67EC3FF088EF04F00D0E56
:1014A800F319D8A45AEF0AF05CEF0AF01AEF05F026
:1014B8000001CE95BEC0A8F0BDC0A9F0760EAA6FF7
:1014C800010EAB6F000EAC6FAF0E67EC3FF088EF0C
:1014D80004F0FF0088EF04F0010120EE01F0EE5166
:1014E800D926EF51DA22DF500201006F016B01515A
:1014F800000AD8B482EF0AF01AEF05F000514F0A3B
:10150800D8B45CEF06F0110AD8B46DEF0AF02D0AD2
:10151800D8B4DDEF05F0050AD8B49DEF09F00E0A3E
:10152800D8B4BEEF07F0FF0AD8B475EF06F01AEF8B
:1015380005F0120072EF0EF0EEC1E3F1EFC1E4F135
:10154800030EE56F000EE66FECEC35F0E806D8A464
:10155800B0EF0AF0B2EF0AF0B5EF0AF0010EBAEFF9
:101568000EF0010120EE02F0EE51D926EF51DA22F9
:10157800DE500001BE19D8A4C4EF0AF0C6EF0AF085
:10158800DBEF0AF0010120EE03F0EE51D926EF510E
:10159800DA220001BD51DE18D8A4D5EF0AF0D7EF42
:1015A8000AF0DBEF0AF00001CE81B2EF0AF0000189
:1015B800CE91B2EF0AF0EEC1E3F1EFC1E4F1040E0F
:1015C800E56F000EE66FECEC35F0E806D8A4EFEF17
:1015D8000AF0F1EF0AF0F3EF0AF0B2EF0AF00101B6
:1015E80020EE02F0EE51D926EF51DA22DE5000014A
:1015F800BE19D8A402EF0BF004EF0BF038EF0BF094
:10160800010120EE03F0EE51D926EF51DA22000154
:10161800BD51DE18D8A413EF0BF015EF0BF038EF1F
:101628000BF0010120EE04F0EE51D926EF51DA2239
:10163800080EDE18D8A423EF0BF025EF0BF027EFE8
:101648000BF0D7EF0AF020EE04F0EE51D926EF5157
:10165800DA22090EDE18D8A434EF0BF036EF0BF0BF
:1016680039EF0BF0DBEF0AF0CE91000EBAEF0EF077
:10167800EEC1E3F1EFC1E4F1070EE56F010EE66F8D
:10168800ECEC35F0E806D8A44CEF0BF04EEF0BF07D
:101698005AEF0BF0BEC0A8F0BDC0A9F0010E0001C2
:1016A800AA6F6F0E39EC3FF0B2EF0AF00001CEB12D
:1016B80060EF0BF062EF0BF064EF0BF0B2EF0AF0A3
:1016C800010120EE03F0EE51D926EF51DA22DF5066
:1016D800F06F20EE02F0EE51D926EF51DA22DF50FA
:1016E800F16FF051E86FF1C1E9F120EE05F0EE512C
:1016F800D926EF51DA22DF50F36F20EE04F0EE51D5
:10170800D926EF51DA22DF50F46FF351EA6FF4C1B2
:10171800EBF120EE06F0EE51D926EF51DA22DF5038
:10172800EC6F20EE07F0EE51D926EF51DA22DF50A8
:10173800ED6FD2EC2CF0B2EF0AF0EEC1E3F1EFC19D
:10174800E4F1050EE56F010EE66FECEC35F0E80606
:10175800D8A4B1EF0BF0B3EF0BF0B5EF0BF0B2EF8D
:101768000AF00001CEB1BBEF0BF0BDEF0BF0BFEFFD
:101778000BF0B2EF0AF0010120EE03F0EE51D9268A
:10178800EF51DA22DF50F06F20EE02F0EE51D92649
:10179800EF51DA22DF50F16FF0510001AE6FF1C165
:1017A800AFF0010120EE05F0EE51D926EF51DA2213
:1017B800DF50F36F20EE04F0EE51D926EF51DA2214
:1017C800DF50F46FF3510001B06FF4C1B1F031ECA8
:1017D80036F0B2EF0AF0EEC1E3F1EFC1E4F1060E24
:1017E800E56F010EE66FECEC35F0E806D8A4FFEFE4
:1017F8000BF001EF0CF003EF0CF0B2EF0AF0000170
:10180800CEB109EF0CF00BEF0CF00DEF0CF0B2EFCE
:101818000AF0010120EE03F0EE51D926EF51DA2249
:10182800DF50F06F20EE02F0EE51D926EF51DA22A8
:10183800DF50F16FF0510001AF6FF1C1B0F001015D
:1018480020EE05F0EE51D926EF51DA22DF50F36F82
:1018580020EE04F0EE51D926EF51DA22DF50F46F72
:10186800F3510001B16FF4C1B2F0010120EE06F0AE
:10187800EE51D926EF51DA22DF500001B36FAAECFE
:1018880023F0B2EF0AF0EEC1E3F1EFC1E4F1030E89
:10189800E56F000EE66FECEC35F0E806D8A457EFDC
:1018A8000CF059EF0CF05BEF0CF0B2EF0AF001010D
:1018B80020EE02F0EE51D926EF51DA22DE50000177
:1018C800BE19D8A46AEF0CF06CEF0CF0B2EF0AF076
:1018D800010120EE03F0EE51D926EF51DA22000182
:1018E800BD51DE18D8B47BEF0CF07DEF0CF0DBEFC8
:1018F8000AF0B2EF0AF0EEC1E3F1EFC1E4F1030E32
:10190800E56F010EE66FECEC35F0E806D8A48FEF32
:101918000CF091EF0CF093EF0CF0B2EF0AF001012C
:1019280020EE02F0EE51D926EF51DA22DE50000106
:10193800BE19D8A4A2EF0CF0A4EF0CF0B2EF0AF095
:10194800010120EE03F0EE51D926EF51DA22000111
:10195800BD51DE18D8B4B3EF0CF0B5EF0CF0B7EF0B
:101968000CF0B2EF0AF0CEB1BCEF0CF0BEEF0CF009
:10197800D7EF0CF0BEC0A8F0BDC0A9F0020EAA6F48
:101988006F0E39EC3FF0BEC0A8F0BDC0A9F0550EEF
:101998000001AA6F040EAB6F020EAC6FAF0E67ECBE
:1019A8003FF0B2EF0AF0AEEC3EF039EF0BF0EEC1CB
:1019B800E3F1EFC1E4F1030EE56F000EE66FECEC26
:1019C80035F0E806D8A4EBEF0CF0EDEF0CF0EFEFF4
:1019D8000CF0B2EF0AF0010120EE02F0EE51D92628
:1019E800EF51DA22DE500001BE19D8A4FEEF0CF048
:1019F80000EF0DF0B2EF0AF0010120EE03F0EE5116
:101A0800D926EF51DA220001BD51DE18D8B40FEF04
:101A18000DF011EF0DF013EF0DF0B2EF0AF014EC2A
:101A280040F0B2EF0AF0EEC1E3F1EFC1E4F1030ECA
:101A3800E56F000EE66FECEC35F0E806D8A427EF6A
:101A48000DF029EF0DF02BEF0DF0B2EF0AF00101C8
:101A580020EE02F0EE51D926EF51DA22DE500001D5
:101A6800BE19D8A43AEF0DF03CEF0DF0B2EF0AF032
:101A7800010120EE03F0EE51D926EF51DA220001E0
:101A8800BD51DE18D8B44BEF0DF04DEF0DF04FEF10
:101A98000DF0B2EF0AF0CAEC3BF0B2EF0AF0EEC17B
:101AA800E3F1EFC1E4F1030EE56F000EE66FECEC35
:101AB80035F0E806D8A463EF0DF065EF0DF067EF99
:101AC8000DF0B2EF0AF0010120EE02F0EE51D92636
:101AD800EF51DA22DE500001BE19D8A476EF0DF0DE
:101AE80078EF0DF0B2EF0AF0010120EE03F0EE51AD
:101AF800D926EF51DA220001BD51DE18D8B487EF9C
:101B08000DF089EF0DF08BEF0DF0B2EF0AF0A0ECBD
:101B18003BF0B2EF0AF0EEC1E3F1EFC1E4F1040EDD
:101B2800E56F000EE66FECEC35F0E806D8A49FEF01
:101B38000DF0A1EF0DF0A3EF0DF0B2EF0AF00101E7
:101B480020EE02F0EE51D926EF51DA22DE500001E4
:101B5800BE19D8A4B2EF0DF0B4EF0DF0B2EF0AF051
:101B6800010120EE03F0EE51D926EF51DA220001EF
:101B7800BD51DE18D8B4C3EF0DF0C5EF0DF0C7EFB7
:101B88000DF0B2EF0AF0010120EE04F0EE51D92673
:101B9800EF51DA22DF505EEC35F0B2EF0AF0EEC119
:101BA800E3F1EFC1E4F1050EE56F000EE66FECEC32
:101BB80035F0E806D8A4E3EF0DF0E5EF0DF0E7EF18
:101BC8000DF0B2EF0AF0010120EE02F0EE51D92635
:101BD800EF51DA22DE500001BE19D8A4F6EF0DF05D
:101BE800F8EF0DF0B2EF0AF0010120EE03F0EE512C
:101BF800D926EF51DA220001BD51DE18D8B407EF1B
:101C08000EF009EF0EF00BEF0EF0B2EF0AF0010143
:101C180020EE05F0EE51D926EF51DA22DF5000010F
:101C2800AE6F010120EE04F0EE51D926EF51DA2211
:101C3800DF5094EC32F0B2EF0AF0EEC1E3F1EFC1FD
:101C4800E4F1080EE56F010EE66FECEC35F0E806FE
:101C5800D8A431EF0EF033EF0EF035EF0EF0B2EFFF
:101C68000AF0010120EE03F0EE51D926EF51DA22F5
:101C7800DF50F06F20EE02F0EE51D926EF51DA2254
:101C8800DF50F16FF051E86FF1C1E9F120EE05F096
:101C9800EE51D926EF51DA22DF50F36F20EE04F02F
:101CA800EE51D926EF51DA22DF50F46FF351EA6F83
:101CB800F4C1EBF120EE07F0EE51D926EF51DA220C
:101CC800DF50EC6F20EE08F0EE51D926EF51DA2202
:101CD800DF50ED6FD2EC2CF0B2EF0AF0010120EEEC
:101CE80001F0EE51D926EF51DA22DF50F06FF16B97
:101CF800F151000AD8B483EF0EF039EF0BF0F05130
:101D0800530AD8B4A0EF0AF0070AD8B447EF0CF08A
:101D1800010AD8B47FEF0CF0030AD8B417EF0DF01E
:101D2800010AD8B4DBEF0CF00F0AD8B453EF0DF06A
:101D38002A0AD8B48FEF0DF0040AD8B4DFEF0AF0FE
:101D4800E30AD8B4A1EF0BF0090AD8B4D3EF0DF029
:101D58002E0AD8B4EFEF0BF0600AD8B43CEF0BF0C2
:101D6800270AD8B421EF0EF039EF0BF0120000016A
:101D78008C6F100E00018C61C4EF0EF0C6EF0EF0F0
:101D880005EF11F0B6EF0FF08C51040D030EF3269A
:101D9800000EF422510EF324F66EFF0EF420F76EB7
:101DA800F86A000EF822080E0800F560DEEF0EF063
:101DB800E0EF0EF003EF0FF08C51040D030EF32645
:101DC800000EF422510EF324F66EFF0EF420F76E87
:101DD800F86A000EF8220800F5CF8AF0010E8B6F22
:101DE8008A2BF9EF0EF0D8908B378A2FF7EF0EF089
:101DF80000018B51FF0A0F015D17E5EF10F08C51C0
:101E0800040D030EF326000EF422510EF324F66E91
:101E1800FF0EF420F76EF86A000EF822100E080084
:101E2800F56019EF0FF01BEF0FF0CFEF0FF08C51AB
:101E3800040D030EF326000EF422510EF324F66E61
:101E4800FF0EF420F76EF86A000EF8220800F5CFAE
:101E58008AF0F80E8A27010E8B6F8A2B36EF0FF067
:101E6800D8908B378A2F34EF0FF000018B51FF0A7F
:101E78000F015C17E5EF10F08C51040D030EF326EB
:101E8800000EF422510EF324F66EFF0EF420F76EC6
:101E9800F86A000EF822080E0800F56056EF0FF0F9
:101EA80058EF0FF07AEF0FF08C51040D030EF32664
:101EB800000EF422510EF324F66EFF0EF420F76E96
:101EC800F86A000EF8220800F5CF8AF0010E8B6F31
:101ED8008A2B71EF0FF0D8908B378A2F6FEF0FF0A6
:101EE80000018B510F015D13E5EF10F08C51040DCB
:101EF800030EF326000EF422510EF324F66EFF0EA5
:101F0800F420F76EF86A000EF822100E0800F5604B
:101F180090EF0FF092EF0FF0CFEF0FF08C51040D10
:101F2800030EF326000EF422510EF324F66EFF0E74
:101F3800F420F76EF86A000EF8220800F5CF8AF050
:101F4800F80E8A27010E8B6F8A2BADEF0FF0D89011
:101F58008B378A2FABEF0FF000018B510F015C1309
:101F6800E5EF10F089518A6F8B6B8B51000AD8B45A
:101F7800C0EF0FF0E5EF10F08A51000AD8B4C8EFAF
:101F88000EF0010AD8B4C8EF0EF0030AD8B440EF37
:101F98000FF0E5EF10F0E5EF10F08C51040D020E94
:101FA800F326000EF422510EF324F66EFF0EF420F1
:101FB800F76EF86A000EF8220800F5CF8AF0010ED5
:101FC8008B6F8A2BEAEF0FF0D8908B378A2FE8EFC8
:101FD8000FF000018B51FF0A921605EF11F08C519A
:101FE800040D020EF326000EF422510EF324F66EB1
:101FF800FF0EF420F76EF86A000EF8220800F5CFFD
:102008008AF0010E8B6F8A2B0CEF10F0D8908B376B
:102018008A2F0AEF10F000018B51921205EF11F090
:1020280089518A6F8B6B8B51000AD8B41EEF10F060
:1020380005EF11F08A51000AD8B4D1EF0FF0010A68
:10204800D8B4F3EF0FF0030AD8B405EF11F005EF99
:1020580011F08C51040D020EF326000EF422510EDD
:10206800F324F66EFF0EF420F76EF86A000EF822DD
:102078000800F5CF8AF0010E8B6F8A2B46EF10F01F
:10208800D8908B378A2F44EF10F000018B51FF0A4C
:10209800931605EF11F08C51040D020EF326000E75
:1020A800F422510EF324F66EFF0EF420F76EF86A50
:1020B800000EF8220800F5CF8AF0010E8B6F8A2BEC
:1020C80068EF10F0D8908B378A2F66EF10F0000178
:1020D8008B51931205EF11F089518A6F8B6B8B51DD
:1020E800000AD8B47AEF10F005EF11F08A51000A0F
:1020F800D8B42DEF10F0010AD8B44FEF10F0030A4E
:10210800D8B405EF11F005EF11F08C51040D020E53
:10211800F326000EF422510EF324F66EFF0EF4207F
:10212800F76EF86A000EF8220800F5CF8AF0010E63
:102138008B6F8A2BA2EF10F0D8908B378A2FA0EFE5
:1021480010F000018B51FF0A941605EF11F08C5125
:10215800040D020EF326000EF422510EF324F66E3F
:10216800FF0EF420F76EF86A000EF8220800F5CF8B
:102178008AF0010E8B6F8A2BC4EF10F0D8908B3742
:102188008A2FC2EF10F000018B51941205EF11F065
:1021980089518A6F8B6B8B51000AD8B4D6EF10F037
:1021A80005EF11F08A51000AD8B489EF10F0010A3E
:1021B800D8B4ABEF10F0030AD8B405EF11F005EF6F
:1021C80011F000018C51040D010EF326000EF422CB
:1021D800510EF324F66EFF0EF420F76EF86A000E27
:1021E800F8220800F550410AD8B414EF10F0030A99
:1021F800D8B470EF10F0010AD8B4CCEF10F005EFA6
:1022080011F01200E2EC37F0010154510001895D30
:102218000101F86F555100018A590101F96F5651B2
:1022280000018B590101FA6F575100018C590101C6
:10223800FB6F0001C1518D6F8E6B8F6B906B3E0EE3
:10224800916F000E926F000E936F000E946F81ECE9
:1022580039F00101F85100018D5D0101F9510001CA
:102268008E590101FA5100018F590101FB510001FA
:102278009059D8B042EF11F044EF11F050EF11F03F
:1022880079EC2EF0E2EC37F089C054F18AC055F1B0
:102298008BC056F18CC057F1E2EC37F00101505178
:1022A8000001895D0101F86F515100018A5901014E
:1022B800F96F525100018B590101FA6F5351000116
:1022C8008C590101FB6FFB51FA110BE1250EF85DEA
:1022D800F40EF959D8A073EF11F075EF11F081EFF2
:1022E80011F05EEC30F0E2EC37F089C050F18AC0B2
:1022F80051F18BC052F18CC053F1000E02011F6FD7
:102308001F51020D910EF324F66EFF0EF420F76EA6
:10231800F86A000EF8220900F5500900F510D8B443
:1023280098EF11F09AEF11F0EEEF11F01F51020D36
:10233800910EF324F66EFF0EF420F76EF86A000E85
:10234800F8220900F5CFF8F10900F5CFF9F1080EE8
:102358000101F827000EF923F8C1F6FFF9C1F7FFCC
:10236800F86A0900F5500900F510D8B4BEEF11F06D
:10237800C0EF11F0EEEF11F002011F51020D910EA6
:10238800F324F66EFF0EF420F76EF86A000EF822BA
:102398000900F5CFF8F10900F5CFF9F1080E0101B0
:1023A800F827000EF923F8C1F6FFF9C1F7FFF86A1C
:1023B8000900F5CFFAF10900F5CFFBF102D8EEEFED
:1023C80011F00500FA6EFA51FD6EFB51FE6EFF6AC0
:1023D800FA50120002011F2B040E1F65F6EF11F0D0
:1023E800F8EF11F084EF11F0A0EC18F0000E0201E4
:1023F8001E6F0001BF51C011D8B405EF12F007EFEE
:1024080012F004EF13F0020EBF250101F86F000E61
:102418000001C0210101F96FF8C1F6FFF9C1F7FF0A
:10242800F86A0900F5500900F510D8B41EEF12F04B
:1024380020EF12F004EF13F0200E0001A26F020E3D
:10244800A36F020EBF250101F86F000E0001C02125
:102458000101F96FF8C1F6FFF9C1F7FFF86A090041
:10246800F5CFFAF10900F5CFFBF102D845EF12F0EC
:102478000500FA6EFA51FD6EFB51FE6EFF6AFA50C6
:1024880012000009D8B44BEF12F04DEF12F004EF30
:1024980013F002012051D8B454EF12F056EF12F0A5
:1024A80004EF13F0070E0AEC25F0200E0001896FE7
:1024B800020E8A6F60EC40F002011E6F1E51D8A414
:1024C80068EF12F06AEF12F004EF13F0000E1F6FBE
:1024D8001F51020D910EF324F66EFF0EF420F76ED5
:1024E800F86A000EF8220900F5500900F510D8B472
:1024F80080EF12F082EF12F0E7EF12F01F51020D99
:10250800910EF324F66EFF0EF420F76EF86A000EB3
:10251800F8220900F5CFF8F10900F5CFF9F1060E18
:102528000101F827000EF923F8C1F6FFF9C1F7FFFA
:10253800F86A0900F5500900F510D8B4A6EF12F0B2
:10254800A8EF12F0E7EF12F0200EEE6F020EEF6F19
:1025580002011F51020D910EF324F66EFF0EF420B6
:10256800F76EF86A000EF8220900F5CFF8F10900B5
:10257800F5CFF9F1060E0101F827000EF923F8C18D
:10258800F6FFF9C1F7FFF86A0900F5CFFAF109007B
:10259800F5CFFBF102D8DAEF12F00500FA6EFA5126
:1025A800FD6EFB51FE6EFF6AFA501200E806D8A4D1
:1025B800E0EF12F0E2EF12F0E7EF12F0010E020185
:1025C8001E6FF1EF12F002011F2B040E1F65EFEFD3
:1025D80012F0F1EF12F06CEF12F01E51D8A4F7EFE1
:1025E80012F0F9EF12F004EF13F0200E0001896FDA
:1025F800020E8A6F62EC40F002011E6F04EF13F0C6
:1026080002011E51D8B40BEF13F00DEF13F010EFC9
:1026180013F0080E0AEC25F01200EEC1D9FFEFC145
:10262800DAFF030EDF601BEF13F01DEF13F020EF4E
:1026380013F0000EFDEF14F0010120EE02F0EE5150
:10264800D926EF51DA22DE500001BE19D8B42FEF97
:1026580013F031EF13F033EF13F01DEF13F0010116
:1026680020EE03F0EE51D926EF51DA220001BD51D8
:10267800DE18D8B442EF13F044EF13F0DDEF14F096
:102688001DEF13F0EEC1D9FFEFC1DAFF040EDF60D2
:1026980050EF13F052EF13F070EF13F0BEC0A8F034
:1026A800BDC0A9F0010E0001AA6F6F0E39EC3FF012
:1026B800BEC0A8F0BDC0A9F0710E0001AA6F010E3E
:1026C800AB6F010EAC6FAF0E67EC3FF00001D54B5E
:1026D800D62B010EFDEF14F020EE04F0EE51D926B2
:1026E800EF51DA22DF5047EC3CF089C0F2F18AC0A2
:1026F800F3F10101F3BF85EF13F083EF13F0A3EFBC
:1027080013F0BEC0A8F0BDC0A9F0F2510008000146
:10271800AA6F6F0E39EC3FF0BEC0A8F0BDC0A9F09B
:10272800710E0001AA6F010EAB6F0101F251000892
:102738000001AC6FAF0E67EC3FF06AEF13F00001D9
:10274800D34BD42BBEC0A8F0BDC0A9F0010120EE28
:1027580004F0EE51D926EF51DA22DF500001AA6FBA
:10276800F2C1ABF0970E22EC3FF0010120EE04F02D
:10277800EE51D926EF51DA22DF50D8A4C6EF13F074
:10278800C8EF13F06DEF13F0020E15EC35F00001F1
:102798008D6F8E0E8E6F760E8F6F060EB9EC3AF037
:1027A8006DEF13F0EEC1D9FFEFC1DAFF050EDF6060
:1027B800E0EF13F0E2EF13F0F2EF13F0BEC0A8F071
:1027C800BDC0A9F0960E0001AA6F010EAB6F010EF5
:1027D800AC6FAF0E67EC3FF06AEF13F020EE05F038
:1027E800EE51D926EF51DA22DF5000019A6F01012C
:1027F80020EE04F0EE51D926EF51DA22DF50A5EC95
:1028080035F00101F06FF051F26FF36BF3BF15EF84
:1028180014F0F35108E1F205D8A015EF14F017EF02
:1028280014F022EF14F0BEC0A8F0BDC0A9F0F2C1A8
:10283800AAF06F0E39EC3FF06AEF13F0BEC0A8F0B3
:10284800BDC0A9F0590E50EC3FF0BEC0A8F0BDC005
:10285800A9F0960E0001AA6F010EAB6F000EAC6FC7
:10286800AF0E67EC3FF06DEF13F0EEC1D9FFEFC18B
:10287800DAFF050EDF6043EF14F045EF14F055EF73
:1028880014F0BEC0A8F0BDC0A9F08E0E0001AA6F5A
:10289800010EAB6F010EAC6FAF0E67EC3FF06AEF45
:1028A80013F020EE05F0EE51D926EF51DA22DF5071
:1028B80000019A6F010120EE04F0EE51D926EF5184
:1028C800DA22DF50A5EC35F00101F06FF051F26F1C
:1028D800F36BF3BF78EF14F0F35108E1F205D8A0D9
:1028E80078EF14F07AEF14F093EF14F0BEC0A8F06C
:1028F800BDC0A9F0F2C1AAF06F0E39EC3FF0BEC01E
:10290800A8F0BDC0A9F08E0E0001AA6F010EAB6F32
:10291800F2C1ACF0AF0E67EC3FF06AEF13F020EEB7
:1029280004F0EE51D926EF51DA22DF5047EC3CF0A3
:1029380089C0F2F18AC0F3F10101F3BFA8EF14F0E6
:10294800A6EF14F0C6EF14F0BEC0A8F0BDC0A9F001
:10295800F25100080001AA6F6F0E39EC3FF0BEC0BB
:10296800A8F0BDC0A9F08E0E0001AA6F010EAB6FD2
:102978000101F25100080001AC6FAF0E67EC3FF0A7
:102988006AEF13F0BEC0A8F0BDC0A9F020EE04F0B5
:10299800EE51D926EF51DA22DF500001AA6FF2C1B9
:1029A800ABF0970E22EC3FF00001D34BD42B6DEF28
:1029B80013F0010120EE01F0EE51D926EF51DA2291
:1029C800DF50F06FF16BF151000AD8B4EEEF14F05C
:1029D8001DEF13F0F051710AD8B446EF13F0FF0A57
:1029E800D8B439EF14F0180AD8B4D6EF13F01DEFA5
:1029F80013F012000001CB05D8A405EF15F007EF7E
:102A080015F055EF15F0E2EC37F0010160510001C7
:102A1800895DAE6F0101615100018A59AF6F0101F3
:102A2800625100018B59B06F0101635100018C594B
:102A3800B16FB1510DE1B50EAE5DC40EAF59040EC4
:102A4800B059D8A02AEF15F02CEF15F055EF15F076
:102A5800CEA531EF15F033EF15F042EF15F0BEC0FB
:102A6800A8F0BDC0A9F0C7C0AAF03AC0ABF0000EEC
:102A7800AC6FAB0E67EC3FF00001C72BE2EC37F010
:102A880089C060F18AC061F18BC062F18CC063F1CA
:102A98003A50D8B452EF15F054EF15F055EF15F041
:102AA8003A060001C951CE19D8B45DEF15F05FEFB1
:102AB80015F06CEF15F0F90E936F030E946F000E7E
:102AC800956FCEC096F0000EEAEC3AF0CEC0C9F091
:102AD8000001CA51CB19D8B474EF15F076EF15F090
:102AE80083EF15F0FB0E936F030E946F000E956F36
:102AF800CBC096F0000EEAEC3AF0CBC0CAF0E2EC9C
:102B080037F001015C510001895DAE6F01015D5133
:102B180000018A59AF6F01015E5100018B59B06FF6
:102B280001015F5100018C59B16FB151B0110BE136
:102B3800250EAE5DF40EAF59D8A0A5EF15F0A7EF9E
:102B480015F0C2EF16F0E2EC37F089C05CF18AC0EC
:102B58005DF18BC05EF18CC05FF13E4A3F2A3E506A
:102B68003F10D8A4BAEF15F0BCEF15F0C2EF16F07D
:102B78003C4A3D2AC2EF16F080A4C5EF15F0C7EF16
:102B880015F0D3EF15F0E2EC37F089C027F08AC0D2
:102B980028F08BC029F08CC02AF0CEEF16F0E2ECBA
:102BA80037F027500001895DAE6F28508A59AF6F02
:102BB80029508B59B06F2A508C59B16FB1510DE122
:102BC800910EAE5DD00EAF59030EB059D8A0EFEFFD
:102BD80015F0F1EF15F0CEEF16F0000ECB6FC869C7
:102BE800E2EC37F089C027F08AC028F08BC029F0C2
:102BF8008CC02AF0BEC0A8F0BDC0A9F0500E50ECA1
:102C08003FF0EFEC3DF0CEEF16F080A40EEF16F09B
:102C180010EF16F0CEEF16F0E2EC37F02750000177
:102C2800895DAE6F28508A59AF6F29508B59B06FA4
:102C38002A508C59B16FB1510DE1910EAE5DD00E95
:102C4800AF59030EB059D8A02CEF16F02EEF16F09E
:102C580049EF16F0C8C0CBF0CB05D8A436EF16F074
:102C680038EF16F045EF16F0BBC0BDF0BCC0BEF0A3
:102C7800BEC0A8F0BDC0A9F0520E50EC3FF0424AC9
:102C8800432AEFEC3DF0C7EF15F0E2EC37F02750A0
:102C98000001895DAE6F28508A59AF6F29508B5952
:102CA800B06F2A508C59B16FB151B0110BE1250E9C
:102CB800AE5DF40EAF59D8A064EF16F066EF16F0CB
:102CC800C7EF15F0BD51BE11D8B46DEF16F06FEF18
:102CD80016F076EF16F0BEC0A8F0BDC0A9F0510EF0
:102CE80050EC3FF0000E0001BE6F000EBD6FCB69C7
:102CF80045EF16F080A483EF16F085EF16F0CEEFBF
:102D080016F0E2EC37F027500001895DAE6F2850CD
:102D18008A59AF6F29508B59B06F2A508C59B16FAF
:102D2800B1510DE1910EAE5DD00EAF59030EB05901
:102D3800D8A0A1EF16F0A3EF16F0C7EF15F0BDC0AD
:102D4800BBF0BEC0BCF0000EBE6FBEC0BDF0000E32
:102D5800CB6F010EC86FE2EC37F089C027F08AC04C
:102D680028F08BC029F08CC02AF0BCC0A8F0BBC0EA
:102D7800A9F0500E50EC3FF045EF16F00001CB5192
:102D8800000AD8B409EF16F0FF0AD8B4C0EF15F05E
:102D98007EEF16F01200000120EE02F08951D926CC
:102DA8008A51DA22DF508D6F8E6B20EE04F0895144
:102DB800D9268A51DA22DF508F6FFF0E8F25906F48
:102DC800916BFF0E912320EE03F08951D9268A5189
:102DD800DA22DF50926F936B010E9227000E932335
:102DE80090519215946F91519315956F8D51941937
:102DF80007E18E519519D8A404EF17F006EF17F0E4
:102E080009EF17F0000E9FEF18F020EE01F08B513C
:102E1800D9268C51DA2210EE03F08951E1268A5125
:102E2800E222E7508D6F8D51090DF3CF8EF0F4CF6C
:102E38008FF089C0E1FF8AC0E2FFE6CF90F0E5CFCE
:102E480091F08E519025926F8F519121936F010EC1
:102E58009225E16E000E9321E26EDFCFE7FF20EEB0
:102E680002F08B51D9268C51DA2210EE03F08951E9
:102E7800E1268A51E222E7508D6F8D51090DF3CF7B
:102E88008EF0F4CF8FF089C0E1FF8AC0E2FFE6CF71
:102E980090F0E5CF91F08E519025926F8F5191214E
:102EA800936F020E9225E16E000E9321E26EDFCF42
:102EB800E7FF20EE03F08B51D9268C51DA2210EE71
:102EC80003F08951E1268A51E222E7508D6F8D5136
:102ED800090DF3CF8EF0F4CF8FF089C0E1FF8AC0DF
:102EE800E2FFE6CF90F0E5CF91F08E519025926FFA
:102EF8008F519121936F030E9225E16E000E93215D
:102F0800E26EDFCFE7FF20EE04F08B51D9268C511B
:102F1800DA2210EE03F08951E1268A51E222E750C5
:102F28008D6F8D51090DF3CF8EF0F4CF8FF089C0DE
:102F3800E1FF8AC0E2FFE6CF90F0E5CF91F08E5135
:102F48009025926F8F519121936F040E9225E16E17
:102F5800000E9321E26EDFCFE7FF20EE05F08B51E4
:102F6800D9268C51DA2210EE03F08951E1268A51D4
:102F7800E222E7508D6F8D51090DF3CF8EF0F4CF1B
:102F88008FF089C0E1FF8AC0E2FFE6CF90F0E5CF7D
:102F980091F08E519025926F8F519121936F050E6C
:102FA8009225E16E000E9321E26EDFCFE7FF20EE5F
:102FB80006F08B51D9268C51DA2210EE03F0895194
:102FC800E1268A51E222E7508D6F8D51090DF3CF2A
:102FD8008EF0F4CF8FF089C0E1FF8AC0E2FFE6CF20
:102FE80090F0E5CF91F08E519025926F8F519121FD
:102FF800936F060E9225E16E000E9321E26EDFCFED
:10300800E7FF20EE07F08B51D9268C51DA2210EE1B
:1030180003F08951E1268A51E222E7508D6F8D51E4
:10302800090DF3CF8EF0F4CF8FF089C0E1FF8AC08D
:10303800E2FFE6CF90F0E5CF91F08E519025926FA8
:103048008F519121936F070E9225E16E000E932107
:10305800E26EDFCFE7FF20EE08F08B51D9268C51C6
:10306800DA2210EE03F08951E1268A51E222E75074
:103078008D6F8D51090DF3CF8EF0F4CF8FF089C08D
:10308800E1FF8AC0E2FFE6CF90F0E5CF91F08E51E4
:103098009025926F8F519121936F080E9225E16EC2
:1030A800000E9321E26EDFCFE7FF8BC0D9FF8CC003
:1030B800DAFF10EE03F08951E1268A51E222E75047
:1030C8008D6F8D51090DF3CF8EF0F4CF8FF089C03D
:1030D800E1FF8AC0E2FFE6CF90F0E5CF91F08E5194
:1030E8009025E16E8F519121E26EDFCFE7FF20EE50
:1030F80003F08951D9268A51DA22DF2A20EE04F01A
:103108008951D9268A51DA2210EE03F08951E12635
:103118008A51E222DE50E65CD8A095EF18F097EFCE
:1031280018F09EEF18F020EE03F08951D9268A5145
:10313800DA22DF6A010E1200E2EC37F00101585181
:103148000001895D936F0101595100018A59946FFB
:1031580001015A5100018B59956F01015B51000122
:103168008C59966F965195110BE1720E935D020E74
:103178009459D8A0C2EF18F0C4EF18F06DEF19F009
:10318800B52BB62BE2EC37F089C058F18AC059F15B
:103198008BC05AF18CC05BF16DEF19F08A8C000E70
:1031A800B66F3BEF1AF08A9CD3EF18F0B6C089F0DF
:1031B8008A6B000E8C6F190E8B6FDCEC2EF0000101
:1031C800893B894789478A508919BF0B89198A6EB3
:1031D800310EB665F2EF18F0F4EF18F03BEF1AF085
:1031E800D3EF18F0B6C089F08A6B000E8C6F320EE0
:1031F8008B6FDCEC2EF00001893B894789478A50A8
:103208008919BF0B89198A6E630EB6650EEF19F01E
:1032180010EF19F03BEF1AF0D3EF18F0B6C089F0B1
:103228008A6B000E8C6F640E8B6FDCEC2EF0000145
:10323800893B894789478A508919BF0B89198A6E42
:10324800C70EB6652AEF19F02CEF19F03BEF1AF00C
:10325800D3EF18F08A8C180EB66535EF19F037EFF2
:1032680019F03BEF1AF0000EB66F000EB86F3BEF87
:103278001AF08A9C180EB66544EF19F046EF19F05B
:103288003BEF1AF0000EB66F010EB86F3BEF1AF065
:103298008A8C310EB66553EF19F055EF19F03BEFF4
:1032A8001AF037EF19F08A9C310EB6655EEF19F007
:1032B80060EF19F03BEF1AF046EF19F08A9C630EA5
:1032C800B66569EF19F06BEF19F03BEF1AF046EFAE
:1032D80019F00001B851936F946B9451000AD8B457
:1032E80078EF19F03BEF1AF09351000AD8B4D7EFF2
:1032F80018F0010AD8B4D2EF18F0030AD8B4DAEFFC
:1033080018F0010AD8B4F6EF18F0070AD8B412EF8B
:1033180019F0010AD8B43DEF19F0030AD8B42EEF1A
:1033280019F0010AD8B457EF19F00F0AD8B44CEFC6
:1033380019F0010AD8B462EF19F03BEF1AF08A8E3F
:10334800000EB56F70EF1AF08A9EA4EF19F0B5C0A1
:1033580089F08A6B000E8C6F190E8B6FDCEC2EF0E7
:103368000001893389338A5089197F0B89198A6E3C
:10337800310EB565C2EF19F0C4EF19F070EF1AF00D
:10338800A4EF19F0B5C089F08A6B000E8C6F320E6D
:103398008B6FDCEC2EF00001893389338A50891950
:1033A8007F0B89198A6E630EB565DDEF19F0DFEFC3
:1033B80019F070EF1AF0A4EF19F0B5C089F08A6B14
:1033C800000E8C6F640E8B6FDCEC2EF000018933DD
:1033D80089338A5089197F0B89198A6EC70EB5659A
:1033E800F8EF19F0FAEF19F070EF1AF0A4EF19F0EE
:1033F8008A8E180EB56503EF1AF005EF1AF070EF14
:103408001AF0000EB56F000EB76F70EF1AF08A9EB3
:10341800180EB56512EF1AF014EF1AF070EF1AF0E3
:10342800000EB56F010EB76F70EF1AF08A8E310E6D
:10343800B56521EF1AF023EF1AF070EF1AF005EFD7
:103448001AF08A9E310EB5652CEF1AF02EEF1AF09D
:1034580070EF1AF014EF1AF08A9E630EB56537EF15
:103468001AF039EF1AF070EF1AF014EF1AF0B7519A
:10347800936F946B9451000AD8B445EF1AF070EF2B
:103488001AF09351000AD8B4A8EF19F0010AD8B479
:10349800A3EF19F0030AD8B4ABEF19F0010AD8B4B6
:1034A800C6EF19F0070AD8B4E1EF19F0010AD8B449
:1034B8000BEF1AF0030AD8B4FCEF19F0010AD8B4DC
:1034C80025EF1AF00F0AD8B41AEF1AF0010AD8B487
:1034D80030EF1AF070EF1AF01200A6C09FF0A7C0E4
:1034E800A0F0A8C0A1F0A9C0A2F048EC39F00101F1
:1034F800E76FE729D8A483EF1AF085EF1AF07EEF7B
:103508001BF0010EE56F000EE76FE751D8B48FEF9F
:103518001AF091EF1AF093EF1AF073EF1BF0E751DE
:10352800B4EC36F093C0E3F194C0E4F10101E35147
:10353800E411D8A4A2EF1AF0A4EF1AF06AEF1BF076
:10354800E751060DF3CFADF0F4CFAEF0010E000158
:10355800AD25AF6F010EAE21B06FAFC093F0B0C014
:1035680094F0956BA6C096F0000EEAEC3AF00101D3
:10357800E751060DF3CFADF0F4CFAEF0000E000129
:10358800AD25AF6F010EAE21B06FAFC093F0B0C0E4
:1035980094F0956BA751966F000EEAEC3AF0010192
:1035A800E751060DF3CFADF0F4CFAEF0030E0001F6
:1035B800AD25AF6F010EAE21B06FAFC093F0B0C0B4
:1035C80094F0956BA8C096F0000EEAEC3AF0010171
:1035D800E751060DF3CFADF0F4CFAEF0020E0001C7
:1035E800AD25AF6F010EAE21B06FAFC093F0B0C084
:1035F80094F0956BA951966F000EEAEC3AF0000131
:10360800AC51D8B40AEF1BF00CEF1BF026EF1BF0FF
:103618000101E751060DF3CFADF0F4CFAEF0040E83
:103628000001AD25AF6F010EAE21B06FAFC093F0B2
:10363800B0C094F0956B010E966F000EEAEC3AF06C
:103648003EEF1BF00101E751060DF3CFADF0F4CFCB
:10365800AEF0040E0001AD25AF6F010EAE21B06FC4
:10366800AFC093F0B0C094F0956B000E966F000E4B
:10367800EAEC3AF0000E0101E66FE751060DF3CFD0
:10368800ADF0F4CFAEF0E6510001AD27000EAE2349
:10369800050EAD25AF6F010EAE21B06FAFC093F030
:1036A800B0C094F0956B000E966F000EEAEC3AF0FD
:1036B8000101E62B050EE66564EF1BF066EF1BF0D3
:1036C80041EF1BF0000EE56F73EF1BF0E72BE7519E
:1036D800D8B471EF1BF073EF1BF093EF1AF0E551BC
:1036E800D8B479EF1BF07BEF1BF07EEF1BF0040ED4
:1036F80093EF1BF0AAC09AF0ABC09BF0E751B7EC70
:1037080039F00009D8B48BEF1BF08DEF1BF090EF68
:103718001BF0060E93EF1BF05EEC30F0000E12006B
:10372800769093EC1FF0DE0E0001896F010E8A6F10
:103738003FEC2FF089C0A6F08AC0A7F00001A6517F
:10374800A711D8B4AAEF1BF0ACEF1BF0BEEF1BF02B
:10375800A2C089F0A3C08AF0A6C08BF0A7C08CF0E5
:10376800000E8E6F090E8D6F1EEC3CF07680010EF8
:10377800A4EF1CF071AEC3EF1BF0C5EF1BF0A1EF77
:103788001CF06F50070BFFEC2FF089C0A8F08AC01F
:10379800A9F00001A851A911D8A4D5EF1BF0D7EFC3
:1037A8001BF0DBEF1BF07680000EA4EF1CF0779285
:1037B80020EE02F0A851D926A951DA22DFA6E7EFB8
:1037C8001BF0E9EF1BF0EBEF1BF0D8EF1BF0A8C0E4
:1037D80093F0A9C094F065EC24F0E806D8A4F7EFBC
:1037E8001BF0F9EF1BF08EEF1CF00101C04BC12B51
:1037F800000120EE06F0A851D926A951DA2210EED0
:1038080001F0A251E126A351E222DFCFE7FF20EE2B
:1038180005F0A851D926A951DA22DF500F0BA2C012
:10382800D9FFA3C0DAFFDF6EA2C0D9FFA3C0DAFFB9
:10383800080EDF6422EF1CF024EF1CF02AEF1CF0C6
:10384800A2C0D9FFA3C0DAFF080EDF6E20EE07F092
:10385800A851D926A951DA2210EE02F0A251E12688
:10386800A351E222DFCFE7FF20EE08F0A851D926C6
:10387800A951DA2210EE03F0A251E126A351E22267
:10388800DFCFE7FF20EE09F0A851D926A951DA22A7
:1038980010EE04F0A251E126A351E222DFCFE7FFA8
:1038A80020EE0AF0A851D926A951DA2210EE05F027
:1038B800A251E126A351E222DFCFE7FF20EE0BF071
:1038C800A851D926A951DA2210EE06F0A251E12614
:1038D800A351E222DFCFE7FF20EE0CF0A851D92652
:1038E800A951DA2210EE07F0A251E126A351E222F3
:1038F800DFCFE7FF20EE0DF0A851D926A951DA2233
:1039080010EE08F0A251E126A351E222DFCFE7FF33
:10391800010EA56F77AE93EF1CF095EF1CF096EFB4
:103928001CF0779EA8C0D9FFA9C0DAFF7F0EDF166A
:1039380076800001A551A4EF1CF07680D8EF1BF02B
:10394800120000018C6F100E00018C61AEEF1CF0AC
:10395800B0EF1CF0B2EF1DF093EF1DF08951D8B411
:10396800B8EF1CF0BAEF1CF0DBEF1CF08C51040D23
:10397800020EF326000EF422510EF324F66EFF0E0B
:10398800F420F76EF86A000EF8220800F5CF8AF0E6
:10399800010E8B6F8A2BD3EF1CF0D8908B378A2FB0
:1039A800D1EF1CF000018B518912B2EF1DF08C5140
:1039B800040D020EF326000EF422510EF324F66EC7
:1039C800FF0EF420F76EF86A000EF8220800F5CF13
:1039D8008AF0010E8B6F8A2BF4EF1CF0D8908B378E
:1039E8008A2FF2EF1CF000018B51FF0A8916B2EF03
:1039F8001DF08951D8B403EF1DF005EF1DF026EF37
:103A08001DF08C51040D020EF326000EF422510E07
:103A1800F324F66EFF0EF420F76EF86A000EF82213
:103A28000800F5CF8AF0010E8B6F8A2B1EEF1DF070
:103A3800D8908B378A2F1CEF1DF000018B518A120A
:103A4800B2EF1DF08C51040D020EF326000EF42285
:103A5800510EF324F66EFF0EF420F76EF86A000E8E
:103A6800F8220800F5CF8AF0010E8B6F8A2B3FEF02
:103A78001DF0D8908B378A2F3DEF1DF000018B5138
:103A8800FF0A8A16B2EF1DF08951D8B44EEF1DF027
:103A980050EF1DF071EF1DF08C51040D020EF3264E
:103AA800000EF422510EF324F66EFF0EF420F76E8A
:103AB800F86A000EF8220800F5CF8AF0010E8B6F25
:103AC8008A2B69EF1DF0D8908B378A2F67EF1DF08E
:103AD80000018B518B12B2EF1DF08C51040D020EB8
:103AE800F326000EF422510EF324F66EFF0EF42096
:103AF800F76EF86A000EF8220800F5CF8AF0010E7A
:103B08008B6F8A2B8AEF1DF0D8908B378A2F88EF1E
:103B18001DF000018B51FF0A8B16B2EF1DF08C517E
:103B2800040D010EF326000EF422510EF324F66E56
:103B3800FF0EF420F76EF86A000EF8220800F55020
:103B4800410AD8B4B2EF1CF0030AD8B4FDEF1CF058
:103B5800010AD8B448EF1DF0B2EF1DF012007698B4
:103B6800D90E0001896F010E8A6FD0EC3DF0000973
:103B7800D8A4C1EF1DF0C3EF1DF088EF1EF00F01B0
:103B880020B7C9EF1DF0CBEF1DF088EF1EF0000144
:103B9800D051D8A4D2EF1DF0D4EF1DF0E0EF1DF006
:103BA800CF51D8A4DAEF1DF0DCEF1DF0E0EF1DF0E7
:103BB800010ECF6F010ED06F768896C0D9FF97C0DF
:103BC800DAFF080EDF64EBEF1DF0EDEF1DF0F3EF09
:103BD8001DF096C0D9FF97C0DAFF080EDF6E20EE01
:103BE80001F09651D9269751DA22DF50986F996BD8
:103BF800510E9825F66EFE0E9921F76EF86A000EA2
:103C0800F8220800F5509A6F9B6B9B0E9A25F66E6A
:103C1800FF0E9B21F76EF86A000EF8220800F5CF18
:103C28009CF0D039E8461F0B0F0B9C110F01216F38
:103C3800D0C098F0070E00019817050E996FD8901C
:103C48009837992F23EF1EF098510F01226F00012A
:103C580020EE01F09651D9269751DA22DF500F0154
:103C6800266F000120EE02F09651D9269751DA22EC
:103C7800DF500F01276F000120EE03F09651D9267F
:103C88009751DA22DF500F01286F000120EE04F06F
:103C98009651D9269751DA22DF500F01296F00017A
:103CA80020EE05F09651D9269751DA22DF500F0100
:103CB8002A6F000120EE06F09651D9269751DA2294
:103CC800DF500F012B6F000120EE07F09651D92627
:103CD8009751DA22DF500F012C6F000120EE08F017
:103CE8009651D9269751DA22DF500F012D6F96C0D1
:103CF800D9FF97C0DAFFDF500F0B256F208701012E
:103D0800BA4BBB2BA4EF1EF0D90E0001896F010E30
:103D18008A6F96C08BF097C08CF0CFEC16F0000934
:103D2800D8A499EF1EF09BEF1EF0A3EF1EF001013F
:103D3800B84BB92B2BEC40F07688A4EF1EF07688B0
:103D48001200000E0101E06F000EE16F290EDE6F18
:103D5800020EDF6F200EE26F000EDB6F000EDC6FCD
:103D6800680ED96F010EDA6F080EDD6FFE0E0001C6
:103D78008D6F030E8E6F000E8F6F000ED2EC38F031
:103D88008DC094F08EC095F0000195BFD0EF1EF065
:103D9800CEEF1EF0D4EF1EF0000ED06FD6EF1EF05F
:103DA80094C0D0F0000E956F000E946FD8909435A3
:103DB800D96E9535DA6EB00ED926010EDA22DE6A92
:103DC800DD6A944B952B95BFF3EF1EF0955109E1F1
:103DD800100E945DD8A0F3EF1EF0F5EF1EF0DAEFA9
:103DE8001EF0000E396E000E786E800E6F6E6EAE8D
:103DF80000EF1FF002EF1FF0FBEF1EF0B00E726E27
:103E0800000E0E017D6F0F0E436F9E0E446F030E62
:103E1800456F200E706E000EF86F080EF96F000ED9
:103E2800FA6F000EFB6F000EE16F000E716F000E4F
:103E3800796F010E466F000E606E000E0F01306F35
:103E4800000E0E01806F000E906F000EA06F000E26
:103E5800B06F000EC06F000ED06F000E7E6F7F85B2
:103E68007F977F99000E6F6E6EBE3DEF1FF03FEF9C
:103E78001FF038EF1FF0000E0F01206F20912093E4
:103E8800000E256F000E216F000E226F000E106FBE
:103E980010911083400E156F9F0EF66EFF0EF76E91
:103EA800F86A0800F5CF93F00001D039E8461F0BF7
:103EB8000F0B93110F01116F22CF12FF000E006F2D
:103EC80000810083000E056F9F0EF66EFF0EF76EE1
:103ED800F86A0800F5CF93F00001D039E8461F0BC7
:103EE8000F0B93110F01016F22CF02FF000E00018B
:103EF800CF6FE2EC37F089C02BF08AC02CF08BC072
:103F08002DF08CC02EF02BC02FF02CC030F02DC01F
:103F180031F02EC032F076807688768A120054EF1F
:103F280020F0E2EC37F02B500001895D9B6F2C509C
:103F38008A599C6F2D508B599D6F2E508C599E6FAE
:103F48009E519D110BE1D50E9B5D300E9C59D8A05A
:103F5800B0EF1FF0B2EF1FF06AEF20F0010EA16F73
:103F6800400EA125D96EDA6A010EDA22DF6AA12B8A
:103F78000F0EA165C2EF1FF0C4EF1FF0B4EF1FF0E2
:103F8800010E0101406F020E0001CF6FE2EC37F025
:103F980089C02BF08AC02CF08BC02DF08CC02EF07D
:103FA8000101C84BC92B0F0110876AEF20F0E2EC22
:103FB80037F02B500001895D9B6F2C508A599C6FFC
:103FC8002D508B599D6F2E508C599E6F9E519D116F
:103FD8000BE16B0E9B5D180E9C59D8A0F6EF1FF0F5
:103FE800F8EF1FF06AEF20F0000EA16FFDEF1FF051
:103FF800A12B400EA125D96EDA6A010EDA22DE283D
:10400800D8A409EF20F00BEF20F013EF20F00F0EEB
:10401800A16511EF20F013EF20F0FCEF1FF0400E28
:10402800A125D96EDA6A010EDA22DF509F6F9F2927
:10403800D8B421EF20F023EF20F04AEF20F0A1516F
:10404800080DF3CFA0F02CEF20F0D8909F33A02BD1
:104058009FB131EF20F033EF20F029EF20F0A0518D
:10406800D8B439EF20F03BEF20F04AEF20F0640E8F
:10407800A06141EF20F043EF20F04AEF20F0A0C00C
:10408800D0F0D051A6EC37F04FEF20F00101CE4B25
:10409800CF2B2BEC40F0000E0001CF6F6AEF20F021
:1040A8000001CF519B6F9C6B9C51000AD8B45FEF05
:1040B80020F06AEF20F09B51010AD8B495EF1FF069
:1040C800030AD8B4DBEF1FF06AEF20F012003BEFD1
:1040D80021F06F50070BBDEC30F060C06EF061C08E
:1040E8006FF0779271AC7BEF20F07DEF20F07EEFE0
:1040F80020F0719C000120EE02F06E51D9266F511C
:10410800DA22DFB68AEF20F08CEF20F02CEF21F0D6
:10411800DE0E606F010E616F06EC2AF060C06CF075
:1041280061C06DF000016C516D11D8A49EEF20F0B4
:10413800A0EF20F0AFEF20F00101BE4BBF2B35EC14
:1041480040F077AEAAEF20F0ACEF20F042EF21F07C
:10415800779E42EF21F020EE06F06E51D9266F517E
:10416800DA2210EE01F06C51E1266D51E222DFCF28
:10417800E7FF20EE07F06E51D9266F51DA2210EED4
:1041880002F06C51E1266D51E222DFCFE7FF20EE0D
:1041980008F06E51D9266F51DA2210EE03F06C51F7
:1041A800E1266D51E222DFCFE7FF20EE09F06E51E4
:1041B800D9266F51DA2210EE04F06C51E1266D51C8
:1041C800E222DFCFE7FF20EE0AF06E51D9266F51C9
:1041D800DA2210EE05F06C51E1266D51E222DFCFB4
:1041E800E7FF20EE0BF06E51D9266F51DA2210EE60
:1041F80006F06C51E1266D51E222DFCFE7FF20EE99
:104208000CF06E51D9266F51DA2210EE07F06C517E
:10421800E1266D51E222DFCFE7FF20EE0DF06E516F
:10422800D9266F51DA2210EE08F06C51E1266D5153
:10423800E222DFCFE7FF20EE05F06E51D9266F515D
:10424800DA22DF500F0B6CC0D9FF6DC0DAFFDF6ECA
:1042580077AE31EF21F033EF21F034EF21F0779E84
:104268006EC0D9FF6FC0DAFF7F0EDF16779071BE80
:1042780040EF21F042EF21F06DEF20F0120011EF36
:1042880022F06F50070B37EC32F001C00FF002C07C
:1042980010F0779271AC53EF21F055EF21F056EF03
:1042A80021F0719C20EE02F00F50D9261050DA222E
:1042B800DFB661EF21F063EF21F002EF22F0DE0EAE
:1042C800016E010E026E83EC2AF001C00DF002C0EF
:1042D8000EF00D500E10D8A474EF21F076EF21F0F7
:1042E80085EF21F00101BE4BBF2B3FEC40F077AECC
:1042F80080EF21F082EF21F018EF22F0779E18EF7F
:1043080022F020EE06F00F50D9261050DA2210EED7
:1043180001F00D50E1260E50E222DFCFE7FF20EE3C
:1043280007F00F50D9261050DA2210EE02F00D5087
:10433800E1260E50E222DFCFE7FF20EE08F00F5013
:10434800D9261050DA2210EE03F00D50E1260E5057
:10435800E222DFCFE7FF20EE09F00F50D9261050F8
:10436800DA2210EE04F00D50E1260E50E222DFCFE3
:10437800E7FF20EE0AF00F50D9261050DA2210EE8F
:1043880005F00D50E1260E50E222DFCFE7FF20EEC8
:104398000BF00F50D9261050DA2210EE06F00D500F
:1043A800E1260E50E222DFCFE7FF20EE0CF00F509F
:1043B800D9261050DA2210EE07F00D50E1260E50E3
:1043C800E222DFCFE7FF20EE0DF00F50D926105084
:1043D800DA2210EE08F00D50E1260E50E222DFCF6F
:1043E800E7FF20EE05F00F50D9261050DA22DF50F3
:1043F8000F0B0DC0D9FF0EC0DAFFDF6E77AE07EFE7
:1044080022F009EF22F00AEF22F0779E0FC0D9FFC1
:1044180010C0DAFF7F0EDF16779071BE16EF22F01C
:1044280018EF22F045EF21F0120077980F0120B71E
:1044380020EF22F022EF22F0E8EF22F0D90E00015F
:10444800606F010E616F9FEC2FF060C06FF061C06C
:1044580070F000016F517011D8B435EF22F037EFCA
:1044680022F0D9EF22F020EE01F06F51D9267051D9
:10447800DA22DF506A6F6B6B510E6A25F66EFE0EFC
:104488006B21F76EF86A000EF8220800F5506C6F81
:104498006D6B9B0E6C25F66EFF0E6D21F76EF86A3C
:1044A800000EF8220800F5CF6EF0D039E8461F0B51
:1044B8000F0B6E110F01216FD0C06AF0070E0001BB
:1044C8006A17050E6B6FD8906A376B2F67EF22F06B
:1044D8006A510F01226F000120EE01F06F51D926B9
:1044E8007051DA22DF500F01266F000120EE02F032
:1044F8006F51D9267051DA22DF500F01276F000162
:1045080020EE03F06F51D9267051DA22DF500F01E7
:10451800286F000120EE04F06F51D9267051DA227D
:10452800DF500F01296F000120EE05F06F51D926E9
:104538007051DA22DF500F012A6F000120EE06F0D9
:104548006F51D9267051DA22DF500F012B6F00010D
:1045580020EE07F06F51D9267051DA22DF500F0193
:104568002C6F000120EE08F06F51D9267051DA2225
:10457800DF500F012D6F6FC0D9FF70C0DAFFDF5019
:10458800256F5AEC38F060C02FF061C030F062C07F
:1045980031F063C032F0000E396E0F012087768843
:1045A8000101BA4BBB2BEAEF22F0000E2F6E000E72
:1045B800306E000E316E000E326E000E0F01206F4D
:1045C80077987698EAEF22F07798768812007798AD
:1045D8000F0120B7F2EF22F0F4EF22F0A7EF23F05B
:1045E800D90E016E010E026E1CEC31F001C010F004
:1045F80002C011F010501110D8B405EF23F007EFE6
:1046080023F098EF23F020EE01F01050D926115036
:10461800DA22DF500B6E0C6A510E0B24F66EFE0E7A
:104628000C20F76EF86A000EF8220800F5500D6E9F
:104638000E6A9B0E0D24F66EFF0E0E20F76EF86ABA
:10464800000EF8220800F5CF0FF00001D039E84637
:104658001F0B0F0B0F100F01216FD0C00BF0070EAF
:104668000B16050E0C6ED8900B360C2E37EF23F078
:104678000B50226F20EE01F01050D9261150DA228B
:10468800DF50266F20EE02F01050D9261150DA22A2
:10469800DF50276F20EE03F01050D9261150DA2290
:1046A800DF50286F20EE04F01050D9261150DA227E
:1046B800DF50296F20EE05F01050D9261150DA226C
:1046C800DF502A6F20EE06F01050D9261150DA225A
:1046D800DF502B6F20EE07F01050D9261150DA2248
:1046E800DF502C6F20EE08F01050D9261150DA2236
:1046F800DF502D6F10C0D9FF11C0DAFFDF50256FD2
:10470800F1EC36F001C02FF002C030F003C031F0F8
:1047180004C032F0000E396E0F012087768801013F
:10472800BA4BBB2BA9EF23F0000E2F6E000E306E94
:10473800000E316E000E326E000E0F01206F77985A
:104748007698A9EF23F0779876881200AFC09FF08B
:10475800B0C0A0F0B1C0A1F0B2C0A2F048EC39F0EE
:104768000101E56FE529D8A4BCEF23F0BEEF23F0E3
:10477800D8EF23F0BEC0A8F0BDC0A9F0070E000115
:10478800AA6F6F0E39EC3FF0BEC0A8F0BDC0A9F00B
:10479800B20E0001AA6F040EAB6F070EAC6FAF0E1E
:1047A80067EC3FF064EF24F0010E0001B365DFEF22
:1047B80023F0E1EF23F0FAEF23F0BEC0A8F0BDC06C
:1047C800A9F0060EAA6F6F0E39EC3FF0BEC0A8F034
:1047D800BDC0A9F0B20E0001AA6F040EAB6F060EA1
:1047E800AC6FAF0E67EC3FF064EF24F0B351D8A480
:1047F80000EF24F002EF24F024EF24F0B051A86F6A
:10480800AFC0A9F0B251AA6FB1C0ABF0000EAC6F47
:104818000101E5515EEC40F00001AD6FD30E0BECE9
:104828003FF0040E15EC35F000018D6FDC0E8E6F35
:10483800650E8F6F0101E551B9EC3AF064EF24F091
:10484800B305936F0101E5516AEC37F093C0E3F1CA
:1048580094C0E4F10101E4BF36EF24F034EF24F012
:1048680054EF24F0BEC0A8F0BDC0A9F0E351000881
:104878000001AA6F6F0E39EC3FF0BEC0A8F0BDC0B2
:10488800A9F0B20E0001AA6F040EAB6F0101E3514B
:1048980000080001AC6FAF0E67EC3FF064EF24F046
:1048A8000001B051A86FAFC0A9F0B251AA6FB1C052
:1048B800ABF0B3C0ACF0E3C1ADF0D30E0BEC3FF0FE
:1048C8001200000120EE05F09351D9269451DA2206
:1048D800DFAC71EF24F073EF24F082EF24F00F01C6
:1048E8000087E2EC37F089C02BF08AC02CF08BC02F
:1048F8002DF08CC02EF0000E09EF25F020EE02F00E
:104908009351D9269451DA22DF50956F050E966F90
:10491800D8909533962F8CEF24F020EE01F0935128
:10492800D9269451DA22DF50080DF35095257F0BD4
:10493800996F020ECF19D8B4A4EF24F0A6EF24F093
:10494800B7EF24F020EE05F09351D9269451DA22DE
:10495800DF50956F0F0E9517D8A4B5EF24F0B7EF79
:1049680024F0D5EF24F099C095F0070E9517010EA5
:10497800966F952BC2EF24F0D8909637952FC0EFFD
:1049880024F000019939E8461F0B976F986B400E89
:104998009725D96E010E9821DA6E9651DF12F5EF40
:1049A80024F0CF51D8A4DBEF24F0DDEF24F0F5EFAD
:1049B80024F0D0519919D8A4E4EF24F0E6EF24F0BC
:1049C800F5EF24F0010ECF6F0101CA4BCB2BE2ECBF
:1049D80037F089C02BF08AC02CF08BC02DF08CC02A
:1049E8002EF0000120EE05F09351D9269451DA22D9
:1049F800DF50956F0F0E9517D8A405EF25F008EF37
:104A080025F0010E09EF25F0000E120000018B6F52
:104A18006AEF25F0000EB76F000EB86FACEF25F007
:104A2800010EB76F000EB86FACEF25F0000EB76F30
:104A3800030EB86FACEF25F0000EB76F010EB86F1C
:104A4800ACEF25F0000EB66F190EB56F020EB76FFA
:104A5800020EB86FACEF25F0CB29D8A436EF25F0BD
:104A680038EF25F03CEF25F0060EB86FACEF25F0D7
:104A7800CB05D8A442EF25F044EF25F0ACEF25F0A4
:104A8800060EB76FACEF25F0CB29D8A44EEF25F072
:104A980050EF25F054EF25F0080EB86FACEF25F075
:104AA800CB05D8A45AEF25F05CEF25F0ACEF25F044
:104AB800080EB76FACEF25F0000EB66F000EB56F9D
:104AC800020EB76F020EB86FACEF25F000018B51E4
:104AD800896F8A6B8A51000AD8B475EF25F0ACEF5C
:104AE80025F08951000AD8B40EEF25F0010AD8B490
:104AF80014EF25F0030AD8B41AEF25F0010AD8B448
:104B080020EF25F0070AD8B426EF25F0010AD8B41B
:104B180020EF25F0030AD8B420EF25F0010AD8B415
:104B280030EF25F00F0AD8B448EF25F0010AD8B4C1
:104B380020EF25F0030AD8B420EF25F0010AD8B4F5
:104B480060EF25F0070AD8B460EF25F0ACEF25F048
:104B58001200FC0E00018D6F030E8E6F000E8F6F1A
:104B6800000ED2EC38F08DC094F08EC095F00001A4
:104B780095BFC3EF25F0C1EF25F0C9EF25F0000E72
:104B8800BE6F000EBD6FE4EF25F094C0BEF0FD0EC1
:104B98008D6F030E8E6F000E8F6F000ED2EC38F003
:104BA8008DC094F08EC095F0000195BFE0EF25F020
:104BB800DEEF25F0E2EF25F0C3EF25F094C0BDF05D
:104BC800FB0E8D6F030E8E6F000E8F6F000ED2ECF2
:104BD80038F08DC094F08EC095F0000195BFF9EFC4
:104BE80025F0F7EF25F0FCEF25F0CB69FEEF25F077
:104BF80094C0CBF0F90E8D6F030E8E6F000E8F6F81
:104C0800000ED2EC38F08DC094F08EC095F0000103
:104C180095BF13EF26F011EF26F017EF26F0040EDC
:104C2800CE6F19EF26F094C0CEF0EFEC3DF0E2EC39
:104C380037F089C027F08AC028F08BC029F08CC0D3
:104C48002AF0000E0001936F9351020DF3503A0FB2
:104C5800D96EDA6ADE6ADD6A932B050E936537EF43
:104C680026F039EF26F028EF26F0000EC76F000E69
:104C78000101606F000E616F000E626F000E636FBE
:104C8800000E5C6F000E5D6F000E5E6F000E5F6FB2
:104C9800120000019F6F00019F51060DF3CF9AF09B
:104CA800F4CF9BF0000E9A259C6F010E9B219D6FFF
:104CB8009CC093F09DC094F0956B000E966F000E0B
:104CC800EAEC3AF000019F51060DF3CF9AF0F4CFC9
:104CD8009BF0010E9A259C6F010E9B219D6F9CC035
:104CE80093F09DC094F0956B000E966F000EEAEC61
:104CF8003AF000019F51060DF3CF9AF0F4CF9BF0E4
:104D0800020E9A259C6F010E9B219D6F9CC093F00B
:104D18009DC094F0956B000E966F000EEAEC3AF089
:104D280000019F51060DF3CF9AF0F4CF9BF0030ECC
:104D38009A259C6F010E9B219D6F9CC093F09DC08E
:104D480094F0956B000E966F000EEAEC3AF00001B5
:104D58009F51060DF3CF9AF0F4CF9BF0040E9A25DD
:104D68009C6F010E9B219D6F9CC093F09DC094F099
:104D7800956B000E966F000EEAEC3AF0000E0001FB
:104D88009E6F9F51060DF3CF9AF0F4CF9BF09E5182
:104D98009A27000E9B23050E9A259C6F010E9B21D6
:104DA8009D6F9CC093F09DC094F0956B000E966F1C
:104DB800000EEAEC3AF000019E2B9E51D8B4E7EFC2
:104DC80026F0E9EF26F0C5EF26F05EEC30F0000E95
:104DD800120000018E6F2EEF27F0140E7EEF27F0E1
:104DE800A50E7EEF27F0610E7EEF27F0FC0E7EEF1A
:104DF80027F0010E7EEF27F0000E7EEF27F074EC0F
:104E080036F07EEF27F00F0E7EEF27F0030ECCEC86
:104E180034F00009D8B413EF27F015EF27F000EFAE
:104E280027F0FDEF26F0080E7EEF27F0FE0EF66E57
:104E3800FF0EF76E3F0EF86E0800F5507EEF27F074
:104E4800FF0EF66EFF0EF76E3F0EF86E0800F55077
:104E58007EEF27F000018E51000AD8B4F1EF26F05A
:104E6800010AD8B4F4EF26F0030AD8B4F7EF26F015
:104E7800010AD8B4FAEF26F0070AD8B4FDEF26F0F5
:104E8800010AD8B4FDEF26F0030AD8B400EF27F0E2
:104E9800010AD8B4FDEF26F00F0AD8B403EF27F0C3
:104EA800010AD8B407EF27F0030AD8B40AEF27F0AD
:104EB800010AD8B400EF27F0070AD8B417EF27F093
:104EC800010AD8B400EF27F0030AD8B400EF27F09E
:104ED8001F0AD8B41AEF27F0030AD8B424EF27F032
:104EE800010AD8B4FDEF26F0070AD8B4FDEF26F082
:104EF80000EF27F012000001B051020D910EF324CB
:104F0800F66EFF0EF420F76EF86A000EF82209001C
:104F1800F5CFE3F10900F5CFE4F1100E0101E32725
:104F2800000EE423E3C1F6FFE4C1F7FFF86A0900C5
:104F3800F5500900F510D8A4A4EF27F0A6EF27F044
:104F4800A9EF27F0000E03EF28F00001B051020D81
:104F5800910EF324F66EFF0EF420F76EF86A000E39
:104F6800F8220900F5CFE3F10900F5CFE4F1100EBE
:104F78000101E327000EE423E3C1F6FFE4C1F7FFD4
:104F8800F86A0900F5CFE5F10900F5CFE6F102D896
:104F9800D9EF27F00500FA6EE551FD6EE651FE6E79
:104FA800FF6AFA500001B129120089C0B2F08AC024
:104FB800B3F00001B251B311D8A4E5EF27F0E7EF41
:104FC80027F0E9EF27F0A6EF27F0BEC0A8F0BDC094
:104FD800A9F0B029AA6FB129AB6F20EE01F0B25148
:104FE800D926B351DA22DF50AC6FB2C0D9FFB3C0B3
:104FF800DAFFDF50AD6FC70E0BEC3FF0020E120068
:10500800EEC1D9FFEFC1DAFF050EDF600EEF28F021
:1050180010EF28F013EF28F0000E86EF28F00101BA
:1050280020EE03F0EE51D926EF51DA22DF50F06F6F
:1050380020EE02F0EE51D926EF51DA22DF50F16F5F
:10504800F05100019F6FF1C1A0F0010120EE05F0C1
:10505800EE51D926EF51DA22DF50F36F20EE04F03B
:10506800EE51D926EF51DA22DF50F46FF3510001E7
:10507800A16FF4C1A2F048EC39F00101F76FF729EC
:10508800D8A449EF28F04BEF28F04FEF28F010EFA5
:1050980028F072EF28F020EE01F0EE51D926EF51FA
:1050A800DA22DF50F06FF16BF151000AD8B45FEFEC
:1050B80028F010EF28F0F051900AD8B44DEF28F0FE
:1050C800010AD8B472EF28F0090AD8B472EF28F0B0
:1050D800010AD8B472EF28F010EF28F0EEC189F079
:1050E800EFC18AF0F751CEEC3FF00101F66FF605FB
:1050F800D8A481EF28F083EF28F085EF28F0484AFC
:10510800492AF6511200000E0001A56FA551020DA3
:10511800910EF324F66EFF0EF420F76EF86A000E77
:10512800F8220900F5500900F510D8B49EEF28F0D0
:10513800A0EF28F0F1EF28F0A551020D910EF3240D
:10514800F66EFF0EF420F76EF86A000EF8220900DA
:10515800F5CFA1F00900F5CFA2F0020EA127000EAD
:10516800A223A1C0F6FFA2C0F7FFF86A0900F55014
:105178000900F510D8B4C3EF28F0C5EF28F0F1EF17
:1051880028F0A551020D910EF324F66EFF0EF420BF
:10519800F76EF86A000EF8220900F5CFA1F00900B1
:1051A800F5CFA2F0020EA127000EA223A1C0F6FFA0
:1051B800A2C0F7FFF86A0900F5CFA3F00900F5CF00
:1051C800A4F002D8F1EF28F00500FA6EA351FD6EA5
:1051D800A451FE6EFF6AFA5012000001A52B040EBE
:1051E800A565F9EF28F0FBEF28F08AEF28F0FA0E12
:1051F800936F030E946F000E956F010E966F000E5D
:10520800EAEC3AF067EC40F01200C00E00018C1591
:105218008F6FFF0E8D15906FB9518F1909E1BA5133
:105228009019D8B41AEF29F01CEF29F03BEF29F0B8
:10523800B951BA11D8B423EF29F025EF29F032EF8C
:1052480029F0C6A32AEF29F02CEF29F030EF29F036
:10525800ECEC39F00001C6935EEC30F0C00E0001B2
:105268008C15B96FFF0E8D15BA6FF4EC3BF03F0E3D
:1052780000018C158F6F000E8D15906F000E8F2515
:10528800D96E010E9021DA6EDF50FF0A8E150009E3
:10529800D8A451EF29F055EF29F0916B912B57EFD6
:1052A80029F00001916BC631010B926F9151921355
:1052B8009237C6519219FD0B9219C66F3F0E8C1585
:1052C8008F6F000E8D15906F000E8F25D96E010E11
:1052D8009021DA6E8E51DE18D8B475EF29F077EF89
:1052E80029F086EF29F0C6813F0E8C158F6F000ECE
:1052F8008D15906F000E8F25D96E010E9021DA6EF4
:105308008EC0DFFF000E1200000E70EC3CF058EC6F
:1053180040F096EC3EF0050E0001C16F000E9D6F47
:105328009D51020D910EF324F66EFF0EF420F76ED8
:10533800F86A000EF8220900F5500900F510D8B4F3
:10534800A8EF29F0AAEF29F0FBEF29F09D51020DF3
:10535800910EF324F66EFF0EF420F76EF86A000E35
:10536800F8220900F5CF99F00900F5CF9AF0040E5C
:105378009927000E9A2399C0F6FF9AC0F7FFF86A9A
:105388000900F5500900F510D8B4CDEF29F0CFEF9A
:1053980029F0FBEF29F09D51020D910EF324F66ED2
:1053A800FF0EF420F76EF86A000EF8220900F5CF18
:1053B80099F00900F5CF9AF0040E9927000E9A2368
:1053C80099C0F6FF9AC0F7FFF86A0900F5CF9BF07D
:1053D8000900F5CF9CF002D8FBEF29F00500FA6E22
:1053E8009B51FD6E9C51FE6EFF6AFA50120000013F
:1053F8009D2B040E9D6503EF2AF005EF2AF094EF2C
:1054080029F01200000120EE02F06051D926615106
:10541800DA22DF50626F636B20EE04F06051D92608
:105428006151DA22DF50646FFF0E6425656F666B89
:10543800FF0E662320EE03F06051D9266151DA226F
:10544800DF50676F686B010E6727000E6823655190
:105458006715696F665168156A6F6251691907E1C6
:1054680063516A19D8A43BEF2AF03DEF2AF043EFC5
:105478002AF0000E606F000E616F82EF2AF020EEB6
:1054880003F06051D9266151DA22DF506B6F20EEAC
:1054980003F06051D9266151DA22DF2A20EE04F0A8
:1054A8006051D9266151DA2210EE03F06051E126ED
:1054B8006151E222DE50E65CD8A065EF2AF067EF82
:1054C8002AF06EEF2AF020EE03F06051D9266151E0
:1054D800DA22DF6A6B51090DF3CF62F0F4CF63F083
:1054E80060C0D9FF61C0DAFFDECF64F0DDCF65F0C0
:1054F80062516425606F63516521616F120020EE6F
:1055080002F00150D9260250DA22DF50036E046AF5
:1055180020EE04F00150D9260250DA22DF50056E41
:10552800FF0E0524066E076AFF0E072220EE03F021
:105538000150D9260250DA22DF50086E096A010E9E
:105548000826000E0922065008140A6E075009148E
:105558000B6E03500A1807E104500B18D8A4B7EFD4
:105568002AF0B9EF2AF0BFEF2AF0000E016E000E04
:10557800026EFEEF2AF020EE03F00150D926025009
:10558800DA22DF500C6E20EE03F00150D9260250CB
:10559800DA22DF2A20EE04F00150D9260250DA225E
:1055A80010EE03F00150E1260250E222DE50E65CE4
:1055B800D8A0E1EF2AF0E3EF2AF0EAEF2AF020EE94
:1055C80003F00150D9260250DA22DF6A0C50090D87
:1055D800F3CF03F0F4CF04F001C0D9FF02C0DAFF23
:1055E800DECF05F0DDCF06F003500524016E045030
:1055F8000620026E1200000E0001796F7951020D2B
:10560800910EF324F66EFF0EF420F76EF86A000E82
:10561800F8220900F5500900F510D8B416EF2BF060
:1056280018EF2BF069EF2BF07951020D910EF3244E
:10563800F66EFF0EF420F76EF86A000EF8220900E5
:10564800F5CF75F00900F5CF76F00C0E7527000E32
:10565800762375C0F6FF76C0F7FFF86A0900F550A3
:105668000900F510D8B43BEF2BF03DEF2BF069EFB4
:105678002BF07951020D910EF324F66EFF0EF420F3
:10568800F76EF86A000EF8220900F5CF75F00900E8
:10569800F5CF76F00C0E7527000E762375C0F6FF51
:1056A80076C0F7FFF86A0900F5CF77F00900F5CF63
:1056B80078F002D869EF2BF00500FA6E7751FD6E8D
:1056C8007851FE6EFF6AFA5012000001792B040E21
:1056D800796571EF2BF073EF2BF002EF2BF069EC8B
:1056E80040F012004A80D8CF7AF0E8CF7BF0E0CFC4
:1056F8007CF0FACF7DF0FBCF7EF0E1CF7FF0E2CFF8
:1057080080F0D9CF81F0DACF82F0F3CF83F0F4CFF5
:1057180084F0F6CF85F0F7CF86F0F8CF87F0F5CF95
:1057280088F0FFEC2AF088C0F5FF87C0F8FF86C034
:10573800F7FF85C0F6FF84C0F4FF83C0F3FF82C083
:10574800DAFF81C0D9FF80C0E2FF7FC0E1FF7EC0E1
:10575800FBFF7DC0FAFF7CC0E0FF7BC0E8FF7AC09A
:10576800D8FF4A9010004A82FACF1BF0FBCF1CF0FA
:10577800E1CF1DF0E2CF1EF0D9CF1FF0DACF20F035
:10578800F3CF21F0F4CF22F0F6CF23F0F7CF24F0B7
:10579800F8CF25F0F5CF26F0ECEC2BF026C0F5FF7E
:1057A80025C0F8FF24C0F7FF23C0F6FF22C0F4FF8E
:1057B80021C0F3FF20C0DAFF1FC0D9FF1EC0E2FFDF
:1057C8001DC0E1FF1CC0FBFF1BC0FAFF4A9211007D
:1057D800000E1A6E1A50020D910EF324F66EFF0E8B
:1057E800F420F76EF86A000EF8220900F550090057
:1057F800F510D8B402EF2CF004EF2CF055EF2CF094
:105808001A50020D910EF324F66EFF0EF420F76E77
:10581800F86A000EF8220900F5CF16F00900F5CF56
:1058280017F00A0E1626000E172216C0F6FF17C02C
:10583800F7FFF86A0900F5500900F510D8B427EF0A
:105848002CF029EF2CF055EF2CF01A50020D910E88
:10585800F324F66EFF0EF420F76EF86A000EF822B5
:105868000900F5CF16F00900F5CF17F00A0E162635
:10587800000E172216C0F6FF17C0F7FFF86A0900D6
:10588800F5CF18F00900F5CF19F002D855EF2CF034
:105898000500FA6E1850FD6E1950FE6EFF6AFA5038
:1058A80012001A2A040E1A645CEF2CF05EEF2CF03A
:1058B800EEEF2BF06AEC40F01200EEC1D9FFEFC119
:1058C800DAFF030EDF606BEF2CF06DEF2CF070EF5A
:1058D8002CF0000ED1EF2CF0010120EE02F0EE5179
:1058E800D926EF51DA22DE500001BE19D8B47FEF75
:1058F8002CF081EF2CF083EF2CF06DEF2CF00101F0
:1059080020EE03F0EE51D926EF51DA220001BD5105
:10591800DE18D8B492EF2CF094EF2CF0B5EF2CF001
:105928006DEF2CF0010ED1EF2CF0EEC1D9FFEFC1D5
:10593800DAFF040EDF60A3EF2CF0A5EF2CF096EF52
:105948002CF0BEC0A8F0BDC0A9F0710E0001AA6F6E
:10595800010EAB6F010EAC6FAF0E67EC3FF096EF28
:105968002CF0010120EE01F0EE51D926EF51DA2298
:10597800DF50F06FF16BF151000AD8B4C6EF2CF08C
:105988006DEF2CF0F0515D0AD8B496EF2CF0280A90
:10599800D8B499EF2CF06DEF2CF012000101EC0750
:1059A800EC51D8B4DAEF2CF0DCEF2CF0F6EF2CF059
:1059B800BEC0A8F0BDC0A9F0060E0001AA6F6F0E08
:1059C80039EC3FF0BEC0A8F0BDC0A9F0D20E00016E
:1059D800AA6F040EAB6F060EAC6FAF0E67EC3FF00C
:1059E80041EF2DF0E8C1A6F0E9C1A7F0EAC1A8F09F
:1059F800EBC1A9F0ECC1AAF0EDC1ABF0000E0001BB
:105A0800AC6F71EC1AF00001B16FB151D8B40FEF5F
:105A18002DF011EF2DF02AEF2DF0BEC0A8F0BDC07B
:105A2800A9F0B1C0AAF06F0E39EC3FF0BEC0A8F0E3
:105A3800BDC0A9F0D20E0001AA6F040EAB6FB1C0B1
:105A4800ACF0AF0E67EC3FF041EF2DF0464A472A25
:105A5800BEC0A8F0BDC0A9F0590E50EC3FF0BEC0C2
:105A6800A8F0BDC0A9F0B20E0001AA6F040EAB6F7A
:105A7800000EAC6FAF0E67EC3FF0120000019E6F96
:105A880000019E51D8B44BEF2DF04DEF2DF053EFA0
:105A98002DF0000E946F080E936FB0EF2DF09E510D
:105AA800060DF3CF95F0F4CF96F0040E9525976F79
:105AB800010E9621986F97C08DF098C08EF08F6B6D
:105AC800000ED2EC38F000018D519D6F9DA16FEF53
:105AD8002DF071EF2DF077EF2DF0BDC093F0BEC023
:105AE80094F0B0EF2DF09E51060DF3CF95F0F4CF62
:105AF80096F0010E9525976F010E9621986F97C025
:105B08008DF098C08EF08F6B000ED2EC38F000014B
:105B18008D519B6F9C6B9E51060DF3CF95F0F4CF82
:105B280096F0000E9525976F010E9621986F97C0F5
:105B38008DF098C08EF08F6B000ED2EC38F000011B
:105B48008D51996F9A6B9951966F956B9B519511E1
:105B5800936F9C519611946F12000001A46FE2ECB0
:105B680037F089C027F08AC028F08BC029F08CC094
:105B78002AF0F2EF2DF0A0EC18F0E2EC37F0275005
:105B88000001895DA06F28508A59A16F29508B594F
:105B9800A26F2A508C59A36FA4518D6F8E6B8F6B97
:105BA800906B240E916FF40E926F000E936F000E9F
:105BB800946F81EC39F00001A0518D5DA1518E598F
:105BC800A2518F59A3519059D8B0EDEF2DF0EFEFB6
:105BD8002DF0F2EF2DF0000E14EF2EF080B4F7EF59
:105BE8002DF0F9EF2DF0BFEF2DF0E2EC37F0275054
:105BF8000001895D936F28508A59946F29508B59F9
:105C0800956F2A508C59966F240E976FF40E986FE3
:105C1800000E996F000E9A6F47EC33F00001935114
:105C280012000001A46FE2EC37F089C027F08AC0A7
:105C380028F08BC029F08CC02AF056EF2EF0A0EC8B
:105C480018F0E2EC37F027500001895DA06F28506A
:105C58008A59A16F29508B59A26F2A508C59A36F6A
:105C6800A4518D6F8E6B8F6B906B240E916FF40E19
:105C7800926F000E936F000E946F81EC39F0000163
:105C8800A0518D5DA1518E59A2518F59A3519059A0
:105C9800D8B051EF2EF053EF2EF056EF2EF0000E45
:105CA80078EF2EF080A45BEF2EF05DEF2EF023EF5F
:105CB8002EF0E2EC37F027500001895D936F2850F1
:105CC8008A59946F29508B59956F2A508C59966F21
:105CD800240E976FF40E986F000E996F000E9A6F4E
:105CE80047EC33F00001935112000001C329D8A4F6
:105CF80080EF2EF082EF2EF084EF2EF0DBEF2EF007
:105D080033503410D8A48BEF2EF08DEF2EF090EF97
:105D18002EF0C369DBEF2EF002D8A1EF2EF00500BC
:105D2800FA6E3350FD6E3450FE6EFF6AFA50C5C0ED
:105D3800B0F0C2C0B1F0C35112000001B46FC1EF9E
:105D48002EF00001C451D8B4ACEF2EF0AEEF2EF017
:105D58008DEF2EF0C52B040EC565B5EF2EF0B7EF0D
:105D68002EF0B9EF2EF08DEF2EF0000EC26FDBEFA4
:105D78002EF00001C22BDBEF2EF0B4510101F06FC1
:105D8800F16BF151000AD8B4CCEF2EF0DBEF2EF016
:105D9800F051000AD8B4A5EF2EF0010AD8B4DBEF11
:105DA8002EF0030AD8B4BDEF2EF0DBEF2EF0120070
:105DB800000E00018E6F8CBFE6EF2EF0E4EF2EF0A0
:105DC800ECEF2EF08B6D8C1FD8B08C2B010E8E6FE4
:105DD8008ABFF3EF2EF0F1EF2EF0F9EF2EF0896D78
:105DE8008A1FD8B08A2B010E8E1B000E906F000EF2
:105DF8008F6F8B518C11D8B404EF2FF006EF2FF072
:105E08002EEF2FF0010E8D6F0EEF2FF0D8908B37FD
:105E18008C378D2B8CAF13EF2FF015EF2FF00AEF87
:105E28002FF0D8908F3790378B51895D8C518A59D4
:105E3800D8A021EF2FF023EF2FF028EF2FF08B5170
:105E4800895F8C518A5B8F81D8908C338B338D2FEF
:105E580015EF2FF08E51D8B434EF2FF036EF2FF026
:105E68003AEF2FF08F6D901FD8B0902B8FC089F02C
:105E780090C08AF01200000120EE02F08951D92664
:105E88008A51DA2210EE03F08951E1268A51E22282
:105E9800DE50E618D8A453EF2FF055EF2FF05BEF44
:105EA8002FF0000E896F000E8A6F9EEF2FF020EE04
:105EB80002F08951D9268A51DA22DF508B6F8B5133
:105EC800090DF3CF8CF0F4CF8DF089C0D9FF8AC0CB
:105ED800DAFFDECF8EF0DDCF8FF08C518E25906FFC
:105EE8008D518F21916F20EE02F08951D9268A5168
:105EF800DA22DF2A20EE04F08951D9268A51DA22E3
:105F080010EE02F08951E1268A51E222DE50E65C69
:105F1800D8A091EF2FF093EF2FF09AEF2FF020EE0B
:105F280002F08951D9268A51DA22DF6A90C089F0B5
:105F380091C08AF01200000120EE02F06051D926CB
:105F48006151DA2210EE03F06051E1266151E2223C
:105F5800DE50E618D8A4B3EF2FF0B5EF2FF0BBEF63
:105F68002FF0000E606F000E616FFEEF2FF020EE35
:105F780002F06051D9266151DA22DF50626F625116
:105F8800090DF3CF63F0F4CF64F060C0D9FF61C0AE
:105F9800DAFFDECF65F0DDCF66F063516525676F08
:105FA80064516621686F20EE02F06051D926615174
:105FB800DA22DF2A20EE04F06051D9266151DA2274
:105FC80010EE02F06051E1266151E222DE50E65CFB
:105FD800D8A0F1EF2FF0F3EF2FF0FAEF2FF020EE2B
:105FE80002F06051D9266151DA22DF6A67C060F099
:105FF80068C061F0120000018B6F39EF30F0600E5D
:10600800896F0F0E8A6F5DEF30F0300E896F0F0EBB
:106018008A6F5DEF30F0800E896F0E0E8A6F5DEF2C
:1060280030F0900E896F0E0E8A6F5DEF30F0A00E83
:10603800896F0E0E8A6F5DEF30F0B00E896F0E0E0D
:106048008A6F5DEF30F0C00E896F0E0E8A6F5DEFBC
:1060580030F0D00E896F0E0E8A6F5DEF30F0000EB3
:10606800896F000E8A6F5DEF30F000018B51000AD6
:10607800D8B403EF30F0010AD8B409EF30F0030ABE
:10608800D8B40FEF30F0010AD8B415EF30F0070A92
:10609800D8B41BEF30F0010AD8B421EF30F0030A6E
:1060A800D8B427EF30F0010AD8B42DEF30F033EF31
:1060B80030F01200B9C0F6FFBAC0F7FFF86A000E58
:1060C800F86E0001C6B16BEF30F06DEF30F06FEF96
:1060D80030F0BCEF30F064EC40F00009D8B477EF52
:1060E80030F079EF30F06FEF30F00001C6A37FEFAA
:1060F80030F081EF30F083EF30F0ECEC39F0000E47
:10610800F2BE010E00018A6FF29EF29C000E8B6FA8
:10611800000E8B25D96EDA6A010EDA22DF50F56E91
:106128000D0000018B2B3F0E8B659DEF30F09FEF2C
:1061380030F08CEF30F0B9C0F6FFBAC0F7FFF86A5C
:10614800000EF86E7F8E7F9C7F987F84550E7E6E42
:10615800AA0E7E6E7F827F948A51D8B4B6EF30F053
:10616800B8EF30F0BAEF30F0F28EF28C000EC66F56
:1061780012000001626FF7EF30F0600E606F0F0ED3
:10618800616F1BEF31F0300E606F0F0E616F1BEF08
:1061980031F0800E606F0E0E616F1BEF31F0900EC4
:1061A800606F0E0E616F1BEF31F0A00E606F0E0E68
:1061B800616F1BEF31F0B00E606F0E0E616F1BEF59
:1061C80031F0C00E606F0E0E616F1BEF31F0D00E14
:1061D800606F0E0E616F1BEF31F0000E606F000EE6
:1061E800616F1BEF31F000016251000AD8B4C1EFB2
:1061F80030F0010AD8B4C7EF30F0030AD8B4CDEFB5
:1062080030F0010AD8B4D3EF30F0070AD8B4D9EF88
:1062180030F0010AD8B4DFEF30F0030AD8B4E5EF64
:1062280030F0010AD8B4EBEF30F0F1EF30F01200A3
:1062380020EE02F00150D9260250DA2210EE03F0C7
:106248000150E1260250E222DE50E618D8A42FEFD2
:1062580031F031EF31F037EF31F0000E016E000E02
:10626800026E7AEF31F020EE02F00150D92602508A
:10627800DA22DF50036E0350090DF3CF04F0F4CF98
:1062880005F001C0D9FF02C0DAFFDECF06F0DDCF8E
:1062980007F004500624086E05500720096E20EE0A
:1062A80002F00150D9260250DA22DF2A20EE04F04B
:1062B8000150D9260250DA2210EE02F00150E126F0
:1062C8000250E222DE50E65CD8A06DEF31F06FEFAD
:1062D80031F076EF31F020EE02F00150D92602506D
:1062E800DA22DF6A08C001F009C002F012000001DA
:1062F800D151D8B482EF31F084EF31F0D3EF31F0DF
:10630800E2EC37F0010164510001895D996F0101E8
