:040000000EEF00F00F
:040008006AEF23F088
:0800180029EF23F089EF31F01C
:10084800424C494E4B2020000001C851D8A42FEF3C
:1008580004F031EF04F084EF05F0F1EF04F0D7C1B4
:10086800D9FFD8C1DAFF030EDF603DEF04F03FEF98
:1008780004F04EEF04F0BAC0CFF1B9C0D0F1710E58
:10088800D16F010ED26F010ED36FAF0E03EC33F0B0
:1008980086EF04F020EE02F0D751D926D851DA229B
:1008A800DF500001BA6F010120EE03F0D751D926BD
:1008B800D851DA22DF500001B96FFC0E936F030E96
:1008C800946F000E956FBAC096F0000E7FEC2FF073
:1008D800FD0E0001936F030E946F000E956FB9C063
:1008E80096F0000E7FEC2FF0010E0001C86FBAC021
:1008F800CFF1B9C0D0F1520EEBEC32F0414A422AA6
:10090800CBEC31F0010E6DEF0AF0A50ECF6F610E42
:10091800D06FFC0ED16F000ED26F000ED36F000E99
:10092800D46F010ED56FEF0E8BEC32F086EF04F02A
:10093800480EF66E080EF76E000EF86E0800F5CF3A
:10094800CFF1490EF66E080EF76E000EF86E08002D
:10095800F5CFD0F14A0EF66E080EF76E000EF86E5F
:100968000800F5CFD1F14B0EF66E080EF76E000EAB
:10097800F86E0800F5CFD2F14C0EF66E080EF76E41
:10098800000EF86E0800F5CFD3F14D0EF66E080E86
:10099800F76E000EF86E0800F5CFD4F14E0EF66E25
:1009A800080EF76E000EF86E0800F5CFD5F1E20ECE
:1009B8008BEC32F086EF04F0000ECF6F000ED06F94
:1009C800A50ED16FFC0ED26F2CEC2CF00101D36F69
:1009D800B60E03EC33F086EF04F0010120EE01F0CF
:1009E800D751D926D851DA22DF50D96FDA6BDA51CC
:1009F800000AD8B402EF05F015EF05F0D9510D0A39
:100A0800D8B4E0EF04F01D0AD8B489EF04F0010A65
:100A1800D8B49CEF04F0530AD8B433EF04F015EFC0
:100A280005F0000E6DEF0AF0BAC0CFF1B9C0D0F1F1
:100A3800A50ED16FFC0ED26F2CEC2CF00101D36FF8
:100A4800B60E03EC33F086EF04F0D7C1D9FFD8C156
:100A5800DAFF040EDF6033EF05F035EF05F044EF01
:100A680005F0BAC0CFF1B9C0D0F1760ED16F010E42
:100A7800D26F010ED36FAF0E03EC33F086EF04F0A4
:100A880020EE02F0D751D926D851DA22DF50D8A467
:100A980050EF05F052EF05F0A0EF05F020EE03F05F
:100AA800D751D926D851DA22DF50D8A45EEF05F005
:100AB80060EF05F0A0EF05F020EE04F0D751D9263D
:100AC800D851DA22DF50FA6F0C0EFA19D8A46FEF5A
:100AD80005F071EF05F075EF05F00001C68586EFAA
:100AE80004F00D0EFA19D8A47CEF05F07EEF05F09E
:100AF80082EF05F00001C69586EF04F0A0EF05F03F
:100B0800010120EE01F0D751D926D851DA22DF5061
:100B1800D96FDA6BDA51000AD8B495EF05F0A0EF77
:100B280005F0D9510D0AD8B418EF05F07B0AD8B4EE
:100B380029EF05F0A0EF05F0D7C1D9FFD8C1DAFF3A
:100B4800030EDF60AAEF05F0ACEF05F0AEEF05F09D
:100B580015EF05F020EE02F0D751D926D851DA2248
:100B6800DE500001BA19D8B4BCEF05F0BEEF05F0AD
:100B7800C0EF05F015EF05F0010120EE03F0D751A5
:100B8800D926D851DA220001B951DE18D8B4CFEFEE
:100B980005F0D1EF05F041EF0AF015EF05F0D7C1E8
:100BA800D9FFD8C1DAFF040EDF60DDEF05F0DFEF13
:100BB80005F0EEEF05F0BAC0CFF1B9C0D0F1730E71
:100BC800D16F010ED26F010ED36FAF0E03EC33F06D
:100BD80086EF04F020EE04F0D751D926D851DA2256
:100BE800140EDF64FAEF05F0FCEF05F015EF06F0E0
:100BF800BAC0CFF1B9C0D0F1090ED16F6F0ED3ECE6
:100C080032F0BAC0CFF1B9C0D0F1730E0101D16F83
:100C1800010ED26F090ED36FAF0E03EC33F086EFDF
:100C280004F020EE04F0D751D926D851DA22DF504B
:100C380020EC20F00101F76FBAC0CFF1B9C0D0F1B4
:100C480020EE04F0D751D926D851DA22DF50D16FDF
:100C5800F7C1D2F19B0EBBEC32F0010120EE04F09B
:100C6800D751D926D851DA22DF50D8A43EEF06F062
:100C780040EF06F086EF04F0010E55EC2BF0000172
:100C88008D6F0E0E8E6F640E8F6F070E4EEC2FF069
:100C980086EF04F0B9C0B7F0BAC0B8F0B2EC20F0F3
:100CA8000001B751B811D8B45CEF06F05EEF06F05A
:100CB80086EF04F0B8C0CFF1B7C0D0F1510EEBEC1D
:100CC80032F086EF04F0D7C1D9FFD8C1DAFF050E9C
:100CD800DF6071EF06F073EF06F082EF06F0BAC03E
:100CE800CFF1B9C0D0F1870ED16F010ED26F010ECE
:100CF800D36FAF0E03EC33F086EF04F020EE04F070
:100D0800D751D926D851DA22DF50D8A48EEF06F071
:100D180090EF06F09CEF06F0000E00018D6F680E54
:100D28008E6F420E8F6F040E4EEC2FF086EF04F09C
:100D380020EE04F0D751D926D851DA22030EDF6409
:100D4800A8EF06F0AAEF06F0B9EF06F0BAC0CFF1A7
:100D5800B9C0D0F1870ED16F010ED26FFC0ED36FE0
:100D6800AF0E03EC33F086EF04F020EE04F0D75119
:100D7800D926D851DA22DF50D96FDA6BD890D93713
:100D8800DA37FE0ED925DB6FFF0EDA21DC6FB90EDC
:100D9800DB25F66EFF0EDC21F76EF86A000EF822EE
:100DA8000900F5CFDDF10900F5CFDEF1100EDD27E2
:100DB800000EDE23DDC1F6FFDEC1F7FFF86A090089
:100DC800F5500900F510D8A4ECEF06F0EEEF06F0A8
:100DD800FBEF06F0BAC0CFF1B9C0D0F1870ED16FE2
:100DE800010ED26FFD0ED36FAF0E03EC33F001018D
:100DF80020EE05F0D751D926D851DA22DF50D8A4F1
:100E080008EF07F00AEF07F01CEF07F020EE04F0F8
:100E1800D751D926D851DA22DF5000018D6F680EDC
:100E28008E6F420E8F6F040E4EEC2FF086EF04F09B
:100E380020EE04F0D751D926D851DA22DF50D96FE5
:100E4800DA6BD890D937DA37FE0ED925DB6FFF0E6B
:100E5800DA21DC6FB90EDB25F66EFF0EDC21F76EAA
:100E6800F86A000EF8220900F5CFDDF10900F5CF88
:100E7800DEF1100EDD27000EDE23DDC1F6FFDEC138
:100E8800F7FFF86A0900F5CFDFF10900F5CFE0F1C7
:100E980002D85FEF07F00500FA6EDF51FD6EE051F2
:100EA800FE6EFF6AFA5020EE05F0D751D926D851C8
:100EB800DA22DF50120089C0F8F18AC0F9F1010185
:100EC800F851F911D8A46BEF07F06DEF07F07CEF3C
:100ED80007F0BAC0CFF1B9C0D0F1870ED16F010EBB
:100EE800D26FFD0ED36FAF0E03EC33F086EF04F034
:100EF800BAC0CFF1B9C0D0F120EE04F0D751D9264D
:100F0800D851DA22DF50D16F20EE05F0D751D9261B
:100F1800D851DA22DF50D26F20EE01F0F851D926ED
:100F2800F951DA22DF50D36FF8C1D9FFF9C1DAFFDE
:100F3800DF50D46FC70EA3EC32F086EF04F0D7C1B0
:100F4800D9FFD8C1DAFF040EDF60ADEF07F0AFEFCD
:100F580007F0BEEF07F0BAC0CFF1B9C0D0F1780EF4
:100F6800D16F010ED26F010ED36FAF0E03EC33F0C9
:100F780086EF04F020EE04F0D751D926D851DA22B2
:100F8800DF50D8A4CAEF07F0CCEF07F0E5EF07F081
:100F9800BAC0CFF1B9C0D0F1000ED16F000ED26F38
:100FA800030ED36FAC0E03EC33F0010E00018D6F0E
:100FB800540E8E6F540E8F6F030E4EEC2FF086EF8B
:100FC80004F020EE04F0D751D926D851DA22030EC6
:100FD800DF64F1EF07F0F3EF07F002EF08F0BAC0B3
:100FE800CFF1B9C0D0F1780ED16F010ED26FFC0EDF
:100FF800D36FAF0E03EC33F086EF04F020EE04F06D
:10100800D751D926D851DA22DF50D96FDA6BD89068
:10101800D937DA37FE0ED925DB6FFF0EDA21DC6F00
:10102800B90EDB25F66EFF0EDC21F76EF86A000EAE
:10103800F8220900F5CFDDF10900F5CFDEF10E0E3B
:10104800DD27000EDE23DDC1F6FFDEC1F7FFF86AFB
:101058000900F5500900F510D8A435EF08F037EF6E
:1010680008F077EF08F0BAC0CFF1B9C0D0F120EEA0
:1010780004F0D751D926D851DA22DF50D16F20EEAB
:1010880004F0D751D926D851DA22DF50D96FDA6B5C
:10109800D890D937DA37FE0ED925DB6FFF0EDA2163
:1010A800DC6FB90EDB25F66EFF0EDC21F76EF86AF1
:1010B800000EF8220900F5CFDDF10900F5CFDEF1C9
:1010C800DDC1F6FFDEC1F7FFF86A0800F5CFD2F1FF
:1010D800000ED36F000ED46F000ED56FE70E8BECA9
:1010E80032F086EF04F0BAC0CFF1B9C0D0F120EEEB
:1010F80004F0D751D926D851DA22DF50D16F20EE2B
:1011080004F0D751D926D851DA22DF50D96FDA6BDB
:10111800D890D937DA37FE0ED925DB6FFF0EDA21E2
:10112800DC6FB90EDB25F66EFF0EDC21F76EF86A70
:10113800000EF8220900F5CFDDF10900F5CFDEF148
:10114800DDC1F6FFDEC1F7FFF86A0800F5CFD2F17E
:1011580020EE04F0D751D926D851DA22DF50DF6FBC
:10116800E06BD890DF37E037FE0EDF25E16FFF0E2A
:10117800E021E26FB90EE125F66EFF0EE221F76E6F
:10118800F86A000EF8220900F5CFE3F10900F5CF5F
:10119800E4F10E0EE327000EE423E3C1F6FFE4C1F9
:1011A800F7FFF86A0900F5CFE5F10900F5CFE6F198
:1011B80002D8E9EF08F00500FA6EE551FD6EE65138
:1011C800FE6EFF6AFA50010E12000101D36F20EE85
:1011D80004F0D751D926D851DA22DF50E76FE86BEF
:1011E800D890E737E837FE0EE725E96FFF0EE821CC
:1011F800EA6FB90EE925F66EFF0EEA21F76EF86A76
:10120800000EF8220900F5CFEBF10900F5CFECF15B
:101218000E0EEB27000EEC23EBC1F6FFECC1F7FF37
:10122800F86A0900F5CFEDF10900F5CFEEF102D823
:1012380028EF09F00500FA6EED51FD6EEE51FE6ED5
:10124800FF6AFA50020E12000101D46F20EE04F07A
:10125800D751D926D851DA22DF50EF6FF06BD890EA
:10126800EF37F037FE0EEF25F16FFF0EF021F26F2A
:10127800B90EF125F66EFF0EF221F76EF86A000E30
:10128800F8220900F5CFF3F10900F5CFF4F10E0EBD
:10129800F327000EF423F3C1F6FFF4C1F7FFF86A51
:1012A8000900F5CFF5F10900F5CFF6F102D867EF9F
:1012B80009F00500FA6EF551FD6EF651FE6EFF6AF3
:1012C800FA50030E12000101D56FE70E8BEC32F0D5
:1012D80086EF04F0D7C1D9FFD8C1DAFF040EDF606A
:1012E80078EF09F07AEF09F089EF09F0BAC0CFF189
:1012F800B9C0D0F1760ED16F010ED26F010ED36F47
:10130800AF0E03EC33F086EF04F020EE04F0D75173
:10131800D926D851DA22DF50FA6FB9C0B7F0BAC06F
:10132800B8F0FBEF09F00101FA51D8A49EEF09F0DB
:10133800A0EF09F007EF0AF0000E0001C86FC469BA
:10134800B8C0CFF1B7C0D0F1760E0101D16F010E50
:10135800D26F000ED36FAF0E03EC33F0BAC0CFF1EB
:10136800B9C0D0F1500EEBEC32F084EF04F001017B
:10137800FA51D8A4C2EF09F0C4EF09F007EF0AF058
:10138800BAC0CFF1B9C0D0F1760ED16F010ED26FCD
:10139800000ED36FAF0E03EC33F0BAC0CFF1B9C073
:1013A800D0F1500EEBEC32F0000E0001BA6FBAC06B
:1013B800B9F0FC0E936F030E946F000E956FBAC0D0
:1013C80096F0000E7FEC2FF0FD0E0001936F030ED8
:1013D800946F000E956FB9C096F0000E7FEC2FF059
:1013E800000E0001C86F010EC46F84EF04F0000105
:1013F800C851000AD8B407EF0AF0FF0AD8B497EF2B
:1014080009F0BBEF09F00C0E0101FA19D8A40FEF8F
:101418000AF011EF0AF023EF0AF00001C685BAC0FE
:10142800CFF1B9C0D0F1760E0101D16F010ED26FA4
:10143800000ED36FAF0E03EC33F086EF04F00D0E01
:10144800FA19D8A42AEF0AF02CEF0AF015EF05F0E4
:101458000001C695BAC0CFF1B9C0D0F1760E01012E
:10146800D16F010ED26F000ED36FAF0E03EC33F0C5
:1014780086EF04F0FF0086EF04F0010120EE01F092
:10148800D751D926D851DA22DF50D96FDA6BDA5121
:10149800000AD8B452EF0AF015EF05F0D9514F0AF7
:1014A800D8B44EEF06F0110AD8B43EEF0AF02D0A70
:1014B800D8B4D3EF05F0050AD8B46EEF09F00E0AD8
:1014C800D8B4A3EF07F0FF0AD8B467EF06F015EF1A
:1014D80005F0120000018C6F100E00018C6177EF8F
:1014E8000AF079EF0AF0B8EF0CF069EF0BF08C51C5
:1014F800040D030EF326000EF422790EF324F66E83
:10150800FF0EF420F76EF86A000EF822080E0800A5
:10151800F56091EF0AF093EF0AF0B6EF0AF08C51FC
:10152800040D030EF326000EF422790EF324F66E52
:10153800FF0EF420F76EF86A000EF8220800F5CFC7
:101548008AF0010E8B6F8A2BACEF0AF0D8908B379C
:101558008A2FAAEF0AF000018B51FF0A0F015D17CD
:1015680098EF0CF08C51040D030EF326000EF422B4
:10157800790EF324F66EFF0EF420F76EF86A000E6B
:10158800F822100E0800F560CCEF0AF0CEEF0AF052
:1015980082EF0BF08C51040D030EF326000EF4229B
:1015A800790EF324F66EFF0EF420F76EF86A000E3B
:1015B800F8220800F5CF8AF0F80E8A27010E8B6F03
:1015C8008A2BE9EF0AF0D8908B378A2FE7EF0AF0D9
:1015D80000018B51FF0A0F015C1798EF0CF08C513A
:1015E800040D030EF326000EF422790EF324F66E92
:1015F800FF0EF420F76EF86A000EF822080E0800B5
:10160800F56009EF0BF00BEF0BF02DEF0BF08C51A1
:10161800040D030EF326000EF422790EF324F66E61
:10162800FF0EF420F76EF86A000EF8220800F5CFD6
:101638008AF0010E8B6F8A2B24EF0BF0D8908B3732
:101648008A2F22EF0BF000018B510F015D1398EFE9
:101658000CF08C51040D030EF326000EF422790EC3
:10166800F324F66EFF0EF420F76EF86A000EF822E7
:10167800100E0800F56043EF0BF045EF0BF082EF1A
:101688000BF08C51040D030EF326000EF422790E94
:10169800F324F66EFF0EF420F76EF86A000EF822B7
:1016A8000800F5CF8AF0F80E8A27010E8B6F8A2B77
:1016B80060EF0BF0D8908B378A2F5EEF0BF00001AC
:1016C8008B510F015C1398EF0CF089518A6F8B6B6B
:1016D8008B51000AD8B473EF0BF098EF0CF08A51D5
:1016E800000AD8B47BEF0AF0010AD8B47BEF0AF0FD
:1016F800030AD8B4F3EF0AF098EF0CF098EF0CF067
:101708008C51040D020EF326000EF422790EF324F8
:10171800F66EFF0EF420F76EF86A000EF822080045
:10172800F5CF8AF0010E8B6F8A2B9DEF0BF0D890C6
:101738008B378A2F9BEF0BF000018B51FF0A921613
:10174800B8EF0CF08C51040D020EF326000EF422B3
:10175800790EF324F66EFF0EF420F76EF86A000E89
:10176800F8220800F5CF8AF0010E8B6F8A2BBFEFA5
:101778000BF0D8908B378A2FBDEF0BF000018B51FF
:101788009212B8EF0CF089518A6F8B6B8B51000A5B
:10179800D8B4D1EF0BF0B8EF0CF08A51000AD8B4E6
:1017A80084EF0BF0010AD8B4A6EF0BF0030AD8B403
:1017B800B8EF0CF0B8EF0CF08C51040D020EF326C4
:1017C800000EF422790EF324F66EFF0EF420F76E65
:1017D800F86A000EF8220800F5CF8AF0010E8B6F28
:1017E8008A2BF9EF0BF0D8908B378A2FF7EF0BF095
:1017F80000018B51FF0A9316B8EF0CF08C51040DC1
:10180800020EF326000EF422790EF324F66EFF0E74
:10181800F420F76EF86A000EF8220800F5CF8AF077
:10182800010E8B6F8A2B1BEF0CF0D8908B378A2F09
:1018380019EF0CF000018B519312B8EF0CF089519D
:101848008A6F8B6B8B51000AD8B42DEF0CF0B8EF70
:101858000CF08A51000AD8B4E0EF0BF0010AD8B4B2
:1018680002EF0CF0030AD8B4B8EF0CF0B8EF0CF0A4
:101878008C51040D020EF326000EF422790EF32487
:10188800F66EFF0EF420F76EF86A000EF8220800D4
:10189800F5CF8AF0010E8B6F8A2B55EF0CF0D8909C
:1018A8008B378A2F53EF0CF000018B51FF0A9416E7
:1018B800B8EF0CF08C51040D020EF326000EF42242
:1018C800790EF324F66EFF0EF420F76EF86A000E18
:1018D800F8220800F5CF8AF0010E8B6F8A2B77EF7C
:1018E8000CF0D8908B378A2F75EF0CF000018B51D4
:1018F8009412B8EF0CF089518A6F8B6B8B51000AE8
:10190800D8B489EF0CF0B8EF0CF08A51000AD8B4BB
:101918003CEF0CF0010AD8B45EEF0CF0030AD8B41F
:10192800B8EF0CF0B8EF0CF000018C51040D010E6B
:10193800F326000EF422790EF324F66EFF0EF4203F
:10194800F76EF86A000EF8220800F550410AD8B47C
:10195800C7EF0BF0030AD8B423EF0CF0010AD8B490
:101968007FEF0CF0B8EF0CF01200E5EC2CF0010161
:1019780054510001895D0101FB6F555100018A59DD
:101988000101FC6F565100018B590101FD6F575140
:1019980000018C590101FE6F0001BD518D6F8E6BE6
:1019A8008F6B906B3E0E916F000E926F000E936FCF
:1019B800000E946F4BEC2EF00101FB5100018D5D80
:1019C8000101FC5100018E590101FD5100018F599F
:1019D8000101FE5100019059D8B0F5EF0CF0F7EF76
:1019E8000CF003EF0DF096EC26F0E5EC2CF089C036
:1019F80054F18AC055F18BC056F18CC057F1E5EC13
:101A08002CF0010150510001895D0101FB6F51511A
:101A180000018A590101FC6F525100018B590101E3
:101A2800FD6F535100018C590101FE6FFE51FD11EC
:101A38000BE1250EFB5DF40EFC59D8A026EF0DF046
:101A480028EF0DF034EF0DF057EC27F0E5EC2CF013
:101A580089C050F18AC051F18BC052F18CC053F14A
:101A6800000E0201016F0151020DB90EF324F66E4A
:101A7800FF0EF420F76EF86A000EF8220900F55000
:101A88000900F510D8B44BEF0DF04DEF0DF0A1EFB4
:101A98000DF00151020DB90EF324F66EFF0EF4207D
:101AA800F76EF86A000EF8220900F5CFFBF109007D
:101AB800F5CFFCF1080E0101FB27000EFC23FBC14A
:101AC800F6FFFCC1F7FFF86A0900F5500900F510A8
:101AD800D8B471EF0DF073EF0DF0A1EF0DF0020126
:101AE8000151020DB90EF324F66EFF0EF420F76EC5
:101AF800F86A000EF8220900F5CFFBF10900F5CFCE
:101B0800FCF1080E0101FB27000EFC23FBC1F6FFC8
:101B1800FCC1F7FFF86A0900F5CFFDF10900F5CF20
:101B2800FEF102D8A1EF0DF00500FA6EFD51FD6E31
:101B3800FE51FE6EFF6AFA5012000201012B020EDE
:101B48000165A9EF0DF0ABEF0DF037EF0DF099EC53
:101B580012F0000E0201006F0001BB51BC11D8B495
:101B6800B8EF0DF0BAEF0DF0B7EF0EF0020EBB258F
:101B78000101FB6F000E0001BC210101FC6FFBC1DC
:101B8800F6FFFCC1F7FFF86A0900F5500900F510E7
:101B9800D8B4D1EF0DF0D3EF0DF0B7EF0EF0020E81
:101BA8000001A26F020EA36F020EBB250101FB6F9D
:101BB800000E0001BC210101FC6FFBC1F6FFFCC156
:101BC800F7FFF86A0900F5CFFDF10900F5CFFEF13E
:101BD80002D8F8EF0DF00500FA6EFD51FD6EFE51CA
:101BE800FE6EFF6AFA5012000009D8B4FEEF0DF03D
:101BF80000EF0EF0B7EF0EF002010251D8B407EF74
:101C08000EF009EF0EF0B7EF0EF0070EDEEC1EF047
:101C1800020E0001896F020E8A6FBEEC33F00201DA
:101C2800006F0051D8A41BEF0EF01DEF0EF0B7EFB8
:101C38000EF0000E016F0151020DB90EF324F66E7D
:101C4800FF0EF420F76EF86A000EF8220900F5502E
:101C58000900F510D8B433EF0EF035EF0EF09AEF17
:101C68000EF00151020DB90EF324F66EFF0EF420AA
:101C7800F76EF86A000EF8220900F5CFFBF10900AB
:101C8800F5CFFCF1060E0101FB27000EFC23FBC17A
:101C9800F6FFFCC1F7FFF86A0900F5500900F510D6
:101CA800D8B459EF0EF05BEF0EF09AEF0EF0020E7B
:101CB800D76F020ED86F02010151020DB90EF3243D
:101CC800F66EFF0EF420F76EF86A000EF82209008F
:101CD800F5CFFBF10900F5CFFCF1060E0101FB275A
:101CE800000EFC23FBC1F6FFFCC1F7FFF86A0900F0
:101CF800F5CFFDF10900F5CFFEF102D88DEF0EF01A
:101D08000500FA6EFD51FD6EFE51FE6EFF6AFA5037
:101D18001200E806D8A493EF0EF095EF0EF09AEFB4
:101D28000EF0010E0201006FA4EF0EF00201012B6C
:101D3800020E0165A2EF0EF0A4EF0EF01FEF0EF0F9
:101D48000051D8A4AAEF0EF0ACEF0EF0B7EF0EF0EA
:101D5800020E0001896F020E8A6FC0EC33F0020197
:101D6800006FB7EF0EF002010051D8B4BEEF0EF0CD
:101D7800C0EF0EF0C3EF0EF0080EDEEC1EF01200FE
:101D88000001C805D8A4CBEF0EF0CDEF0EF01DEF83
:101D98000FF0E5EC2CF02B500001895D0101D56FA7
:101DA8002C5000018A590101D66F2D5000018B5922
:101DB8000101D76F2E5000018C590101D86FD851FD
:101DC8000DE1B50ED55DC40ED659040ED759D8A06D
:101DD800F0EF0EF0F2EF0EF01DEF0FF00001C6A5C8
:101DE800F8EF0EF0FAEF0EF00AEF0FF0BAC0CFF1ED
:101DF800B9C0D0F1C3C0D1F139C0D2F1000E010190
:101E0800D36FAB0E03EC33F00001C32BE5EC2CF0E1
:101E180089C02BF08AC02CF08BC02DF08CC02EF01E
:101E28003950D8B41AEF0FF01CEF0FF01DEF0FF078
:101E380039060001C551C619D8B425EF0FF027EFB0
:101E48000FF034EF0FF0F90E936F030E946F000E3E
:101E5800956FC6C096F0000E7FEC2FF0C6C0C5F097
:101E68000001C751C819D8B43CEF0FF03EEF0FF08E
:101E78004BEF0FF0FB0E936F030E946F000E956FF0
:101E8800C8C096F0000E7FEC2FF0C8C0C7F0E5EC94
:101E98002CF027500001895D0101D56F2850000101
:101EA8008A590101D66F295000018B590101D76F5A
:101EB8002A5000018C590101D86FD851D7110BE174
:101EC800250ED55DF40ED659D8A06DEF0FF06FEF43
:101ED8000FF0AAEF10F0E5EC2CF089C027F08AC0CB
:101EE80028F08BC029F08CC02AF03D4A3E2A3D508C
:101EF8003E10D8A482EF0FF084EF0FF0AAEF10F095
:101F08003B4A3C2AAAEF10F080A48DEF0FF08FEF28
:101F18000FF09BEF0FF0E5EC2CF089C0A5F08AC01C
:101F2800A6F08BC0A7F08CC0A8F0B6EF10F0E5ECD7
:101F38002CF00001A551895D0101D56F0001A65162
:101F48008A590101D66F0001A7518B590101D76F3A
:101F58000001A8518C590101D86FD8510DE1910E9B
:101F6800D55DD00ED659030ED759D8A0BEEF0FF0C5
:101F7800C0EF0FF0B6EF10F0000E0001C86FC46993
:101F8800E5EC2CF089C0A5F08AC0A6F08BC0A7F0BC
:101F98008CC0A8F0BAC0CFF1B9C0D0F1500EEBECAC
:101FA80032F0CBEC31F0B6EF10F080A4DEEF0FF09A
:101FB800E0EF0FF0B6EF10F0E5EC2CF00001A551C2
:101FC800895D0101D56F0001A6518A590101D66FBB
:101FD8000001A7518B590101D76F0001A8518C59F5
:101FE8000101D86FD8510DE1910ED55DD00ED659AB
:101FF800030ED759D8A003EF10F005EF10F021EF2A
:1020080010F0C4C0C8F00001C805D8A40EEF10F045
:1020180010EF10F01DEF10F0B7C0B9F0B8C0BAF06B
:10202800BAC0CFF1B9C0D0F1520EEBEC32F0414A50
:10203800422ACBEC31F08FEF0FF0E5EC2CF00001E9
:10204800A551895D0101D56F0001A6518A59010189
:10205800D66F0001A7518B590101D76F0001A85114
:102068008C590101D86FD851D7110BE1250ED55DD8
:10207800F40ED659D8A043EF10F045EF10F08FEFCB
:102088000FF00001B951BA11D8B44DEF10F04FEF6D
:1020980010F056EF10F0BAC0CFF1B9C0D0F1510E20
:1020A800EBEC32F0000E0001BA6F000EB96FC86990
:1020B8001DEF10F080A463EF10F065EF10F0B6EF9D
:1020C80010F0E5EC2CF00001A551895D0101D56FF8
:1020D8000001A6518A590101D66F0001A7518B59F9
:1020E8000101D76F0001A8518C590101D86FD8514F
:1020F8000DE1910ED55DD00ED659030ED759D8A053
:1021080088EF10F08AEF10F08FEF0FF0B9C0B7F03A
:10211800BAC0B8F0000E0001BA6FBAC0B9F0000E2C
:10212800C86F010EC46FE5EC2CF089C0A5F08AC019
:10213800A6F08BC0A7F08CC0A8F0B8C0CFF1B7C08C
:10214800D0F1500EEBEC32F01DEF10F00001C85149
:10215800000AD8B4D9EF0FF0FF0AD8B488EF0FF00F
:102168005EEF10F01200D7C1D9FFD8C1DAFF030E15
:10217800DF60C1EF10F0C3EF10F0C6EF10F0000EF3
:1021880098EF12F0010120EE02F0D751D926D8516C
:10219800DA22DE500001BA19D8B4D5EF10F0D7EF23
:1021A80010F0D9EF10F0C3EF10F0010120EE03F0AA
:1021B800D751D926D851DA220001B951DE18D8B43E
:1021C800E8EF10F0EAEF10F078EF12F0C3EF10F03C
:1021D800D7C1D9FFD8C1DAFF040EDF60F6EF10F0DF
:1021E800F8EF10F015EF11F0BAC0CFF1B9C0D0F187
:1021F800010ED16F6F0ED3EC32F0BAC0CFF1B9C077
:10220800D0F1710E0101D16F010ED26F010ED36FA3
:10221800AF0E03EC33F00001D54BD62B010E98EF2F
:1022280012F020EE04F0D751D926D851DA22DF5027
:1022380088EC30F089C0DBF18AC0DCF10101DCBF39
:102248002AEF11F028EF11F045EF11F0BAC0CFF1E5
:10225800B9C0D0F1DB510008D16F6F0ED3EC32F06A
:10226800BAC0CFF1B9C0D0F1710E0101D16F010E22
:10227800D26FDB510008D36FAF0E03EC33F00FEFD2
:1022880011F00001D34BD42BBAC0CFF1B9C0D0F1B3
:10229800010120EE04F0D751D926D851DA22DF50B7
:1022A800D16FDBC1D2F1970EBBEC32F0010120EE09
:1022B80004F0D751D926D851DA22DF50D8A467EFD5
:1022C80011F069EF11F012EF11F0020E55EC2BF03E
:1022D80000018D6FB80E8E6F5F0E8F6F060E4EEC7D
:1022E8002FF012EF11F0D7C1D9FFD8C1DAFF050ED0
:1022F800DF6081EF11F083EF11F092EF11F0BAC0B7
:10230800CFF1B9C0D0F1960ED16F010ED26F010E88
:10231800D36FAF0E03EC33F00FEF11F020EE05F0A2
:10232800D751D926D851DA22DF5000019A6F01011E
:1023380020EE04F0D751D926D851DA22DF509EEC8E
:102348002BF00101D96FD951DB6FDC6BDCBFB5EF26
:1023580011F0DC5108E1DB05D8A0B5EF11F0B7EFBB
:1023680011F0C2EF11F0BAC0CFF1B9C0D0F1DBC1A2
:10237800D1F16F0ED3EC32F00FEF11F0BAC0CFF1FC
:10238800B9C0D0F1590EEBEC32F0BAC0CFF1B9C0F8
:10239800D0F1960E0101D16F010ED26F000ED36FEE
:1023A800AF0E03EC33F012EF11F0D7C1D9FFD8C14B
:1023B800DAFF050EDF60E3EF11F0E5EF11F0F4EF5F
:1023C80011F0BAC0CFF1B9C0D0F18E0ED16F010EA5
:1023D800D26F010ED36FAF0E03EC33F00FEF11F095
:1023E80020EE05F0D751D926D851DA22DF50000166
:1023F8009A6F010120EE04F0D751D926D851DA227C
:10240800DF509EEC2BF00101D96FD951DB6FDC6BEB
:10241800DCBF17EF12F0DC5108E1DB05D8A017EF9D
:1024280012F019EF12F032EF12F0BAC0CFF1B9C0C2
:10243800D0F1DBC1D1F16F0ED3EC32F0BAC0CFF1DD
:10244800B9C0D0F18E0E0101D16F010ED26FDBC180
:10245800D3F1AF0E03EC33F00FEF11F020EE04F0E0
:10246800D751D926D851DA22DF5088EC30F089C00C
:10247800DBF18AC0DCF10101DCBF47EF12F045EF68
:1024880012F062EF12F0BAC0CFF1B9C0D0F1DB514F
:102498000008D16F6F0ED3EC32F0BAC0CFF1B9C0DB
:1024A800D0F18E0E0101D16F010ED26FDB51000801
:1024B800D36FAF0E03EC33F00FEF11F0BAC0CFF1CA
:1024C800B9C0D0F120EE04F0D751D926D851DA227C
:1024D800DF50D16FDBC1D2F1970EBBEC32F00001B7
:1024E800D34BD42B12EF11F0010120EE01F0D7519C
:1024F800D926D851DA22DF50D96FDA6BDA51000ABF
:10250800D8B489EF12F0C3EF10F0D951710AD8B4DA
:10251800ECEF10F0FF0AD8B4D9EF11F0180AD8B4CC
:1025280077EF11F0C3EF10F01200E5EC2CF0010189
:1025380058510001895D936F0101595100018A5971
:10254800946F01015A5100018B59956F01015B513C
:1025580000018C59966F965195110BE1720E935D9F
:10256800020E9459D8A0BBEF12F0BDEF12F066EF3F
:1025780013F0AF2BB02BE5EC2CF089C058F18AC0D2
:1025880059F18BC05AF18CC05BF166EF13F08A8C5D
:10259800000EB06F34EF14F08A9CCCEF12F0B0C08C
:1025A80089F08A6B000E8C6F190E8B6F33EC26F056
:1025B8000001893B894789478A508919BF0B8919C6
:1025C8008A6E310EB065EBEF12F0EDEF12F034EFDA
:1025D80014F0CCEF12F0B0C089F08A6B000E8C6F4B
:1025E800320E8B6F33EC26F00001893B894789470F
:1025F8008A508919BF0B89198A6E630EB06507EF77
:1026080013F009EF13F034EF14F0CCEF12F0B0C070
:1026180089F08A6B000E8C6F640E8B6F33EC26F09A
:102628000001893B894789478A508919BF0B891955
:102638008A6EC70EB06523EF13F025EF13F034EF61
:1026480014F0CCEF12F08A8C180EB0652EEF13F050
:1026580030EF13F034EF14F0000EB06F000EB26FCD
:1026680034EF14F08A9C180EB0653DEF13F03FEF7D
:1026780013F034EF14F0000EB06F010EB26F34EFA8
:1026880014F08A8C310EB0654CEF13F04EEF13F056
:1026980034EF14F030EF13F08A9C310EB06557EF29
:1026A80013F059EF13F034EF14F03FEF13F08A9C56
:1026B800630EB06562EF13F064EF13F034EF14F0BB
:1026C8003FEF13F00001B251936F946B9451000ADD
:1026D800D8B471EF13F034EF14F09351000AD8B462
:1026E800D0EF12F0010AD8B4CBEF12F0030AD8B435
:1026F800D3EF12F0010AD8B4EFEF12F0070AD8B4FA
:102708000BEF13F0010AD8B436EF13F0030AD8B46C
:1027180027EF13F0010AD8B450EF13F00F0AD8B41A
:1027280045EF13F0010AD8B45BEF13F034EF14F05F
:102738008A8E000EAF6F69EF14F08A9E9DEF13F03A
:10274800AFC089F08A6B000E8C6F190E8B6F33EC5B
:1027580026F00001893389338A5089197F0B89193A
:102768008A6E310EAF65BBEF13F0BDEF13F069EF62
:1027780014F09DEF13F0AFC089F08A6B000E8C6FD8
:10278800320E8B6F33EC26F00001893389338A507F
:1027980089197F0B89198A6E630EAF65D6EF13F01E
:1027A800D8EF13F069EF14F09DEF13F0AFC089F084
:1027B8008A6B000E8C6F640E8B6F33EC26F0000171
:1027C800893389338A5089197F0B89198A6EC70E14
:1027D800AF65F1EF13F0F3EF13F069EF14F09DEF2D
:1027E80013F08A8E180EAF65FCEF13F0FEEF13F0AE
:1027F80069EF14F0000EAF6F000EB16F69EF14F0BF
:102808008A9E180EAF650BEF14F00DEF14F069EF08
:1028180014F0000EAF6F010EB16F69EF14F08A8EDD
:10282800310EAF651AEF14F01CEF14F069EF14F0D5
:10283800FEEF13F08A9E310EAF6525EF14F027EFF7
:1028480014F069EF14F00DEF14F08A9E630EAF6573
:1028580030EF14F032EF14F069EF14F00DEF14F0CC
:10286800B151936F946B9451000AD8B43EEF14F0B1
:1028780069EF14F09351000AD8B4A1EF13F0010ADC
:10288800D8B49CEF13F0030AD8B4A4EF13F0010AEC
:10289800D8B4BFEF13F0070AD8B4DAEF13F0010A7F
:1028A800D8B404EF14F0030AD8B4F5EF13F0010A12
:1028B800D8B41EEF14F00F0AD8B413EF14F0010ABD
:1028C800D8B429EF14F069EF14F01200000189510F
:1028D800D96EDA6A020ED926DF508C6F8D6B89515A
:1028E800D96EDA6A040ED926DF508E6FFF0E8E2558
:1028F8008F6F906BFF0E90238951D96EDA6A030EA1
:10290800D926DF50916F926B010E9127000E92230A
:102918008F519115936F90519215946F8C51931913
:1029280007E18D519419D8A49CEF14F09EEF14F090
:10293800A1EF14F0000E21EF16F020EE01F08A51FD
:10294800D9268B51DA228951E16EE26A030EE1261B
:10295800E7508C6F8C51090DF3CF8DF0F4CF8EF0CA
:102968008951E16EE26AE6CF8FF0E5CF90F08D51A4
:102978008F25916F8E519021926F010E9125E16EF6
:10298800000E9221E26EDFCFE7FF20EE02F08A51BF
:10299800D9268B51DA228951E16EE26A030EE126CB
:1029A800E7508C6F8C51090DF3CF8DF0F4CF8EF07A
:1029B8008951E16EE26AE6CF8FF0E5CF90F08D5154
:1029C8008F25916F8E519021926F020E9125E16EA5
:1029D800000E9221E26EDFCFE7FF20EE03F08A516E
:1029E800D9268B51DA228951E16EE26A030EE1267B
:1029F800E7508C6F8C51090DF3CF8DF0F4CF8EF02A
:102A08008951E16EE26AE6CF8FF0E5CF90F08D5103
:102A18008F25916F8E519021926F030E9125E16E53
:102A2800000E9221E26EDFCFE7FF20EE04F08A511C
:102A3800D9268B51DA228951E16EE26A030EE1262A
:102A4800E7508C6F8C51090DF3CF8DF0F4CF8EF0D9
:102A58008951E16EE26AE6CF8FF0E5CF90F08D51B3
:102A68008F25916F8E519021926F040E9125E16E02
:102A7800000E9221E26EDFCFE7FF20EE05F08A51CB
:102A8800D9268B51DA228951E16EE26A030EE126DA
:102A9800E7508C6F8C51090DF3CF8DF0F4CF8EF089
:102AA8008951E16EE26AE6CF8FF0E5CF90F08D5163
:102AB8008F25916F8E519021926F050E9125E16EB1
:102AC800000E9221E26EDFCFE7FF20EE06F08A517A
:102AD800D9268B51DA228951E16EE26A030EE1268A
:102AE800E7508C6F8C51090DF3CF8DF0F4CF8EF039
:102AF8008951E16EE26AE6CF8FF0E5CF90F08D5113
:102B08008F25916F8E519021926F060E9125E16E5F
:102B1800000E9221E26EDFCFE7FF20EE07F08A5128
:102B2800D9268B51DA228951E16EE26A030EE12639
:102B3800E7508C6F8C51090DF3CF8DF0F4CF8EF0E8
:102B48008951E16EE26AE6CF8FF0E5CF90F08D51C2
:102B58008F25916F8E519021926F070E9125E16E0E
:102B6800000E9221E26EDFCFE7FF20EE08F08A51D7
:102B7800D9268B51DA228951E16EE26A030EE126E9
:102B8800E7508C6F8C51090DF3CF8DF0F4CF8EF098
:102B98008951E16EE26AE6CF8FF0E5CF90F08D5172
:102BA8008F25916F8E519021926F080E9125E16EBD
:102BB800000E9221E26EDFCFE7FF8AC0D9FF8BC0FB
:102BC800DAFF8951E16EE26A030EE126E7508C6F65
:102BD8008C51090DF3CF8DF0F4CF8EF08951E16E51
:102BE800E26AE6CF8FF0E5CF90F08D518F25E16E48
:102BF8008E519021E26EDFCFE7FF8951D96EDA6AF4
:102C0800030ED926DF2A8951D96EDA6A040ED9262D
:102C18008951E16EE26A030EE126DE50E65CD8A037
:102C280018EF16F01AEF16F020EF16F08951D96E4A
:102C3800DA6A030ED926DF6A010E120076902AECB2
:102C48001AF0450E0001896FD0EC28F089C0CEF14A
:102C58008AC0CFF10101CE51CF11D8B436EF16F0AA
:102C680038EF16F04BEF16F0A2C089F0A3C08AF037
:102C7800CEC18BF0CFC18CF0000E00018E6F090E13
:102C88008D6F5FEC30F07680010E40EF17F071AE7B
:102C980050EF16F052EF16F03DEF17F06F50070B9C
:102CA800F8EC26F089C0D0F18AC0D1F10101D051E9
:102CB800D111D8A462EF16F064EF16F068EF16F0A1
:102CC8007680000E40EF17F0779220EE02F0D05198
:102CD800D926D151DA22DFA674EF16F076EF16F076
:102CE80078EF16F065EF16F0D0C193F0D1C194F0EB
:102CF80039EC1EF0E806D8A484EF16F086EF16F03B
:102D08002AEF17F00101B44BB52B20EE06F0D05195
:102D1800D926D151DA22000110EE01F0A251E126A4
:102D2800A351E222DFCFE7FF010120EE05F0D051E9
:102D3800D926D151DA22DF500F0BA2C0D9FFA3C088
:102D4800DAFFDF6EA2C0D9FFA3C0DAFF080EDF6486
:102D5800B0EF16F0B2EF16F0B8EF16F0A2C0D9FF38
:102D6800A3C0DAFF080EDF6E20EE07F0D051D92697
:102D7800D151DA22000110EE02F0A251E126A3514E
:102D8800E222DFCFE7FF010120EE08F0D051D9267B
:102D9800D151DA22000110EE03F0A251E126A3512D
:102DA800E222DFCFE7FF010120EE09F0D051D9265A
:102DB800D151DA22000110EE04F0A251E126A3510C
:102DC800E222DFCFE7FF010120EE0AF0D051D92639
:102DD800D151DA22000110EE05F0A251E126A351EB
:102DE800E222DFCFE7FF010120EE0BF0D051D92618
:102DF800D151DA22000110EE06F0A251E126A351CA
:102E0800E222DFCFE7FF010120EE0CF0D051D926F6
:102E1800D151DA22000110EE07F0A251E126A351A8
:102E2800E222DFCFE7FF010120EE0DF0D051D926D5
:102E3800D151DA22000110EE08F0A251E126A35187
:102E4800E222DFCFE7FF010E0101CD6F77AE2FEF52
:102E580017F031EF17F032EF17F0779ED0C1D9FF96
:102E6800D1C1DAFF7F0EDF1676800101CD5140EF28
:102E780017F0768065EF16F0120000018C6F100EC7
:102E880000018C614AEF17F04CEF17F04EEF18F085
:102E98002FEF18F08951D8B454EF17F056EF17F008
:102EA80077EF17F08C51040D020EF326000EF42272
:102EB800790EF324F66EFF0EF420F76EF86A000E12
:102EC800F8220800F5CF8AF0010E8B6F8A2B6FEF7E
:102ED80017F0D8908B378A2F6DEF17F000018B51C0
:102EE80089124EEF18F08C51040D020EF326000ED5
:102EF800F422790EF324F66EFF0EF420F76EF86ACA
:102F0800000EF8220800F5CF8AF0010E8B6F8A2B8D
:102F180090EF17F0D8908B378A2F8EEF17F00001BB
:102F28008B51FF0A89164EEF18F08951D8B49FEFDC
:102F380017F0A1EF17F0C2EF17F08C51040D020E35
:102F4800F326000EF422790EF324F66EFF0EF42019
:102F5800F76EF86A000EF8220800F5CF8AF0010E25
:102F68008B6F8A2BBAEF17F0D8908B378A2FB8EF70
:102F780017F000018B518A124EEF18F08C51040D96
:102F8800020EF326000EF422790EF324F66EFF0EDD
:102F9800F420F76EF86A000EF8220800F5CF8AF0E0
:102FA800010E8B6F8A2BDBEF17F0D8908B378A2FA7
:102FB800D9EF17F000018B51FF0A8A164EEF18F06F
:102FC8008951D8B4EAEF17F0ECEF17F00DEF18F0CD
:102FD8008C51040D020EF326000EF422790EF32410
:102FE800F66EFF0EF420F76EF86A000EF82208005D
:102FF800F5CF8AF0010E8B6F8A2B05EF18F0D89069
:103008008B378A2F03EF18F000018B518B124EEF8C
:1030180018F08C51040D020EF326000EF422790EDE
:10302800F324F66EFF0EF420F76EF86A000EF8220D
:103038000800F5CF8AF0010E8B6F8A2B26EF18F067
:10304800D8908B378A2F24EF18F000018B51FF0A94
:103058008B164EEF18F08C51040D010EF326000E5E
:10306800F422790EF324F66EFF0EF420F76EF86A58
:10307800000EF8220800F550410AD8B44EEF17F0B8
:10308800030AD8B499EF17F0010AD8B4E4EF17F09F
:103098004EEF18F012007698CE0E0001896F23ECDF
:1030A80032F00009D8A45BEF18F05DEF18F022EFBA
:1030B80019F00F0120B763EF18F065EF18F022EF51
:1030C80019F00001CC51D8A46CEF18F06EEF18F08D
:1030D8007AEF18F0CB51D8A474EF18F076EF18F007
:1030E8007AEF18F0010ECB6F010ECC6F768895C081
:1030F800D9FF96C0DAFF080EDF6485EF18F087EF76
:1031080018F08DEF18F095C0D9FF96C0DAFF080EB9
:10311800DF6E20EE01F09551D9269651DA22DF5064
:10312800976F986B790E9725F66EFE0E9821F76EBD
:10313800F86A000EF8220800F550996F9A6BBF0ED6
:103148009925F66EFF0E9A21F76EF86A000EF8229E
:103158000800F5CF9BF0CC39E8461F0B0F0B9B11ED
:103168000F01216FCCC097F0070E00019717050ECD
:10317800986FD8909737982FBDEF18F097510F0197
:10318800226F000120EE01F09551D9269651DA22DE
:10319800DF500F01266F000120EE02F09551D9266D
:1031A8009651DA22DF500F01276F000120EE03F05D
:1031B8009551D9269651DA22DF500F01286F000168
:1031C80020EE04F09551D9269651DA22DF500F01EE
:1031D800296F000120EE05F09551D9269651DA2283
:1031E800DF500F012A6F000120EE06F09551D92615
:1031F8009651DA22DF500F012B6F000120EE07F005
:103208009551D9269651DA22DF500F012C6F000113
:1032180020EE08F09551D9269651DA22DF500F0199
:103228002D6F95C0D9FF96C0DAFFDF500F0B256FC1
:1032380020870101AE4BAF2B3CEF19F0CE0E0001F9
:10324800896F95C08AF096C08BF06AEC14F000097B
:10325800D8A431EF19F033EF19F03BEF19F0010161
:10326800AC4BAD2B98EC33F076883CEF19F07688B0
:103278001200000E476E000E486E0B0E456E020ED1
:10328800466E200E496E000E0001D06F000ED16F01
:103298005C0ECE6F010ECF6F080ED26FFE0E8D6FD3
:1032A800030E8E6F000E8F6F000ED5EC2DF08DC0C3
:1032B80094F08EC095F0000195BF67EF19F065EFA7
:1032C80019F06BEF19F0000ECC6F6DEF19F094C088
:1032D800CCF0000E956F000E946FD8909435D96E8F
:1032E8009535DA6EA40ED926010EDA22DE6ADD6A79
:1032F800944B952B95BF8AEF19F0955109E1100E63
:10330800945DD8A08AEF19F08CEF19F071EF19F0DD
:10331800000E386E000E786E800E6F6E6EAE97EFF0
:1033280019F099EF19F092EF19F0B00E726E000EC5
:103338000E017D6F0F0E436F9E0E446F030E456F97
:10334800200E706E000EF86F080EF96F000EFA6FFF
:10335800000EFB6F000EE16F000E716F000E796FAB
:10336800010E466F000E606E000E0F01306F000EEA
:103378000E01806F000E906F000EA06F000EB06FF0
:10338800000EC06F000ED06F000E7E6F7F857F9796
:103398007F99000E6F6E6EBED4EF19F0D6EF19F05C
:1033A800CFEF19F0000E0F01206F20912093000E2F
:1033B800256F000E216F000E226F000E106F109106
:1033C8001083400E156FC30EF66EFF0EF76EF86A87
:1033D8000800F5CF93F00001CC39E8461F0B0F0B1E
:1033E80093110F01116F22CF12FF000E006F0081A1
:1033F8000083000E056FC30EF66EFF0EF76EF86AB7
:103408000800F5CF93F00001CC39E8461F0B0F0BED
:1034180093110F01016F22CF02FF000E0001CB6F45
:10342800E5EC2CF089C0A9F08AC0AAF08BC0ABF0FB
:103438008CC0ACF0A9C02FF0AAC030F0ABC031F0FE
:10344800ACC032F076807688768A1200EBEF1AF0FC
:10345800E5EC2CF00001A951895D9B6FAA518A59AE
:103468009C6FAB518B599D6FAC518C599E6F9E517F
:103478009D110BE1D50E9B5D300E9C59D8A047EFEE
:103488001AF049EF1AF001EF1BF0010EA16F400E80
:10349800A125D96EDA6A010EDA22DF6AA12B0F0E96
:1034A800A16559EF1AF05BEF1AF04BEF1AF0010E15
:1034B8000101406F020E0001CB6FE5EC2CF089C0D2
:1034C800A9F08AC0AAF08BC0ABF08CC0ACF00101A7
:1034D800BC4BBD2B0F01108701EF1BF0E5EC2CF066
:1034E8000001A951895D9B6FAA518A599C6FAB5104
:1034F8008B599D6FAC518C599E6F9E519D110BE15C
:103508006B0E9B5D180E9C59D8A08DEF1AF08FEFAB
:103518001AF001EF1BF0000EA16F94EF1AF0A12B27
:10352800400EA125D96EDA6A010EDA22DE28D8A467
:10353800A0EF1AF0A2EF1AF0AAEF1AF00F0EA16589
:10354800A8EF1AF0AAEF1AF093EF1AF0400EA1258F
:10355800D96EDA6A010EDA22DF509F6F9F29D8B43C
:10356800B8EF1AF0BAEF1AF0E1EF1AF0A151080D0E
:10357800F3CFA0F0C3EF1AF0D8909F33A02B9FB1E0
:10358800C8EF1AF0CAEF1AF0C0EF1AF0A051D8B479
:10359800D0EF1AF0D2EF1AF0E1EF1AF0640EA06142
:1035A800D8EF1AF0DAEF1AF0E1EF1AF0A0C0CCF079
:1035B800CC51A9EC2CF0E6EF1AF00101C24BC32B59
:1035C80098EC33F0000E0001CB6F01EF1BF0000107
:1035D800CB519B6F9C6B9C51000AD8B4F6EF1AF044
:1035E80001EF1BF09B51010AD8B42CEF1AF0030A23
:1035F800D8B472EF1AF001EF1BF01200D0EF1BF0F5
:103608006F50070BB6EC27F060C06EF061C06FF02A
:10361800779271AC12EF1BF014EF1BF015EF1BF053
:10362800719C000120EE02F06E51D9266F51DA220A
:10363800DFB621EF1BF023EF1BF0C1EF1BF0450EA7
:10364800606F14EC24F060C06CF061C06DF0000194
:103658006C516D11D8A433EF1BF035EF1BF044EF1C
:103668001BF00101B24BB32BA2EC33F077AE3FEF66
:103678001BF041EF1BF0D7EF1BF0779ED7EF1BF045
:1036880020EE06F06E51D9266F51DA2210EE01F0C5
:103698006C51E1266D51E222DFCFE7FF20EE07F003
:1036A8006E51D9266F51DA2210EE02F06C51E126E4
:1036B8006D51E222DFCFE7FF20EE08F06E51D926E8
:1036C8006F51DA2210EE03F06C51E1266D51E222BF
:1036D800DFCFE7FF20EE09F06E51D9266F51DA22CD
:1036E80010EE04F06C51E1266D51E222DFCFE7FFC6
:1036F80020EE0AF06E51D9266F51DA2210EE05F04D
:103708006C51E1266D51E222DFCFE7FF20EE0BF08E
:103718006E51D9266F51DA2210EE06F06C51E1266F
:103728006D51E222DFCFE7FF20EE0CF06E51D92673
:103738006F51DA2210EE07F06C51E1266D51E2224A
:10374800DFCFE7FF20EE0DF06E51D9266F51DA2258
:1037580010EE08F06C51E1266D51E222DFCFE7FF51
:1037680020EE05F06E51D9266F51DA22DF500F0B8B
:103778006CC0D9FF6DC0DAFFDF6E77AEC6EF1BF005
:10378800C8EF1BF0C9EF1BF0779E6EC0D9FF6FC062
:10379800DAFF7F0EDF16779071BED5EF1BF0D7EFFB
:1037A8001BF004EF1BF01200A4EF1CF06F50070B86
:1037B80073EC28F001C00FF002C010F0779271ACE2
:1037C800E8EF1BF0EAEF1BF0EBEF1BF0719C20EE2B
:1037D80002F00F50D9261050DA22DFB6F6EF1BF0B0
:1037E800F8EF1BF095EF1CF0450E016E88EC24F005
:1037F80001C00DF002C00EF00D500E10D8A407EF56
:103808001CF009EF1CF018EF1CF00101B24BB32BB0
:10381800ACEC33F077AE13EF1CF015EF1CF0ABEF08
:103828001CF0779EABEF1CF020EE06F00F50D92667
:103838001050DA2210EE01F00D50E1260E50E2226F
:10384800DFCFE7FF20EE07F00F50D9261050DA221D
:1038580010EE02F00D50E1260E50E222DFCFE7FF16
:1038680020EE08F00F50D9261050DA2210EE03F09F
:103878000D50E1260E50E222DFCFE7FF20EE09F0DF
:103888000F50D9261050DA2210EE04F00D50E12620
:103898000E50E222DFCFE7FF20EE0AF00F50D926C4
:1038A8001050DA2210EE05F00D50E1260E50E222FB
:1038B800DFCFE7FF20EE0BF00F50D9261050DA22A9
:1038C80010EE06F00D50E1260E50E222DFCFE7FFA2
:1038D80020EE0CF00F50D9261050DA2210EE07F027
:1038E8000D50E1260E50E222DFCFE7FF20EE0DF06B
:1038F8000F50D9261050DA2210EE08F00D50E126AC
:103908000E50E222DFCFE7FF20EE05F00F50D92658
:103918001050DA22DF500F0B0DC0D9FF0EC0DAFFAE
:10392800DF6E77AE9AEF1CF09CEF1CF09DEF1CF059
:10393800779E0FC0D9FF10C0DAFF7F0EDF16779091
:1039480071BEA9EF1CF0ABEF1CF0DAEF1BF0120010
:1039580077980F0120B7B3EF1CF0B5EF1CF079EFA3
:103968001DF0CE0E0001606F28EC29F060C06FF0EA
:1039780061C070F000016F517011D8B4C6EF1CF02F
:10398800C8EF1CF06AEF1DF020EE01F06F51D92648
:103998007051DA22DF506A6F6B6B790E6A25F66E0A
:1039A800FE0E6B21F76EF86A000EF8220800F5503B
:1039B8006C6F6D6BBF0E6C25F66EFF0E6D21F76E8A
:1039C800F86A000EF8220800F5CF6EF0CC39E84608
:1039D8001F0B0F0B6E110F01216FCCC06AF0070E81
:1039E80000016A17050E6B6FD8906A376B2FF8EFD6
:1039F8001CF06A510F01226F000120EE01F06F5197
:103A0800D9267051DA22DF500F01266F000120EE0F
:103A180002F06F51D9267051DA22DF500F01276F5B
:103A2800000120EE03F06F51D9267051DA22DF50E1
:103A38000F01286F000120EE04F06F51D926705154
:103A4800DA22DF500F01296F000120EE05F06F51D7
:103A5800D9267051DA22DF500F012A6F000120EEBB
:103A680006F06F51D9267051DA22DF500F012B6F03
:103A7800000120EE07F06F51D9267051DA22DF508D
:103A88000F012C6F000120EE08F06F51D9267051FC
:103A9800DA22DF500F012D6F6FC0D9FF70C0DAFF37
:103AA800DF50256F5DEC2DF060C02FF061C030F065
:103AB80062C031F063C032F0000E386E0F0120870B
:103AC80076880101AE4BAF2B7BEF1DF0000E2F6EF9
:103AD800000E306E000E316E000E326E000E0F01B9
:103AE800206F779876987BEF1DF07798768812008C
:103AF80077980F0120B783EF1DF085EF1DF036EFA3
:103B08001EF0CE0E016E80EC29F001C010F002C04C
:103B180011F010501110D8B494EF1DF096EF1DF06D
:103B280027EF1EF020EE01F01050D9261150DA22AE
:103B3800DF500B6E0C6A790E0B24F66EFE0E0C200D
:103B4800F76EF86A000EF8220800F5500D6E0E6A3E
:103B5800BF0E0D24F66EFF0E0E20F76EF86A000EEB
:103B6800F8220800F5CF0FF00001CC39E8461F0B0A
:103B78000F0B0F100F01216FCCC00BF0070E0B16A7
:103B8800050E0C6ED8900B360C2EC6EF1DF00B50A0
:103B9800226F20EE01F01050D9261150DA22DF50A2
:103BA800266F20EE02F01050D9261150DA22DF508D
:103BB800276F20EE03F01050D9261150DA22DF507B
:103BC800286F20EE04F01050D9261150DA22DF5069
:103BD800296F20EE05F01050D9261150DA22DF5057
:103BE8002A6F20EE06F01050D9261150DA22DF5045
:103BF8002B6F20EE07F01050D9261150DA22DF5033
:103C08002C6F20EE08F01050D9261150DA22DF5020
:103C18002D6F10C0D9FF11C0DAFFDF50256F6CEC93
:103C28002CF001C02FF002C030F003C031F004C006
:103C380032F0000E386E0F01208776880101AE4BF6
:103C4800AF2B38EF1EF0000E2F6E000E306E000EF8
:103C5800316E000E326E000E0F01206F7798769845
:103C680038EF1EF0779876881200000120EE05F0F4
:103C78009351D9269451DA22DFAC45EF1EF047EF75
:103C88001EF056EF1EF00F010087E5EC2CF089C0FE
:103C9800A9F08AC0AAF08BC0ABF08CC0ACF0000EC3
:103CA800DDEF1EF020EE02F09351D9269451DA226E
:103CB800DF50956F050E966FD8909533962F60EF6D
:103CC8001EF020EE01F09351D9269451DA22DF50EC
:103CD800080DF35095257F0B996F020ECB19D8B4B8
:103CE80078EF1EF07AEF1EF08BEF1EF020EE05F055
:103CF8009351D9269451DA22DF50956F0F0E9517FC
:103D0800D8A489EF1EF08BEF1EF0A9EF1EF099C022
:103D180095F0070E9517010E966F952B96EF1EF0EE
:103D2800D8909637952F94EF1EF000019939E84600
:103D38001F0B976F986B400E9725D96E010E98212F
:103D4800DA6E9651DF12C9EF1EF0CB51D8A4AFEF4F
:103D58001EF0B1EF1EF0C9EF1EF0CC519919D8A48E
:103D6800B8EF1EF0BAEF1EF0C9EF1EF0010ECB6FD0
:103D78000101BE4BBF2BE5EC2CF089C0A9F08AC02D
:103D8800AAF08BC0ABF08CC0ACF0000120EE05F0BF
:103D98009351D9269451DA22DF50956F0F0E95175B
:103DA800D8A4D9EF1EF0DCEF1EF0010EDDEF1EF0F7
:103DB800000E120000018B6F3EEF1FF0000EB16F76
:103DC800000EB26F80EF1FF0010EB16F000EB26FE0
:103DD80080EF1FF0000EB16F030EB26F80EF1FF07F
:103DE800000EB16F010EB26F80EF1FF0000EB06FC2
:103DF800190EAF6F020EB16F020EB26F80EF1FF097
:103E0800C829D8A40AEF1FF00CEF1FF010EF1FF01D
:103E1800060EB26F80EF1FF0C805D8A416EF1FF08A
:103E280018EF1FF080EF1FF0060EB16F80EF1FF044
:103E3800C829D8A422EF1FF024EF1FF028EF1FF0A5
:103E4800080EB26F80EF1FF0C805D8A42EEF1FF040
:103E580030EF1FF080EF1FF0080EB16F80EF1FF0FA
:103E6800000EB06F000EAF6F020EB16F020EB26F90
:103E780080EF1FF000018B51896F8A6B8A51000A0D
:103E8800D8B449EF1FF080EF1FF08951000AD8B469
:103E9800E2EF1EF0010AD8B4E8EF1EF0030AD8B426
:103EA800EEEF1EF0010AD8B4F4EF1EF0070AD8B4FA
:103EB800FAEF1EF0010AD8B4F4EF1EF0030AD8B4E2
:103EC800F4EF1EF0010AD8B404EF1FF00F0AD8B4BB
:103ED8001CEF1FF0010AD8B4F4EF1EF0030AD8B49F
:103EE800F4EF1EF0010AD8B434EF1FF0070AD8B473
:103EF80034EF1FF080EF1FF01200FC0E00018D6FF1
:103F0800030E8E6F000E8F6F000ED5EC2DF08DC056
:103F180094F08EC095F0000195BF97EF1FF095EFD4
:103F28001FF09DEF1FF0000EBA6F000EB96FB8EFCB
:103F38001FF094C0BAF0FD0E8D6F030E8E6F000E49
:103F48008F6F000ED5EC2DF08DC094F08EC095F0DB
:103F5800000195BFB4EF1FF0B2EF1FF0B6EF1FF0EE
:103F680097EF1FF094C0B9F0FB0E8D6F030E8E6FA4
:103F7800000E8F6F000ED5EC2DF08DC094F08EC022
:103F880095F0000195BFCDEF1FF0CBEF1FF0D0EFFC
:103F98001FF0C869D2EF1FF094C0C8F0F90E8D6FFA
:103FA800030E8E6F000E8F6F000ED5EC2DF08DC0B6
:103FB80094F08EC095F0000195BFE7EF1FF0E5EF94
:103FC8001FF0EBEF1FF0040EC66FEDEF1FF094C06B
:103FD800C6F0CBEC31F0E5EC2CF089C0A5F08AC036
:103FE800A6F08BC0A7F08CC0A8F0000E0001936F5C
:103FF8009351020DF350390FD96EDA6ADE6ADD6A21
:10400800932B050E93650BEF20F00DEF20F0FCEFDE
:104018001FF0000EC36F000E2B6E000E2C6E000EEC
:104028002D6E000E2E6E000E276E000E286E000EEE
:10403800296E000E2A6E120000018E6F61EF20F0CB
:10404800140EB1EF20F0A50EB1EF20F0610EB1EF24
:1040580020F0FC0EB1EF20F0000EB1EF20F0010EC1
:10406800B1EF20F02CEC2CF0B1EF20F00F0EB1EFF7
:1040780020F0030E0CEC2BF00009D8B446EF20F02A
:1040880048EF20F030EF20F033EF20F0080EB1EFCA
:1040980020F0FE0EF66EFF0EF76E3F0EF86E08006B
:1040A800F550B1EF20F0FF0EF66EFF0EF76E3F0EE3
:1040B800F86E0800F550B1EF20F000018E51000AAB
:1040C800D8B424EF20F0010AD8B427EF20F0030A6F
:1040D800D8B42AEF20F0010AD8B42DEF20F0070A4F
:1040E800D8B430EF20F0010AD8B430EF20F0030A3A
:1040F800D8B430EF20F0010AD8B433EF20F00F0A1B
:10410800D8B436EF20F0010AD8B43AEF20F0030A09
:10411800D8B43DEF20F0010AD8B430EF20F0070AF8
:10412800D8B44AEF20F0010AD8B430EF20F0030ADF
:10413800D8B430EF20F01F0AD8B44DEF20F0030AAE
:10414800D8B457EF20F0010AD8B433EF20F0070AAB
:10415800D8B433EF20F030EF20F01200000E000149
:10416800A16FA151020DB90EF324F66EFF0EF420D3
:10417800F76EF86A000EF8220900F5500900F510EC
:10418800D8B4C9EF20F0CBEF20F01CEF21F0A151FB
:10419800020DB90EF324F66EFF0EF420F76EF86ADE
:1041A800000EF8220900F5CF9DF00900F5CF9EF02A
:1041B800020E9D27000E9E239DC0F6FF9EC0F7FFAE
:1041C800F86A0900F5500900F510D8B4EEEF20F0B0
:1041D800F0EF20F01CEF21F0A151020DB90EF324ED
:1041E800F66EFF0EF420F76EF86A000EF82209004A
:1041F800F5CF9DF00900F5CF9EF0020E9D27000E29
:104208009E239DC0F6FF9EC0F7FFF86A0900F5CF10
:104218009FF00900F5CFA0F002D81CEF21F00500AF
:10422800FA6E9F51FD6EA051FE6EFF6AFA501200A1
:104238000001A12B020EA16524EF21F026EF21F049
:10424800B5EF20F0FA0E936F030E946F000E956F82
:10425800010E966F000E7FEC2FF0C5EC33F01200C4
:104268000101D651020DB90EF324F66EFF0EF420AB
:10427800F76EF86A000EF8220900F5CFD8F10900A8
:10428800F5CFD9F1100ED827000ED923D8C1F6FFE3
:10429800D9C1F7FFF86A0900F5500900F510D8A44C
:1042A80058EF21F05AEF21F05DEF21F0000EB4EF46
:1042B80021F0D651020DB90EF324F66EFF0EF4204C
:1042C800F76EF86A000EF8220900F5CFD8F1090058
:1042D800F5CFD9F1100ED827000ED923D8C1F6FF93
:1042E800D9C1F7FFF86A0900F5CFDAF10900F5CF6F
:1042F800DBF102D88AEF21F00500FA6EDA51FD6E83
:10430800DB51FE6EFF6AFA50D729120089C0DCF132
:104318008AC0DDF10101DC51DD11D8A496EF21F04E
:1043280098EF21F09AEF21F05AEF21F0BAC0CFF1BF
:10433800B9C0D0F1D629D16FD729D26F20EE01F0BC
:10434800DC51D926DD51DA22DF50D36FDCC1D9FF29
:10435800DDC1DAFFDF50D46FC70EA3EC32F0020ED6
:104368001200C00E00018C158F6FFF0E8D15906F17
:10437800B3518F1909E1B4519019D8B4C6EF21F09F
:10438800C8EF21F0E7EF21F0B351B411D8B4CFEF63
:1043980021F0D1EF21F0DEEF21F0C2A3D6EF21F01A
:1043A800D8EF21F0DCEF21F081EC2EF00001C29370
:1043B80057EC27F0C00E00018C15B36FFF0E8D155A
:1043C800B46F35EC30F03F0E00018C158F6F000E86
:1043D8008D15906F000E8F25D96E010E9021DA6E23
:1043E800DF50FF0A8E150009D8A4FDEF21F001EF78
:1043F80022F0916B912B03EF22F00001916BC231F7
:10440800010B926F915192139237C2519219FD0B81
:104418009219C26F3F0E8C158F6F000E8D15906F1D
:10442800000E8F25D96E010E9021DA6E8E51DE189E
:10443800D8B421EF22F023EF22F032EF22F0C2812C
:104448003F0E8C158F6F000E8D15906F000E8F2507
:10445800D96E010E9021DA6E8EC0DFFF000E1200B9
:10446800000EB1EC30F0BBEC33F073EC32F0050E1B
:104478000001BD6F000E9D6F9D51020DB90EF32412
:10448800F66EFF0EF420F76EF86A000EF8220900A7
:10449800F5500900F510D8B454EF22F056EF22F089
:1044A800A7EF22F09D51020DB90EF324F66EFF0E10
:1044B800F420F76EF86A000EF8220900F5CF99F09B
:1044C8000900F5CF9AF0040E9927000E9A2399C097
:1044D800F6FF9AC0F7FFF86A0900F5500900F510D1
:1044E800D8B479EF22F07BEF22F0A7EF22F09D51AC
:1044F800020DB90EF324F66EFF0EF420F76EF86A7B
:10450800000EF8220900F5CF99F00900F5CF9AF0CE
:10451800040E9927000E9A2399C0F6FF9AC0F7FF58
:10452800F86A0900F5CF9BF00900F5CF9CF002D896
:10453800A7EF22F00500FA6E9B51FD6E9C51FE6EAE
:10454800FF6AFA50120000019D2B020E9D65AFEF25
:1045580022F0B1EF22F040EF22F01200000E00012D
:10456800796F7951020DB90EF324F66EFF0EF4201F
:10457800F76EF86A000EF8220900F5500900F510E8
:10458800D8B4C9EF22F0CBEF22F01CEF23F0795119
:10459800020DB90EF324F66EFF0EF420F76EF86ADA
:1045A800000EF8220900F5CF75F00900F5CF76F076
:1045B8000C0E7527000E762375C0F6FF76C0F7FF40
:1045C800F86A0900F5500900F510D8B4EEEF22F0AA
:1045D800F0EF22F01CEF23F07951020DB90EF3240D
:1045E800F66EFF0EF420F76EF86A000EF822090046
:1045F800F5CF75F00900F5CF76F00C0E7527000E93
:10460800762375C0F6FF76C0F7FFF86A0900F5CF84
:1046180077F00900F5CF78F002D81CEF23F00500F9
:10462800FA6E7751FD6E7851FE6EFF6AFA501200ED
:104638000001792B020E796524EF23F026EF23F091
:10464800B5EF22F0C7EC33F012004A80D8CF7AF0E9
:10465800E8CF7BF0E0CF7CF0FACF7DF0FBCF7EF0A7
:10466800E1CF7FF0E2CF80F0D9CF81F0DACF82F0CE
:10467800F3CF83F0F4CF84F0F6CF85F0F7CF86F050
:10468800F8CF87F0F5CF88F0B2EC22F088C0F5FFBC
:1046980087C0F8FF86C0F7FF85C0F6FF84C0F4FF27
:1046A80083C0F3FF82C0DAFF81C0D9FF80C0E2FF78
:1046B8007FC0E1FF7EC0FBFF7DC0FAFF7CC0E0FF4A
:1046C8007BC0E8FF7AC0D8FF4A9010004A82FACF30
:1046D8001BF0FBCF1CF0E1CF1DF0E2CF1EF0D9CFCD
:1046E8001FF0DACF20F0F3CF21F0F4CF22F0F6CF8D
:1046F80023F0F7CF24F0F8CF25F0F5CF26F09FEC84
:1047080023F026C0F5FF25C0F8FF24C0F7FF23C01B
:10471800F6FF22C0F4FF21C0F3FF20C0DAFF1FC05C
:10472800D9FF1EC0E2FF1DC0E1FF1CC0FBFF1BC07C
:10473800FAFF4A921100000E1A6E1A50020DB90EB5
:10474800F324F66EFF0EF420F76EF86A000EF822D6
:104758000900F5500900F510D8B4B5EF23F0B7EF0C
:1047680023F008EF24F01A50020DB90EF324F66E68
:10477800FF0EF420F76EF86A000EF8220900F5CF54
:1047880016F00900F5CF17F00A0E1626000E1722AC
:1047980016C0F6FF17C0F7FFF86A0900F5500900C0
:1047A800F510D8B4DAEF23F0DCEF23F008EF24F0AB
:1047B8001A50020DB90EF324F66EFF0EF420F76EB0
:1047C800F86A000EF8220900F5CF16F00900F5CFB7
:1047D80017F00A0E1626000E172216C0F6FF17C08D
:1047E800F7FFF86A0900F5CF18F00900F5CF19F0BE
:1047F80002D808EF24F00500FA6E1850FD6E195023
:10480800FE6EFF6AFA5012001A2A020E1A640FEF9F
:1048180024F011EF24F0A1EF23F0C8EC33F01200DC
:1048280000016051D96EDA6A020ED926DF50626F34
:10483800636B6051D96EDA6A040ED926DF50646F53
:10484800FF0E6425656F666BFF0E66236051D96E97
:10485800DA6A030ED926DF50676F686B010E672787
:10486800000E682365516715696F665168156A6F90
:104878006251691907E163516A19D8A446EF24F017
:1048880048EF24F04EEF24F0000E606F000E616FC9
:1048980087EF24F06051D96EDA6A030ED926DF500B
:1048A8006B6F6051D96EDA6A030ED926DF2A605120
:1048B800D96EDA6A040ED9266051E16EE26A030EF7
:1048C800E126DE50E65CD8A06CEF24F06EEF24F011
:1048D80074EF24F06051D96EDA6A030ED926DF6AC4
:1048E8006B51090DF3CF62F0F4CF63F06051D96ECC
:1048F800DA6ADECF64F0DDCF65F062516425606F5F
:1049080063516521616F12000150D96EDA6A020E97
:10491800D926DF50036E046A0150D96EDA6A040E94
:10492800D926DF50056EFF0E0524066E076AFF0EB6
:1049380007220150D96EDA6A030ED926DF50086EB5
:10494800096A010E0826000E0922065008140A6E8C
:10495800075009140B6E03500A1807E104500B188E
:10496800D8A4B9EF24F0BBEF24F0C1EF24F0000E77
:10497800016E000E026EFAEF24F00150D96EDA6A69
:10498800030ED926DF500C6E0150D96EDA6A030E79
:10499800D926DF2A0150D96EDA6A040ED9260150C9
:1049A800E16EE26A030EE126DE50E65CD8A0DFEF96
:1049B80024F0E1EF24F0E7EF24F00150D96EDA6A31
:1049C800030ED926DF6A0C50090DF3CF03F0F4CF9C
:1049D80004F00150D96EDA6ADECF05F0DDCF06F0BB
:1049E80003500524016E04500620026E1200D7C140
:1049F800D9FFD8C1DAFF030EDF6005EF25F007EF16
:104A080025F00AEF25F0000E6AEF25F0010120EEEF
:104A180002F0D751D926D851DA22DE500001BA194E
:104A2800D8B419EF25F01BEF25F01DEF25F007EF9F
:104A380025F0010120EE03F0D751D926D851DA220A
:104A48000001B951DE18D8B42CEF25F02EEF25F06F
:104A58004EEF25F007EF25F0010E6AEF25F0D7C1DC
:104A6800D9FFD8C1DAFF040EDF603DEF25F03FEF34
:104A780025F030EF25F0BAC0CFF1B9C0D0F1710EF2
:104A8800D16F010ED26F010ED36FAF0E03EC33F06E
:104A980030EF25F0010120EE01F0D751D926D85189
:104AA800DA22DF50D96FDA6BDA51000AD8B45FEF37
:104AB80025F007EF25F0D9515D0AD8B430EF25F07D
:104AC800280AD8B433EF25F007EF25F012000001CB
:104AD800A46FE5EC2CF089C0A5F08AC0A6F08BC0C5
:104AE800A7F08CC0A8F0ACEF25F099EC12F0E5EC3B
:104AF8002CF00001A551895DA06FA6518A59A16FBC
:104B0800A7518B59A26FA8518C59A36FA4518D6FCF
:104B18008E6B8F6B906B240E916FF40E926F000E5C
:104B2800936F000E946F4BEC2EF00001A0518D5D39
:104B3800A1518E59A2518F59A3519059D8B0A7EFBE
:104B480025F0A9EF25F0ACEF25F0000ECEEF25F00B
:104B580080B4B1EF25F0B3EF25F079EF25F0E5EC5F
:104B68002CF00001A551895D936FA6518A59946F65
:104B7800A7518B59956FA8518C59966F240E976F32
:104B8800F40E986F000E996F000E9A6FD7EC29F00B
:104B98000001935112000001A46FE5EC2CF089C0CC
:104BA800A5F08AC0A6F08BC0A7F08CC0A8F010EFC3
:104BB80026F099EC12F0E5EC2CF00001A551895D86
:104BC800A06FA6518A59A16FA7518B59A26FA851FE
:104BD8008C59A36FA4518D6F8E6B8F6B906B240EC5
:104BE800916FF40E926F000E936F000E946F4BEC62
:104BF8002EF00001A0518D5DA1518E59A2518F59FF
:104C0800A3519059D8B00BEF26F00DEF26F010EF16
:104C180026F0000E32EF26F080A415EF26F017EFED
:104C280026F0DDEF25F0E5EC2CF00001A551895DBB
:104C3800936FA6518A59946FA7518B59956FA851B4
:104C48008C59966F240E976FF40E986F000E996F1B
:104C5800000E9A6FD7EC29F0000193511200000E54
:104C680000018E6F8CBF3DEF26F03BEF26F043EF3F
:104C780026F08B6D8C1FD8B08C2B010E8E6F8ABFDF
:104C88004AEF26F048EF26F050EF26F0896D8A1F8C
:104C9800D8B08A2B010E8E1B000E906F000E8F6FFE
:104CA8008B518C11D8B45BEF26F05DEF26F085EFC1
:104CB80026F0010E8D6F65EF26F0D8908B378C3774
:104CC8008D2B8CAF6AEF26F06CEF26F061EF26F0A3
:104CD800D8908F3790378B51895D8C518A59D8A0DD
:104CE80078EF26F07AEF26F07FEF26F08B51895F78
:104CF8008C518A5B8F81D8908C338B338D2F6CEFDE
:104D080026F08E51D8B48BEF26F08DEF26F091EF78
:104D180026F08F6D901FD8B0902B8FC089F090C06F
:104D28008AF012000001BF29D8A49DEF26F09FEF5A
:104D380026F0A1EF26F0F7EF26F0AD51AE11D8A47A
:104D4800A8EF26F0AAEF26F0ADEF26F0BF69F7EF3F
:104D580026F002D8BEEF26F00500FA6EAD51FD6EC2
:104D6800AE51FE6EFF6AFA50C1C0D6F1BEC0D7F18F
:104D7800BF5112000101E06FDEEF26F00001C051C3
:104D8800D8B4C9EF26F0CBEF26F0AAEF26F0C12B56
:104D9800020EC165D2EF26F0D4EF26F0D6EF26F04A
:104DA800AAEF26F0000EBE6FF7EF26F00001BE2B2B
:104DB800F7EF26F0E051DE6FDF6BDF51000AD8B461
:104DC800E8EF26F0F7EF26F0DE51000AD8B4C2EF7C
:104DD80026F0010AD8B4F7EF26F0030AD8B4DAEFC0
:104DE80026F0F7EF26F0120000018B6F32EF27F064
:104DF800600E896F0F0E8A6F56EF27F0300E896F9D
:104E08000F0E8A6F56EF27F0800E896F0E0E8A6F8D
:104E180056EF27F0900E896F0E0E8A6F56EF27F027
:104E2800A00E896F0E0E8A6F56EF27F0B00E896FAD
:104E38000E0E8A6F56EF27F0C00E896F0E0E8A6F1E
:104E480056EF27F0D00E896F0E0E8A6F56EF27F0B7
:104E5800000E896F000E8A6F56EF27F000018B5104
:104E6800000AD8B4FCEF26F0010AD8B402EF27F004
:104E7800030AD8B408EF27F0010AD8B40EEF27F0D8
:104E8800070AD8B414EF27F0010AD8B41AEF27F0AC
:104E9800030AD8B420EF27F0010AD8B426EF27F088
:104EA8002CEF27F01200B3C0F6FFB4C0F7FFF86A82
:104EB800000EF86E0001C2B164EF27F066EF27F02C
:104EC80068EF27F0B5EF27F0C2EC33F00009D8B44B
:104ED80070EF27F072EF27F068EF27F00001C2A308
:104EE80078EF27F07AEF27F07CEF27F081EC2EF0AF
:104EF800000EF2BE010E00018A6FF29EF29C000EB7
:104F08008B6F000E8B25D96EDA6A010EDA22DF501C
:104F1800F56E0D0000018B2B3F0E8B6596EF27F089
:104F280098EF27F085EF27F0B3C0F6FFB4C0F7FF7E
:104F3800F86A000EF86E7F8E7F9C7F987F84550EEE
:104F48007E6EAA0E7E6E7F827F948A51D8B4AFEFB0
:104F580027F0B1EF27F0B3EF27F0F28EF28C000EB6
:104F6800C26F12000001626FF0EF27F0600E606FF1
:104F78000F0E616F14EF28F0300E606F0F0E616F27
:104F880014EF28F0800E606F0E0E616F14EF28F09A
:104F9800900E606F0E0E616F14EF28F0A00E606F18
:104FA8000E0E616F14EF28F0B00E606F0E0E616F79
:104FB80014EF28F0C00E606F0E0E616F14EF28F02A
:104FC800D00E606F0E0E616F14EF28F0000E606F48
:104FD800000E616F14EF28F000016251000AD8B486
:104FE800BAEF27F0010AD8B4C0EF27F0030AD8B403
:104FF800C6EF27F0010AD8B4CCEF27F0070AD8B4D7
:10500800D2EF27F0010AD8B4D8EF27F0030AD8B4B2
:10501800DEEF27F0010AD8B4E4EF27F0EAEF27F033
:10502800120080B41AEF28F01CEF28F072EF28F075
:105038001E0ECFEC25F00101CD6FCD51D8A427EF7E
:1050480028F029EF28F02DEF28F072EF28F072EF02
:1050580028F0010ECD6533EF28F035EF28F041EF49
:1050680028F0060ECD613BEF28F03DEF28F041EF28
:1050780028F0C6EC33F072EF28F0090ECD6547EF43
:1050880028F049EF28F072EF28F0040EDEEC1EF04D
:10509800050E6BEC25F00101CD6FCD51D8A457EF6B
:1050A80028F059EF28F05BEF28F072EF28F0050E92
:1050B800CFEC25F00101CD6F010ECD6566EF28F02C
:1050C80068EF28F02BEF28F0040ECD616EEF28F082
:1050D80070EF28F02BEF28F0B2EC20F01200036EEE
:1050E800ACEF28F0600E016E0F0E026ECFEF28F0C5
:1050F800300E016E0F0E026ECFEF28F0800E016E9B
:105108000E0E026ECFEF28F0900E016E0E0E026E9C
:10511800CFEF28F0A00E016E0E0E026ECFEF28F032
:10512800B00E016E0E0E026ECFEF28F0C00E016EAB
:105138000E0E026ECFEF28F0D00E016E0E0E026E2C
:10514800CFEF28F0000E016E000E026ECFEF28F0B0
:105158000350000AD8B476EF28F0010AD8B47CEFDF
:1051680028F0030AD8B482EF28F0010AD8B488EFEF
:1051780028F0070AD8B48EEF28F0010AD8B494EFC3
:1051880028F0030AD8B49AEF28F0010AD8B4A0EF9F
:1051980028F0A6EF28F0120000018951D96EDA6ACA
:1051A800020ED9268951E16EE26A030EE126DE502D
:1051B800E618D8A4E2EF28F0E4EF28F0EAEF28F0A8
:1051C800000E896F000E8A6F27EF29F08951D96E7A
:1051D800DA6A020ED926DF508B6F8B51090DF3CF97
:1051E8008CF0F4CF8DF08951D96EDA6ADECF8EF06B
:1051F800DDCF8FF08C518E25906F8D518F21916F5F
:105208008951D96EDA6A020ED926DF2A8951D96EF8
:10521800DA6A040ED9268951E16EE26A020EE126A5
:10522800DE50E65CD8A01BEF29F01DEF29F023EF34
:1052380029F08951D96EDA6A020ED926DF6A90C040
:1052480089F091C08AF0120000016051D96EDA6AC3
:10525800020ED9266051E16EE26A030EE126DE50A5
:10526800E618D8A43AEF29F03CEF29F042EF29F0EC
:10527800000E606F000E616F7FEF29F06051D96EEC
:10528800DA6A020ED926DF50626F6251090DF3CF38
:1052980063F0F4CF64F06051D96EDA6ADECF65F05E
:1052A800DDCF66F063516525676F64516621686FCD
:1052B8006051D96EDA6A020ED926DF2A6051D96E9A
:1052C800DA6A040ED9266051E16EE26A020EE1261E
:1052D800DE50E65CD8A073EF29F075EF29F07BEF7C
:1052E80029F06051D96EDA6A020ED926DF6A67C0E2
:1052F80060F068C061F012000150D96EDA6A020EDF
:10530800D9260150E16EE26A030EE126DE50E61866
:10531800D8A491EF29F093EF29F099EF29F0000E26
:10532800016E000E026ED6EF29F00150D96EDA6ACE
:10533800020ED926DF50036E0350090DF3CF04F097
:10534800F4CF05F00150D96EDA6ADECF06F0DDCF72
:1053580007F004500624086E05500720096E015016
:10536800D96EDA6A020ED926DF2A0150D96EDA6AB6
:10537800040ED9260150E16EE26A020EE126DE50E3
:10538800E65CD8A0CAEF29F0CCEF29F0D2EF29F0DB
:105398000150D96EDA6A020ED926DF6A08C001F018
:1053A80009C002F01200000E00019B6F000E9C6FF6
:1053B800000E9D6F000E9E6F9751981199119A11CA
:1053C800D8B4E9EF29F0EBEF29F021EF2AF0010E2C
:1053D8009F6FF5EF29F0D8909737983799379A3714
:1053E8009F2B9AAFFAEF29F0FCEF29F0EFEF29F0A5
:1053F800D8909B379C379D379E379751935D98512E
:105408009459995195599A519659D8A00EEF2AF066
:1054180010EF2AF019EF2AF09751935F9851945B97
:105428009951955B9A51965B9B81D8909A339933A1
:10543800983397339F2FFCEF29F09BC093F09CC0C3
:1054480094F09DC095F09EC096F01200020E0101E6
:10545800D76531EF2AF033EF2AF036EF2AF0000E45
:1054680076EF2AF0BAC0CFF1B9C0D0F1D729D16F01
:10547800D751020DB90EF324F66EFF0EF420F76E25
:10548800F86A000EF8220900F5CFD8F10900F5CF27
:10549800D9F1D8C1F6FFD9C1F7FFF86A0800F5CFEE
:1054A800D2F1D751020DB90EF324F66EFF0EF42097
:1054B800F76EF86A000EF8220900F5CFDAF1090054
:1054C800F5CFDBF1010EDA27000EDB23DAC1F6FF98
:1054D800DBC1F7FFF86A0800F5CFD3F1AC0E03EC97
:1054E80033F0020E12000001A46FA4C0C5F19CC0E5
:1054F800C4F19DC0C6F19EC0C7F19FC0C8F1A0C04D
:10550800C9F1A1C0CAF1A2C0CBF1A3C0CCF100017E
:10551800BB51BC11D8B493EF2AF095EF2AF0C1EF34
:105528002AF0BBC0F6FFBCC0F7FFF86A0900F550C7
:105538000900F510D8B4A3EF2AF0A5EF2AF0C1EFBF
:105548002AF0C40E956F010E966FBBC0F6FFBCC063
:10555800F7FFF86A0900F5CFCDF10900F5CFCEF1D4
:1055680002D8C1EF2AF00500FA6E0101CD51FD6E97
:10557800CE51FE6EFF6AFA5012001200000EF2BE03
:10558800010E00018E6F00018C51756E8BC074FF87
:105598008DC073FF7F9E7F9C7F84F29EF29C550E88
:1055A8007E6EAA0E7E6E7F827FB2DDEF2AF0DFEF7D
:1055B8002AF0D8EF2AF0B7ACE4EF2AF0E6EF2AF0A9
:1055C800DFEF2AF0B79C00018E51D8B4EEEF2AF035
:1055D800F0EF2AF0F2EF2AF0F28EF28C7F948BC073
:1055E80089F08CC08AF05AEC32F000018D19D8A4E9
:1055F80000EF2BF002EF2BF004EF2BF00AEF2BF06B
:105608003F4A402A98EC33F0C7EF2AF0000E120008
:1056180000018B6F000E00018C6F8C51020DB90ECA
:10562800F324F66EFF0EF420F76EF86A000EF822E7
:105638000900F5500900F510D8B425EF2BF027EF35
:105648002BF04AEF2BF08C51020DB90EF324F66EB5
:10565800FF0EF420F76EF86A000EF8220900F5CF65
:1056680089F00900F5CF8AF089C0F6FF8AC0F7FFF4
:10567800F86A0800F5508B19D8A445EF2BF047EFCE
:105688002BF04AEF2BF0010E54EF2BF08C2B020E6F
:105698008C6551EF2BF053EF2BF011EF2BF0000E30
:1056A800120000018B6F000E00018C6F8C51020DEF
:1056B800B90EF324F66EFF0EF420F76EF86A000EAA
:1056C800F8220900F5500900F510D8B46EEF2BF058
:1056D80070EF2BF093EF2BF08C51020DB90EF324E1
:1056E800F66EFF0EF420F76EF86A000EF822090035
:1056F800F5CF89F00900F5CF8AF089C0F6FF8AC096
:10570800F7FFF86A0800F5508B19D8A48EEF2BF034
:1057180090EF2BF093EF2BF08C519DEF2BF08C2B0F
:10572800020E8C659AEF2BF09CEF2BF05AEF2BF0C2
:10573800FF0E120000019E6F010E00019E65A7EF8B
:105748002BF0A9EF2BF0ACEF2BF00A0EE4EF2BF0C7
:105758009AC089F09E513FEC32F00009D8A4B7EF07
:105768002BF0B9EF2BF0BCEF2BF00C0EE4EF2BF085
:1057780000019E51B50FD96EDA6ADF509D6F9E51B8
:10578800B50FD96EDA6A9AC0DFFF000E9E259B6FAF
:105798009C6B020E9C239BC093F09CC094F0956B6D
:1057A80094BF95079AC096F0000E7FEC2FF09AC030
:1057B80089F09DC08AF000019E51C4EC33F0000EC0
:1057C8001200E5EC2CF033500001895D996F3450DC
:1057D8008A599A6F35508B599B6F36508C599C6FEC
:1057E800010E88EC30F0000189C08DF08AC08EF07F
:1057F800000E8EBFFF0E8F6F906F6A0E916F180E9E
:10580800926F000E936F000E946F4BEC2EF0000118
:1058180099518D5D9A518E599B518F599C51905930
:10582800D8B019EF2CF01BEF2CF02BEF2CF0CD1F7C
:10583800CDC089F0000E41EC17F0E5EC2CF089C0E2
:1058480033F08AC034F08BC035F08CC036F01200CB
:10585800000E00018D6F060E0CEC2BF00009D8B479
:1058680038EF2CF03AEF2CF03CEF2CF000018D8152
:10587800050E0CEC2BF00009D8B445EF2CF047EFDF
:105888002CF049EF2CF000018D8300018D51D8A434
:1058980050EF2CF052EF2CF053EF2CF08D890A0EBC
:1058A8000CEC2BF00009D8B45CEF2CF05EEF2CF078
:1058B80060EF2CF000018D870001C6A166EF2CF087
:1058C80068EF2CF069EF2CF08D8B8D8D8D511200C7
:1058D800000E096E000E0A6EF29A000EF2B4010E66
:1058E800066ED6CF07F0D7CF08F0000EF2B4010E3F
:1058F800056E05500618D8A484EF2CF086EF2CF01E
:1059080071EF2CF00650D8B48CEF2CF08EEF2CF001
:105918009AEF2CF0F2940001CA2BCA51D8A497EF41
:105928002CF099EF2CF09AEF2CF0C92B0001CA51FA
:105938000926C9510A26F28A07C001F008C002F0F8
:1059480009C003F00AC004F0120000019A6F0001B8
:105958009A51D8B4B2EF2CF0B4EF2CF0E4EF2CF05D
:10596800640E9A61BAEF2CF0BCEF2CF0E4EF2CF047
:105978009AC0CCF0F00E0F01111700019A39E846D1
:105988001F0B0F0B0F01111322CF12FFF00E01177F
:1059980000019A39E8461F0B0F0B0F01011322CFA4
:1059A80002FFFE0E0001936F030E946F000E956FB9
:1059B8009AC096F0000E7FEC2FF00101C04BC12B6E
:1059C8001200000E0001916F000E926FF29A000E05
:1059D800F2B4010E8E6FD6CF8FF0D7CF90F0000EB5
:1059E800F2B4010E8D6F8D518E19D8A4FEEF2CF0F4
:1059F80000EF2DF0EBEF2CF08E51D8B406EF2DF020
:105A080008EF2DF013EF2DF0F294CA2BCA51D8A449
:105A180010EF2DF012EF2DF013EF2DF0C92BCA5116
:105A28009127C9519227F28A8FC089F090C08AF0D5
:105A380091C08BF092C08CF012000F0120AB27EFC1
:105A48002DF029EF2DF039EF2DF0010E386E000EF4
:105A58002F6E000E306E000E316E000E326E2097E3
:105A68000101BA4BBB2BA2EC33F00F0120A93FEF89
:105A78002DF041EF2DF051EF2DF0010E386E000E94
:105A88002F6E000E306E000E316E000E326E2097B3
:105A98000101A64BA72BA2EC33F03850D8B457EF2E
:105AA8002DF059EF2DF05BEF2DF0ACEC1CF0779A50
:105AB8001200000E0001686F000E696FF29A000E66
:105AC800F2B4010E656FD6CF66F0D7CF67F0000E3F
:105AD800F2B4010E646F64516519D8A476EF2DF005
:105AE80078EF2DF063EF2DF06551D8B47EEF2DF0EF
:105AF80080EF2DF08BEF2DF0F294CA2BCA51D8A469
:105B080088EF2DF08AEF2DF08BEF2DF0C92BCA51BD
:105B18006827C9516927F28A66C060F067C061F0DA
:105B280068C062F069C063F012000F0120AB9FEFFC
:105B38002DF0A1EF2DF0B1EF2DF0010E386E000E13
:105B48002F6E000E306E000E316E000E326E2097F2
:105B58000101BA4BBB2BACEC33F00F0120A9B7EF16
:105B68002DF0B9EF2DF0C9EF2DF0010E386E000EB3
:105B78002F6E000E306E000E316E000E326E2097C2
:105B88000101A64BA72BACEC33F03850D8B4CFEFBB
:105B98002DF0D1EF2DF0D3EF2DF07CEC1DF0779A9E
:105BA80012000001926FF9EF2DF08DC089F08EC0C0
:105BB8008AF05AEC32F00001906F90518D6F8E6B25
:105BC8000FEF2EF08DC089F08EC08AF009EC30F00E
:105BD8000001906F90518D6F8E6B0FEF2EF0FF0EBE
:105BE8008E6F020E8D6F0FEF2EF000019251906FA5
:105BF800916B9151000AD8B404EF2EF0F3EF2DF019
:105C08009051000AD8B4D9EF2DF0010AD8B4E6EFC4
:105C18002DF0F3EF2DF01200000E0001BA6F000E08
:105C2800B96FFC0E936F030E946F000E956FBAC098
:105C380096F0000E7FEC2FF0FD0E0001936F030E1F
:105C4800946F000E956FB9C096F0000E7FEC2FF0A0
:105C58000001C869C769FB0E936F030E946F000EAD
:105C6800956FC8C096F0000E7FEC2FF0000E000173
:105C7800C66FC6C0C5F0F90E936F030E946F000E81
:105C8800956FC6C096F0000E7FEC2FF01200000E44
:105C98000001956F000E966F000E976F000E986FBB
:105CA8008DA159EF2EF05BEF2EF063EF2EF091519E
:105CB8009527925196239351972394519823D890DE
:105CC8009137923793379437D89090338F338E33F8
:105CD8008D338D518E118F119011D8A476EF2EF03F
:105CE80078EF2EF054EF2EF095C08DF096C08EF020
:105CF80097C08FF098C090F01200C2EC33F0000902
:105D0800D8B489EF2EF08BEF2EF081EF2EF0000E35
:105D1800F2BE010E0001896FB3C0F6FFB4C0F7FFF1
:105D2800F86A000EF86E7F8E7F9C7F847F88F29ED3
:105D3800F29C550E7E6EAA0E7E6E7F827FB2A7EF12
:105D48002EF0A9EF2EF0A2EF2EF07F9400018951DA
:105D5800D8B4B1EF2EF0B3EF2EF0B5EF2EF0F28EEF
:105D6800F28C12002F50301031103210D8B4BFEF1F
:105D78002EF0C1EF2EF0E9EF2EF05DEC2DF02F5054
:105D88000001605D716F30506159726F3150625916
:105D9800736F32506359746F745173110BE1250E90
:105DA800715DF40E7259D8A0DCEF2EF0DEEF2EF004
:105DB800E9EF2EF0010E386E0F012097ACEC1CF0C5
:105DC8000101A64BA72BA2EC33F012002F50301084
:105DD80031103210D8B4F3EF2EF0F5EF2EF01CEF9F
:105DE8002FF06CEC2CF02F50015C126E30500258E2
:105DF800136E31500358146E32500458156E1550F6
:105E080014100BE1250E125CF40E1358D8A00FEFF6
:105E18002FF011EF2FF01CEF2FF0010E386E0F014D
:105E280020977CEC1DF00101A64BA72BACEC33F0BE
:105E38001200010E0001976F000E9725936F946B67
:105E4800020E942393C08DF094C08EF08F6B8EBF9A
:105E58008F07000ED5EC2DF08DC095F08EC096F012
:105E6800000196BF3CEF2FF03AEF2FF03EEF2FF0F6
:105E780044EF2FF09751B50FD96EDA6A95C0DFFF5E
:105E8800972B010E97654BEF2FF04DEF2FF020EF7A
:105E98002FF012000001906F90C0BFF000018D51EB
:105EA800D8A459EF2FF05BEF2FF061EF2FF0010E20
:105EB800C06F000EC16F78EF2FF0000EC06F8D51CC
:105EC800D8B469EF2FF06BEF2FF073EF2FF0030EBC
:105ED8008D6571EF2FF073EF2FF076EF2FF0BF691C
:105EE8007EEF2FF08D05C16F000EBE6F8EC0ADF036
:105EF8008FC0AEF012000001996F97EF2FF093C09A
:105F08008BF094C08CF096C08DF0C2EC2AF0ADEF07
:105F18002FF093C08CF094C08DF096C08EF0B5EC45
:105F280021F0ADEF2FF000019951976F986B9851C0
:105F3800000AD8B4A2EF2FF0ADEF2FF09751000A66
:105F4800D8B483EF2FF0010AD8B48DEF2FF0ADEF5E
:105F58002FF012009B8CD08E8EEC33F0FA0E0001DD
:105F68008D6F030E8E6F000E8F6F000ED5EC2DF027
:105F780000018D058E11D8B4C4EF2FF0C6EF2FF0B5
:105F8800C8EF2FF0B2EC20F034EC22F0F28EF28C55
:105F980015EC28F0F29EF29CAAEC31F0F28EF28C0D
:105FA800B9EC0CF0E5EC2BF0D4EF2FF00EEF00F08D
:105FB800010E0101D765E3EF2FF0E5EF2FF0E8EFD1
:105FC8002FF0000E08EF30F0D72988EC30F089C0A8
:105FD800D8F18AC0D9F10101D9BFF7EF2FF0F5EF59
:105FE8002FF0F9EF2FF0E5EF2FF0BAC0CFF1B9C0DD
:105FF800D0F1D729D16FD8C1D2F1970EBBEC32F0CE
:106008000001D34BD42B020E1200C00E00018915DB
:106018008B6FFF0E8A158C6FB3518B1907E1B45142
:106028008C19D8A41AEF30F01CEF30F02BEF30F0B9
:106038003F0E89158B6F000E8A158C6F000E8B250D
:10604800D96E010E8C21DA6EDF5034EF30F089C042
:10605800F6FF8AC0F7FFF86A000EF86E0800F550E0
:106068001200800E7F6EB3C0F6FFB4C0F7FFF86A67
:10607800000EF86E000E0001896F09000000000E86
:1060880000018925D96EDA6A010EDA22F5CFDFFF21
:10609800892B3F0E896553EF30F055EF30F041EF13
:1060A80030F0B3C0F6FFB4C0F7FFF86A000EF86E20
:1060B800000EC26F12008BC092F08CC093F089C0A2
:1060C80090F08AC091F079EF30F092C0D9FF93C078
:1060D800DAFFDF508F6F924B932B90C0D9FF91C09E
:1060E800DAFF8FC0DFFF904B912B00018D07D8A0FE
:1060F8008E078D2906E18E29D8A485EF30F087EF29
:1061080030F069EF30F0120000018C6F00018C5103
:10611800D8A491EF30F093EF30F099EF30F0000E03
:106128008A6F010E896FB0EF30F0010E8C659FEF1A
:1061380030F0A1EF30F0A7EF30F0FF0E8A6FF60EC7
:10614800896FB0EF30F08C51B50FD96EDA6ADF5035
:106158008B6F8B51896F8A6B12000001896F000E5B
:1061680000018A6F400E8B6F8A2BD8908B338B512E
:10617800D8A4C1EF30F0C3EF30F0B8EF30F08AC0E8
:10618800D5FFD59CD59A000ED76E000ED66E89B174
:1061980002D0F19401D0F184F294F28AD58E000EE7
:1061A8000001CA6F000EC96F120000018D6F000157
:1061B8008D51D8B4E2EF30F0E4EF30F0ECEF30F08E
:1061C800100E8D65EAEF30F0ECEF30F0F2EF30F0C2
:1061D800000E896F000E8A6FFEEF30F08D518B6FC5
:1061E8008C6BD8908B378C37A20E8B25896F010E5C
:1061F8008C218A6F1200010E00019C6F000E9C25F5
:106208009A6F9B6B020E9B239AC093F09BC094F0ED
:10621800956B94BF95079C516CEC33F00001966F19
:10622800000E7FEC2FF000019C2B010E9C651FEFE8
:1062380031F021EF31F002EF31F012004AA227EFDE
:1062480031F0E9EF31F077A02CEF31F02EEF31F09B
:1062580030EF31F002EC1BF077AA35EF31F037EF71
:1062680031F039EF31F021EC2DF077A83EEF31F025
:1062780040EF31F042EF31F0ACEC1CF0B6EC2EF010
:10628800120000018C6F00018C51D8B44EEF31F030
:1062980050EF31F058EF31F0060E8C6556EF31F0C3
:1062A80058EF31F05EEF31F0000E896F000E8A6F03
:1062B80066EF31F08C51020DF350370F8B6F8BC0A6
:1062C80089F08A6B120000018C6F00018C51D8B4E0
:1062D80070EF31F072EF31F07AEF31F0020E8C6529
:1062E80078EF31F07AEF31F080EF31F0000E896FFE
:1062F800000E8A6F88EF31F08C51020DF350D10FE8
:106308008B6F8BC089F08A6B120002EE0BF011EED6
