:040000000EEF00F00F
:0400080084EF21F070
:0800180043EF21F088EF2EF008
:10084800424C494E4B2020000001C551D8A42FEF3F
:1008580004F031EF04F085EF05F0F2EF04F0D0C1B9
:10086800D9FFD1C1DAFF030EDF603DEF04F03FEF9F
:1008780004F04EEF04F0B7C0C8F1B6C0C9F1710E6C
:10088800CA6F010ECB6F010ECC6FAF0EE7EC2FF0E5
:1008980087EF04F020EE02F0D051D926D151DA22A8
:1008A800DF500001B76F010120EE03F0D051D926C7
:1008B800D151DA22DF500001B66FFC0E936F030EA0
:1008C800946F000E956FB7C096F0000E19EC2DF0DE
:1008D800FD0E0001936F030E946F000E956FB6C066
:1008E80096F0000E19EC2DF0010E0001C56FB7C08F
:1008F800C8F1B6C0C9F1520ECFEC2FF00001D34BAE
:10090800D42BCAEC2EF0010E6EEF0AF0A50EC86FBC
:10091800610EC96FFC0ECA6F000ECB6F000ECC6F54
:10092800000ECD6F010ECE6FEF0E6FEC2FF087EF3C
:1009380004F0480EF66E080EF76E000EF86E08000A
:10094800F5CFC8F1490EF66E080EF76E000EF86E78
:100958000800F5CFC9F14A0EF66E080EF76E000EC4
:10096800F86E0800F5CFCAF14B0EF66E080EF76E5A
:10097800000EF86E0800F5CFCBF14C0EF66E080E9F
:10098800F76E000EF86E0800F5CFCCF14D0EF66E3E
:10099800080EF76E000EF86E0800F5CFCDF14E0E7A
:1009A800F66E080EF76E000EF86E0800F5CFCEF161
:1009B800E20E6FEC2FF087EF04F0000EC86F000E08
:1009C800C96FA50ECA6FFC0ECB6FBCEC29F00101F4
:1009D800CC6FB60EE7EC2FF087EF04F0010120EEA4
:1009E80001F0D051D926D151DA22DF50D26FD36B22
:1009F800D351000AD8B403EF05F016EF05F0D25131
:100A08000D0AD8B4E1EF04F01D0AD8B48AEF04F057
:100A1800010AD8B49DEF04F0530AD8B433EF04F0B8
:100A280016EF05F0000E6EEF0AF0B7C0C8F1B6C0B9
:100A3800C9F1A50ECA6FFC0ECB6FBCEC29F0010101
:100A4800CC6FB60EE7EC2FF087EF04F0D0C1D9FFDA
:100A5800D1C1DAFF040EDF6034EF05F036EF05F0A0
:100A680045EF05F0B7C0C8F1B6C0C9F1760ECA6F38
:100A7800010ECB6F010ECC6FAF0EE7EC2FF087EFB6
:100A880004F020EE02F0D051D926D151DA22DF50FD
:100A9800D8A451EF05F053EF05F0A1EF05F020EED3
:100AA80003F0D051D926D151DA22DF50D8A45FEF14
:100AB80005F061EF05F0A1EF05F020EE04F0D0514C
:100AC800D926D151DA22DF50F36F0C0EF319D8A4CE
:100AD80070EF05F072EF05F076EF05F00001C385C1
:100AE80087EF04F00D0EF319D8A47DEF05F07FEF22
:100AF80005F083EF05F00001C39587EF04F0A1EF3F
:100B080005F0010120EE01F0D051D926D151DA22A9
:100B1800DF50D26FD36BD351000AD8B496EF05F0EB
:100B2800A1EF05F0D2510D0AD8B419EF05F07B0AF0
:100B3800D8B42AEF05F0A1EF05F0D0C1D9FFD1C193
:100B4800DAFF030EDF60ABEF05F0ADEF05F0AFEFB6
:100B580005F016EF05F020EE02F0D051D926D1515C
:100B6800DA22DE500001B719D8B4BDEF05F0BFEFA7
:100B780005F0C1EF05F016EF05F0010120EE03F0D6
:100B8800D051D926D151DA220001B651DE18D8B495
:100B9800D0EF05F0D2EF05F042EF0AF016EF05F0BE
:100BA800D0C1D9FFD1C1DAFF040EDF60DEEF05F056
:100BB800E0EF05F0EFEF05F0B7C0C8F1B6C0C9F136
:100BC800730ECA6F010ECB6F010ECC6FAF0EE7EC40
:100BD8002FF087EF04F020EE04F0D051D926D15140
:100BE800DA22140EDF64FBEF05F0FDEF05F016EFD7
:100BF80006F0B7C0C8F1B6C0C9F1090ECA6F6F0ECA
:100C0800B7EC2FF0B7C0C8F1B6C0C9F1730E010137
:100C1800CA6F010ECB6F090ECC6FAF0EE7EC2FF049
:100C280087EF04F020EE04F0D051D926D151DA2212
:100C3800DF503AEC1EF00101F06FB7C0C8F1B6C042
:100C4800C9F120EE04F0D051D926D151DA22DF5073
:100C5800CA6FF0C1CBF19B0E9FEC2FF0010120EE83
:100C680004F0D051D926D151DA22DF50D8A43FEF71
:100C780006F041EF06F087EF04F0010E73EC29F05F
:100C880000018D6F0C0E8E6F5E0E8F6F070EE8ECF5
:100C98002CF087EF04F0B6C0B4F0B7C0B5F0CCECD8
:100CA8001EF00001B451B511D8B45DEF06F05FEF46
:100CB80006F087EF04F0B5C0C8F1B4C0C9F1510E11
:100CC800CFEC2FF087EF04F0D0C1D9FFD1C1DAFF04
:100CD800050EDF6072EF06F074EF06F083EF06F0A2
:100CE800B7C0C8F1B6C0C9F1870ECA6F010ECB6F85
:100CF800010ECC6FAF0EE7EC2FF087EF04F020EE7B
:100D080004F0D051D926D151DA22DF50D8A48FEF80
:100D180006F091EF06F09DEF06F0000E00018D6FD2
:100D28009C0E8E6F3E0E8F6F040EE8EC2CF087EF52
:100D380004F020EE04F0D051D926D151DA22020E67
:100D4800DF64A9EF06F0ABEF06F0BAEF06F0B7C024
:100D5800C8F1B6C0C9F1870ECA6F010ECB6FFC0E81
:100D6800CC6FAF0EE7EC2FF087EF04F020EE04F025
:100D7800D051D926D151DA22DF50D26FD36BD89017
:100D8800D237D337FE0ED225D46FFF0ED321D56FBD
:100D9800D20ED425F66EFF0ED521F76EF86A000E36
:100DA800F8220900F5CFD6F10900F5CFD7F1100EDA
:100DB800D627000ED723D6C1F6FFD7C1F7FFF86AAA
:100DC8000900F5500900F510D8A4EDEF06F0EFEF93
:100DD80006F0FCEF06F0B7C0C8F1B6C0C9F1870E3F
:100DE800CA6F010ECB6FFD0ECC6FAF0EE7EC2FF084
:100DF800010120EE05F0D051D926D151DA22DF5079
:100E0800D8A409EF07F00BEF07F01DEF07F020EE6D
:100E180004F0D051D926D151DA22DF5000018D6F6C
:100E28009C0E8E6F3E0E8F6F040EE8EC2CF087EF51
:100E380004F020EE04F0D051D926D151DA22DF5047
:100E4800D26FD36BD890D237D337FE0ED225D46F5A
:100E5800FF0ED321D56FD20ED425F66EFF0ED52105
:100E6800F76EF86A000EF8220900F5CFD6F10900EE
:100E7800F5CFD7F1100ED627000ED723D6C1F6FF2F
:100E8800D7C1F7FFF86A0900F5CFD8F10900F5CF07
:100E9800D9F102D860EF07F00500FA6ED851FD6E5F
:100EA800D951FE6EFF6AFA5020EE05F0D051D926CE
:100EB800D151DA22DF50120089C0F1F18AC0F2F173
:100EC8000101F151F211D8A46CEF07F06EEF07F0B1
:100ED8007DEF07F0B7C0C8F1B6C0C9F1870ECA6F79
:100EE800010ECB6FFD0ECC6FAF0EE7EC2FF087EF46
:100EF80004F0B7C0C8F1B6C0C9F120EE04F0D05173
:100F0800D926D151DA22DF50CA6F20EE05F0D05130
:100F1800D926D151DA22DF50CB6F20EE01F0F15102
:100F2800D926F251DA22DF50CC6FF1C1D9FFF2C1D4
:100F3800DAFFDF50CD6FC70E87EC2FF087EF04F094
:100F4800D0C1D9FFD1C1DAFF040EDF60AEEF07F0E0
:100F5800B0EF07F0BFEF07F0B7C0C8F1B6C0C9F1EE
:100F6800780ECA6F010ECB6F010ECC6FAF0EE7EC97
:100F78002FF087EF04F020EE04F0D051D926D1519C
:100F8800DA22DF50D8A4CBEF07F0CDEF07F0E6EF79
:100F980007F0B7C0C8F1B6C0C9F1000ECA6F000E9D
:100FA800CB6F020ECC6FAC0EE7EC2FF0010E0001F8
:100FB8008D6F900E8E6F500E8F6F030EE8EC2CF035
:100FC80087EF04F020EE04F0D051D926D151DA226F
:100FD800020EDF64F2EF07F0F4EF07F003EF08F01A
:100FE800B7C0C8F1B6C0C9F1780ECA6F010ECB6F91
:100FF800FC0ECC6FAF0EE7EC2FF087EF04F020EE7D
:1010080004F0D051D926D151DA22DF50D26FD36BF8
:10101800D890D237D337FE0ED225D46FFF0ED32106
:10102800D56FD20ED425F66EFF0ED521F76EF86A6D
:10103800000EF8220900F5CFD6F10900F5CFD7F157
:101048000E0ED627000ED723D6C1F6FFD7C1F7FF5D
:10105800F86A0900F5500900F510D8A436EF08F031
:1010680038EF08F078EF08F0B7C0C8F1B6C0C9F19A
:1010780020EE04F0D051D926D151DA22DF50CA6FC0
:1010880020EE04F0D051D926D151DA22DF50D26FA8
:10109800D36BD890D237D337FE0ED225D46FFF0E3C
:1010A800D321D56FD20ED425F66EFF0ED521F76E5B
:1010B800F86A000EF8220900F5CFD6F10900F5CF3D
:1010C800D7F1D6C1F6FFD7C1F7FFF86A0800F5CF08
:1010D800CBF1000ECC6F000ECD6F000ECE6FE70E79
:1010E8006FEC2FF087EF04F0B7C0C8F1B6C0C9F1B4
:1010F80020EE04F0D051D926D151DA22DF50CA6F40
:1011080020EE04F0D051D926D151DA22DF50D26F27
:10111800D36BD890D237D337FE0ED225D46FFF0EBB
:10112800D321D56FD20ED425F66EFF0ED521F76EDA
:10113800F86A000EF8220900F5CFD6F10900F5CFBC
:10114800D7F1D6C1F6FFD7C1F7FFF86A0800F5CF87
:10115800CBF120EE04F0D051D926D151DA22DF505C
:10116800D86FD96BD890D837D937FE0ED825DA6F13
:10117800FF0ED921DB6FD20EDA25F66EFF0EDB21CA
:10118800F76EF86A000EF8220900F5CFDCF10900C5
:10119800F5CFDDF10E0EDC27000EDD23DCC1F6FFF6
:1011A800DDC1F7FFF86A0900F5CFDEF10900F5CFD8
:1011B800DFF102D8EAEF08F00500FA6EDE51FD6EA5
:1011C800DF51FE6EFF6AFA50010E12000101CC6F6A
:1011D80020EE04F0D051D926D151DA22DF50E06F49
:1011E800E16BD890E037E137FE0EE025E26FFF0EA5
:1011F800E121E36FD20EE225F66EFF0EE321F76ED2
:10120800F86A000EF8220900F5CFE4F10900F5CFDD
:10121800E5F10E0EE427000EE523E4C1F6FFE5C173
:10122800F7FFF86A0900F5CFE6F10900F5CFE7F115
:1012380002D829EF09F00500FA6EE651FD6EE75174
:10124800FE6EFF6AFA50020E12000101CD6F20EE09
:1012580004F0D051D926D151DA22DF50E86FE96B7A
:10126800D890E837E937FE0EE825EA6FFF0EE92146
:10127800EB6FD20EEA25F66EFF0EEB21F76EF86AD9
:10128800000EF8220900F5CFECF10900F5CFEDF1D9
:101298000E0EEC27000EED23ECC1F6FFEDC1F7FFB3
:1012A800F86A0900F5CFEEF10900F5CFEFF102D8A1
:1012B80068EF09F00500FA6EEE51FD6EEF51FE6E13
:1012C800FF6AFA50030E12000101CE6FE70E6FECB1
:1012D8002FF087EF04F0D0C1D9FFD1C1DAFF040E97
:1012E800DF6079EF09F07BEF09F08AEF09F0B7C00A
:1012F800C8F1B6C0C9F1760ECA6F010ECB6F010EE8
:10130800CC6FAF0EE7EC2FF087EF04F020EE04F07F
:10131800D051D926D151DA22DF50F36FB6C0B4F0DC
:10132800B7C0B5F0FCEF09F00101F351D8A49FEF65
:1013380009F0A1EF09F008EF0AF0000E0001C56FEF
:10134800C169B5C0C8F1B4C0C9F1760E0101CA6F50
:10135800010ECB6F000ECC6FAF0EE7EC2FF0B7C0CD
:10136800C8F1B6C0C9F1500ECFEC2FF085EF04F0EC
:101378000101F351D8A4C3EF09F0C5EF09F008EF54
:101388000AF0B7C0C8F1B6C0C9F1760ECA6F010E2F
:10139800CB6F000ECC6FAF0EE7EC2FF0B7C0C8F1E3
:1013A800B6C0C9F1500ECFEC2FF0000E0001B76F98
:1013B800B7C0B6F0FC0E936F030E946F000E956FD6
:1013C800B7C096F0000E19EC2DF0FD0E0001936FDA
:1013D800030E946F000E956FB6C096F0000E19ECD0
:1013E8002DF0000E0001C56F010EC16F85EF04F0EE
:1013F8000001C551000AD8B408EF0AF0FF0AD8B4B2
:1014080098EF09F0BCEF09F00C0E0101F319D8A40C
:1014180010EF0AF012EF0AF024EF0AF00001C3857A
:10142800B7C0C8F1B6C0C9F1760E0101CA6F010E86
:10143800CB6F000ECC6FAF0EE7EC2FF087EF04F008
:101448000D0EF319D8A42BEF0AF02DEF0AF016EFC2
:1014580005F00001C395B7C0C8F1B6C0C9F1760E52
:101468000101CA6F010ECB6F000ECC6FAF0EE7EC17
:101478002FF087EF04F0FF0087EF04F0010120EE62
:1014880001F0D051D926D151DA22DF50D26FD36B77
:10149800D351000AD8B453EF0AF016EF05F0D25131
:1014A8004F0AD8B44FEF06F0110AD8B43FEF0AF04C
:1014B8002D0AD8B4D4EF05F0050AD8B46FEF09F0B7
:1014C8000E0AD8B4A4EF07F0FF0AD8B468EF06F004
:1014D80016EF05F0120000018C6F100E00018C61F0
:1014E80078EF0AF07AEF0AF0B9EF0CF06AEF0BF038
:1014F8008C51040D030EF326000EF4228D0EF324F6
:10150800F66EFF0EF420F76EF86A000EF822080E49
:101518000800F56092EF0AF094EF0AF0B7EF0AF0CE
:101528008C51040D030EF326000EF4228D0EF324C5
:10153800F66EFF0EF420F76EF86A000EF822080027
:10154800F5CF8AF0010E8B6F8A2BADEF0AF0D89099
:101558008B378A2FABEF0AF000018B51FF0A0F017E
:101568005D1799EF0CF08C51040D030EF326000E55
:10157800F4228D0EF324F66EFF0EF420F76EF86A4F
:10158800000EF822100E0800F560CDEF0AF0CFEF3C
:101598000AF083EF0BF08C51040D030EF326000EB6
:1015A800F4228D0EF324F66EFF0EF420F76EF86A1F
:1015B800000EF8220800F5CF8AF0F80E8A27010EEF
:1015C8008B6F8A2BEAEF0AF0D8908B378A2FE8EFD7
:1015D8000AF000018B51FF0A0F015C1799EF0CF01C
:1015E8008C51040D030EF326000EF4228D0EF32405
:1015F800F66EFF0EF420F76EF86A000EF822080E59
:101608000800F5600AEF0BF00CEF0BF02EEF0BF073
:101618008C51040D030EF326000EF4228D0EF324D4
:10162800F66EFF0EF420F76EF86A000EF822080036
:10163800F5CF8AF0010E8B6F8A2B25EF0BF0D8902F
:101648008B378A2F23EF0BF000018B510F015D13AD
:1016580099EF0CF08C51040D030EF326000EF422C2
:101668008D0EF324F66EFF0EF420F76EF86A000E66
:10167800F822100E0800F56044EF0BF046EF0BF06F
:1016880083EF0BF08C51040D030EF326000EF422A9
:101698008D0EF324F66EFF0EF420F76EF86A000E36
:1016A800F8220800F5CF8AF0F80E8A27010E8B6F12
:1016B8008A2B61EF0BF0D8908B378A2F5FEF0BF0F6
:1016C80000018B510F015C1399EF0CF089518A6F5F
:1016D8008B6B8B51000AD8B474EF0BF099EF0CF0B8
:1016E8008A51000AD8B47CEF0AF0010AD8B47CEF1A
:1016F8000AF0030AD8B4F4EF0AF099EF0CF099EF66
:101708000CF08C51040D020EF326000EF4228D0EFF
:10171800F324F66EFF0EF420F76EF86A000EF82236
:101728000800F5CF8AF0010E8B6F8A2B9EEF0BF025
:10173800D8908B378A2F9CEF0BF000018B51FF0A52
:101748009216B9EF0CF08C51040D020EF326000E20
:10175800F4228D0EF324F66EFF0EF420F76EF86A6D
:10176800000EF8220800F5CF8AF0010E8B6F8A2B45
:10177800C0EF0BF0D8908B378A2FBEEF0BF000012B
:101788008B519212B9EF0CF089518A6F8B6B8B5188
:10179800000AD8B4D2EF0BF0B9EF0CF08A51000A66
:1017A800D8B485EF0BF0010AD8B4A7EF0BF0030A01
:1017B800D8B4B9EF0CF0B9EF0CF08C51040D020E4F
:1017C800F326000EF4228D0EF324F66EFF0EF4209D
:1017D800F76EF86A000EF8220800F5CF8AF0010EBD
:1017E8008B6F8A2BFAEF0BF0D8908B378A2FF8EF94
:1017F8000BF000018B51FF0A9316B9EF0CF08C51D6
:10180800040D020EF326000EF4228D0EF324F66E5C
:10181800FF0EF420F76EF86A000EF8220800F5CFE4
:101828008AF0010E8B6F8A2B1CEF0CF0D8908B3747
:101838008A2F1AEF0CF000018B519312B9EF0CF0BC
:1018480089518A6F8B6B8B51000AD8B42EEF0CF03C
:10185800B9EF0CF08A51000AD8B4E1EF0BF0010A95
:10186800D8B403EF0CF0030AD8B4B9EF0CF0B9EF11
:101878000CF08C51040D020EF326000EF4228D0E8E
:10188800F324F66EFF0EF420F76EF86A000EF822C5
:101898000800F5CF8AF0010E8B6F8A2B56EF0CF0FB
:1018A800D8908B378A2F54EF0CF000018B51FF0A28
:1018B8009416B9EF0CF08C51040D020EF326000EAD
:1018C800F4228D0EF324F66EFF0EF420F76EF86AFC
:1018D800000EF8220800F5CF8AF0010E8B6F8A2BD4
:1018E80078EF0CF0D8908B378A2F76EF0CF0000148
:1018F8008B519412B9EF0CF089518A6F8B6B8B5115
:10190800000AD8B48AEF0CF0B9EF0CF08A51000A3B
:10191800D8B43DEF0CF0010AD8B45FEF0CF0030A1D
:10192800D8B4B9EF0CF0B9EF0CF000018C51040DEC
:10193800010EF326000EF4228D0EF324F66EFF0E30
:10194800F420F76EF86A000EF8220800F550410AF4
:10195800D8B4C8EF0BF0030AD8B424EF0CF0010A8E
:10196800D8B480EF0CF0B9EF0CF0120075EC2AF047
:1019780027500001895D0101F46F285000018A5940
:101988000101F56F295000018B590101F66F2A50AA
:1019980000018C590101F76F0001BA51896F8A6BF8
:1019A8008B6B8C6B3E0E8D6F000E8E6F000E8F6FE3
:1019B800000E906F16EC2CF00101F4510001895DC6
:1019C8000101F55100018A590101F65100018B59B5
:1019D8000101F75100018C59D8B0F5EF0CF0F7EF81
:1019E8000CF003EF0DF0B4EC24F075EC2AF089C08C
:1019F80027F08AC028F08BC029F08CC02AF075EC3B
:101A08002AF0010150510001895D0101F46F515123
:101A180000018A590101F56F525100018B590101EA
:101A2800F66F535100018C590101F76FF751F61108
:101A38000BE1250EF45DF40EF559D8A026EF0DF054
:101A480028EF0DF034EF0DF075EC25F075EC2AF069
:101A580089C050F18AC051F18BC052F18CC053F14A
:101A6800000E0201016F0151020DD20EF324F66E31
:101A7800FF0EF420F76EF86A000EF8220900F55000
:101A88000900F510D8B44BEF0DF04DEF0DF0A1EFB4
:101A98000DF00151020DD20EF324F66EFF0EF42064
:101AA800F76EF86A000EF8220900F5CFF4F1090084
:101AB800F5CFF5F1080E0101F427000EF523F4C166
:101AC800F6FFF5C1F7FFF86A0900F5500900F510AF
:101AD800D8B471EF0DF073EF0DF0A1EF0DF0020126
:101AE8000151020DD20EF324F66EFF0EF420F76EAC
:101AF800F86A000EF8220900F5CFF4F10900F5CFD5
:101B0800F5F1080E0101F427000EF523F4C1F6FFE4
:101B1800F5C1F7FFF86A0900F5CFF6F10900F5CF2E
:101B2800F7F102D8A1EF0DF00500FA6EF651FD6E3F
:101B3800F751FE6EFF6AFA5012000201012B010EE6
:101B48000165A9EF0DF0ABEF0DF037EF0DF0BAEC32
:101B580010F0000E0201006F0001B851B911D8B49D
:101B6800B8EF0DF0BAEF0DF0B7EF0EF0020EB82592
:101B78000101F46F000E0001B9210101F56FF4C1F4
:101B8800F6FFF5C1F7FFF86A0900F5500900F510EE
:101B9800D8B4D1EF0DF0D3EF0DF0B7EF0EF0020E81
:101BA8000001A26F020EA36F020EB8250101F46FA7
:101BB800000E0001B9210101F56FF4C1F6FFF5C16E
:101BC800F7FFF86A0900F5CFF6F10900F5CFF7F14C
:101BD80002D8F8EF0DF00500FA6EF651FD6EF751D8
:101BE800FE6EFF6AFA5012000009D8B4FEEF0DF03D
:101BF80000EF0EF0B7EF0EF002010251D8B407EF74
:101C08000EF009EF0EF0B7EF0EF0070EF8EC1CF02F
:101C1800020E0001896F020E8A6F68EC30F0020133
:101C2800006F0051D8A41BEF0EF01DEF0EF0B7EFB8
:101C38000EF0000E016F0151020DD20EF324F66E64
:101C4800FF0EF420F76EF86A000EF8220900F5502E
:101C58000900F510D8B433EF0EF035EF0EF09AEF17
:101C68000EF00151020DD20EF324F66EFF0EF42091
:101C7800F76EF86A000EF8220900F5CFF4F10900B2
:101C8800F5CFF5F1060E0101F427000EF523F4C196
:101C9800F6FFF5C1F7FFF86A0900F5500900F510DD
:101CA800D8B459EF0EF05BEF0EF09AEF0EF0020E7B
:101CB800D06F020ED16F02010151020DD20EF32432
:101CC800F66EFF0EF420F76EF86A000EF82209008F
:101CD800F5CFF4F10900F5CFF5F1060E0101F4276F
:101CE800000EF523F4C1F6FFF5C1F7FFF86A090005
:101CF800F5CFF6F10900F5CFF7F102D88DEF0EF028
:101D08000500FA6EF651FD6EF751FE6EFF6AFA5045
:101D18001200E806D8A493EF0EF095EF0EF09AEFB4
:101D28000EF0010E0201006FA4EF0EF00201012B6C
:101D3800010E0165A2EF0EF0A4EF0EF01FEF0EF0FA
:101D48000051D8A4AAEF0EF0ACEF0EF0B7EF0EF0EA
:101D5800020E0001896F020E8A6F6AEC30F00201F0
:101D6800006FB7EF0EF002010051D8B4BEEF0EF0CD
:101D7800C0EF0EF0C3EF0EF0080EF8EC1CF01200E6
:101D88000001C505D8A4CBEF0EF0CDEF0EF01EEF85
:101D98000FF075EC2AF033500001895D0101CE6F18
:101DA800345000018A590101CF6F355000018B5919
:101DB8000101D06F365000018C590101D16FD1510A
:101DC8000DE1B50ECE5DC40ECF59040ED059D8A082
:101DD800F0EF0EF0F2EF0EF01EEF0FF00001C3A5CA
:101DE800F8EF0EF0FAEF0EF00AEF0FF0B7C0C8F1F7
:101DF800B6C0C9F1C0C0CAF1CBC0CBF1000E010119
:101E0800CC6FAB0EE7EC2FF00001C02B75EC2AF07D
:101E180089C033F08AC034F08BC035F08CC036F0FE
:101E28000001CB51D8B41BEF0FF01DEF0FF01EEFE0
:101E38000FF0CB070001C251C319D8B426EF0FF039
:101E480028EF0FF035EF0FF0F90E936F030E946F34
:101E5800000E956FC3C096F0000E19EC2DF0C3C0AC
:101E6800C2F00001C451C519D8B43DEF0FF03FEFDF
:101E78000FF04CEF0FF0FB0E936F030E946F000EF4
:101E8800956FC5C096F0000E19EC2DF0C5C0C4F0D2
:101E980075EC2AF02F500001895D0101CE6F30509A
:101EA80000018A590101CF6F315000018B5901019E
:101EB800D06F325000018C590101D16FD151D0112E
:101EC8000BE1250ECE5DF40ECF59D8A06EEF0FF0C2
:101ED80070EF0FF0ADEF10F075EC2AF089C02FF01D
:101EE8008AC030F08BC031F08CC032F00001CF4B8B
:101EF800D02BCF51D011D8A484EF0FF086EF0FF07C
:101F0800ADEF10F0CD4BCE2BADEF10F080A48FEFDE
:101F18000FF091EF0FF09DEF0FF075EC2AF089C0EC
:101F2800A4F08AC0A5F08BC0A6F08CC0A7F0B9EFCA
:101F380010F075EC2AF00001A451895D0101CE6F03
:101F48000001A5518A590101CF6F0001A6518B5993
:101F58000101D06F0001A7518C590101D16FD151F6
:101F68000DE1910ECE5DD00ECF59030ED059D8A0F9
:101F7800C0EF0FF0C2EF0FF0B9EF10F0000E000144
:101F8800C56FC16975EC2AF089C0A4F08AC0A5F0B4
:101F98008BC0A6F08CC0A7F0B7C0C8F1B6C0C9F115
:101FA800500ECFEC2FF0CAEC2EF0B9EF10F080A451
:101FB800E0EF0FF0E2EF0FF0B9EF10F075EC2AF058
:101FC8000001A451895D0101CE6F0001A5518A5914
:101FD8000101CF6F0001A6518B590101D06F00019B
:101FE800A7518C590101D16FD1510DE1910ECE5DF0
:101FF800D00ECF59030ED059D8A005EF10F007EF37
:1020080010F024EF10F0C1C0C5F00001C505D8A438
:1020180010EF10F012EF10F020EF10F0B4C0B6F08F
:10202800B5C0B7F0B7C0C8F1B6C0C9F1520ECFEC11
:102038002FF00001D34BD42BCAEC2EF091EF0FF008
:1020480075EC2AF00001A451895D0101CE6F0001F1
:10205800A5518A590101CF6F0001A6518B59010181
:10206800D06F0001A7518C590101D16FD151D01106
:102078000BE1250ECE5DF40ECF59D8A046EF10F037
:1020880048EF10F091EF0FF00001B651B711D8B436
:1020980050EF10F052EF10F059EF10F0B7C0C8F140
:1020A800B6C0C9F1510ECFEC2FF0000E0001B76F8A
:1020B800000EB66FC56920EF10F080A466EF10F02F
:1020C80068EF10F0B9EF10F075EC2AF00001A45198
:1020D800895D0101CE6F0001A5518A590101CF6FB9
:1020E8000001A6518B590101D06F0001A7518C59ED
:1020F8000101D16FD1510DE1910ECE5DD00ECF59B6
:10210800030ED059D8A08BEF10F08DEF10F091EF9F
:102118000FF0B6C0B4F0B7C0B5F0000E0001B76F4D
:10212800B7C0B6F0000EC56F010EC16F75EC2AF08E
:1021380089C0A4F08AC0A5F08BC0A6F08CC0A7F017
:10214800B5C0C8F1B4C0C9F1500ECFEC2FF020EFE4
:1021580010F00001C551000AD8B4DBEF0FF0FF0AF8
:10216800D8B48AEF0FF061EF10F0120075EC2AF086
:102178002B500001895D936F2C508A59946F2D5014
:102188008B59956F2E508C59966F965195110BE17E
:10219800720E935D020E9459D8A0D5EF10F0D7EFC8
:1021A80010F080EF11F0AE2BAF2B75EC2AF089C040
:1021B8002BF08AC02CF08BC02DF08CC02EF080EF55
:1021C80011F08A8C000EAF6F4EEF12F08A9CE6EF8A
:1021D80010F0AFC089F08A6B000E8C6F190E8B6FF0
:1021E80051EC24F00001893B894789478A508919B5
:1021F800BF0B89198A6E310EAF6505EF11F007EF35
:1022080011F04EEF12F0E6EF10F0AFC089F08A6BD4
:10221800000E8C6F320E8B6F51EC24F00001893B5D
:10222800894789478A508919BF0B89198A6E630EB5
:10223800AF6521EF11F023EF11F04EEF12F0E6EF4A
:1022480010F0AFC089F08A6B000E8C6F640E8B6F34
:1022580051EC24F00001893B894789478A50891944
:10226800BF0B89198A6EC70EAF653DEF11F03FEFBE
:1022780011F04EEF12F0E6EF10F08A8C180EAF65F1
:1022880048EF11F04AEF11F04EEF12F0000EAF6F69
:10229800000EB16F4EEF12F08A9C180EAF6557EF23
:1022A80011F059EF11F04EEF12F0000EAF6F010E62
:1022B800B16F4EEF12F08A8C310EAF6566EF11F0F8
:1022C80068EF11F04EEF12F04AEF11F08A9C310ED0
:1022D800AF6571EF11F073EF11F04EEF12F059EF97
:1022E80011F08A9C630EAF657CEF11F07EEF11F060
:1022F8004EEF12F059EF11F00001B151936F946B4A
:102308009451000AD8B48BEF11F04EEF12F09351AC
:10231800000AD8B4EAEF10F0010AD8B4E5EF10F0DB
:10232800030AD8B4EDEF10F0010AD8B409EF11F0A0
:10233800070AD8B425EF11F0010AD8B450EF11F00C
:10234800030AD8B441EF11F0010AD8B46AEF11F0CA
:102358000F0AD8B45FEF11F0010AD8B475EF11F085
:102368004EEF12F08A8E000EAE6F83EF12F08A9E47
:10237800B7EF11F0AEC089F08A6B000E8C6F190EA2
:102388008B6F51EC24F00001893389338A50891905
:102398007F0B89198A6E310EAE65D5EF11F0D7EF34
:1023A80011F083EF12F0B7EF11F0AEC089F08A6B2D
:1023B800000E8C6F320E8B6F51EC24F000018933C4
:1023C80089338A5089197F0B89198A6E630EAE6525
:1023D800F0EF11F0F2EF11F083EF12F0B7EF11F018
:1023E800AEC089F08A6B000E8C6F640E8B6F51EC57
:1023F80024F00001893389338A5089197F0B8919A0
:102408008A6EC70EAE650BEF12F00DEF12F083EF78
:1024180012F0B7EF11F08A8E180EAE6516EF12F0B3
:1024280018EF12F083EF12F0000EAE6F000EB06FCF
:1024380083EF12F08A9E180EAE6525EF12F027EF93
:1024480012F083EF12F0000EAE6F010EB06F83EF43
:1024580012F08A8E310EAE6534EF12F036EF12F0BC
:1024680083EF12F018EF12F08A9E310EAE653FEF3F
:1024780012F041EF12F083EF12F027EF12F08A9E6C
:10248800630EAE654AEF12F04CEF12F083EF12F0D4
:1024980027EF12F0B051936F946B9451000AD8B49F
:1024A80058EF12F083EF12F09351000AD8B4BBEF43
:1024B80011F0010AD8B4B6EF11F0030AD8B4BEEF90
:1024C80011F0010AD8B4D9EF11F0070AD8B4F4EF23
:1024D80011F0010AD8B41EEF12F0030AD8B40FEFB6
:1024E80012F0010AD8B438EF12F00F0AD8B42DEF61
:1024F80012F0010AD8B443EF12F083EF12F0120081
:1025080000018951D96EDA6A020ED926DF508C6F24
:102518008D6B8951D96EDA6A040ED926DF508E6F19
:10252800FF0E8E258F6F906BFF0E90238951D96E09
:10253800DA6A030ED926DF50916F926B010E91274C
:10254800000E92238F519115936F90519215946FAD
:102558008C51931907E18D519419D8A4B6EF12F054
:10256800B8EF12F0BBEF12F0000E3BEF14F020EEC4
:1025780001F08A51D9268B51DA228951E16EE26A3B
:10258800030EE126E7508C6F8C51090DF3CF8DF0C7
:10259800F4CF8EF08951E16EE26AE6CF8FF0E5CF95
:1025A80090F08D518F25916F8E519021926F010E71
:1025B8009125E16E000E9221E26EDFCFE7FF20EE5B
:1025C80002F08A51D9268B51DA228951E16EE26AEA
:1025D800030EE126E7508C6F8C51090DF3CF8DF077
:1025E800F4CF8EF08951E16EE26AE6CF8FF0E5CF45
:1025F80090F08D518F25916F8E519021926F020E20
:102608009125E16E000E9221E26EDFCFE7FF20EE0A
:1026180003F08A51D9268B51DA228951E16EE26A98
:10262800030EE126E7508C6F8C51090DF3CF8DF026
:10263800F4CF8EF08951E16EE26AE6CF8FF0E5CFF4
:1026480090F08D518F25916F8E519021926F030ECE
:102658009125E16E000E9221E26EDFCFE7FF20EEBA
:1026680004F08A51D9268B51DA228951E16EE26A47
:10267800030EE126E7508C6F8C51090DF3CF8DF0D6
:10268800F4CF8EF08951E16EE26AE6CF8FF0E5CFA4
:1026980090F08D518F25916F8E519021926F040E7D
:1026A8009125E16E000E9221E26EDFCFE7FF20EE6A
:1026B80005F08A51D9268B51DA228951E16EE26AF6
:1026C800030EE126E7508C6F8C51090DF3CF8DF086
:1026D800F4CF8EF08951E16EE26AE6CF8FF0E5CF54
:1026E80090F08D518F25916F8E519021926F050E2C
:1026F8009125E16E000E9221E26EDFCFE7FF20EE1A
:1027080006F08A51D9268B51DA228951E16EE26AA4
:10271800030EE126E7508C6F8C51090DF3CF8DF035
:10272800F4CF8EF08951E16EE26AE6CF8FF0E5CF03
:1027380090F08D518F25916F8E519021926F060EDA
:102748009125E16E000E9221E26EDFCFE7FF20EEC9
:1027580007F08A51D9268B51DA228951E16EE26A53
:10276800030EE126E7508C6F8C51090DF3CF8DF0E5
:10277800F4CF8EF08951E16EE26AE6CF8FF0E5CFB3
:1027880090F08D518F25916F8E519021926F070E89
:102798009125E16E000E9221E26EDFCFE7FF20EE79
:1027A80008F08A51D9268B51DA228951E16EE26A02
:1027B800030EE126E7508C6F8C51090DF3CF8DF095
:1027C800F4CF8EF08951E16EE26AE6CF8FF0E5CF63
:1027D80090F08D518F25916F8E519021926F080E38
:1027E8009125E16E000E9221E26EDFCFE7FF8AC0ED
:1027F800D9FF8BC0DAFF8951E16EE26A030EE12648
:10280800E7508C6F8C51090DF3CF8DF0F4CF8EF01B
:102818008951E16EE26AE6CF8FF0E5CF90F08D51F5
:102828008F25E16E8E519021E26EDFCFE7FF89514F
:10283800D96EDA6A030ED926DF2A8951D96EDA6A87
:10284800040ED9268951E16EE26A030EE126DE50B4
:10285800E65CD8A032EF14F034EF14F03AEF14F03D
:102868008951D96EDA6A030ED926DF6A010E120081
:10287800769044EC18F0460E0001896FEEEC26F0D5
:1028880089C0C7F18AC0C8F10101C751C811D8B4BD
:1028980050EF14F052EF14F065EF14F0A2C089F075
:1028A800A3C08AF0C7C18BF0C8C18CF0000E00012C
:1028B8008E6F090E8D6FCCEC2DF07680010E5AEFDD
:1028C80015F071AE6AEF14F06CEF14F057EF15F0D5
:1028D8006F50070B16EC25F089C0C9F18AC0CAF100
:1028E8000101C951CA11D8A47CEF14F07EEF14F08D
:1028F80082EF14F07680000E5AEF15F0779220EEF2
:1029080002F0C951D926CA51DA22DFA68EEF14F097
:1029180090EF14F092EF14F07FEF14F0C9C193F028
:10292800CAC194F053EC1CF0E806D8A49EEF14F04A
:10293800A0EF14F044EF15F00101AC4BAD2B20EEE5
:1029480006F0C951D926CA51DA22000110EE01F069
:10295800A251E126A351E222DFCFE7FF010120EED9
:1029680005F0C951D926CA51DA22DF500F0BA2C08F
:10297800D9FFA3C0DAFFDF6EA2C0D9FFA3C0DAFF78
:10298800080EDF64CAEF14F0CCEF14F0D2EF14F0A5
:10299800A2C0D9FFA3C0DAFF080EDF6E20EE07F051
:1029A800C951D926CA51DA22000110EE02F0A2510B
:1029B800E126A351E222DFCFE7FF010120EE08F074
:1029C800C951D926CA51DA22000110EE03F0A251EA
:1029D800E126A351E222DFCFE7FF010120EE09F053
:1029E800C951D926CA51DA22000110EE04F0A251C9
:1029F800E126A351E222DFCFE7FF010120EE0AF032
:102A0800C951D926CA51DA22000110EE05F0A251A7
:102A1800E126A351E222DFCFE7FF010120EE0BF010
:102A2800C951D926CA51DA22000110EE06F0A25186
:102A3800E126A351E222DFCFE7FF010120EE0CF0EF
:102A4800C951D926CA51DA22000110EE07F0A25165
:102A5800E126A351E222DFCFE7FF010120EE0DF0CE
:102A6800C951D926CA51DA22000110EE08F0A25144
:102A7800E126A351E222DFCFE7FF010E0101C66F75
:102A880077AE49EF15F04BEF15F04CEF15F0779E48
:102A9800C9C1D9FFCAC1DAFF7F0EDF1676800101EE
:102AA800C6515AEF15F076807FEF14F0120000013E
:102AB8008C6F100E00018C6164EF15F066EF15F055
:102AC80068EF16F049EF16F08951D8B46EEF15F09B
:102AD80070EF15F091EF15F08C51040D020EF326EE
:102AE800000EF4228D0EF324F66EFF0EF420F76E1E
:102AF800F86A000EF8220800F5CF8AF0010E8B6FF5
:102B08008A2B89EF15F0D8908B378A2F87EF15F02D
:102B180000018B51891268EF16F08C51040D020EDA
:102B2800F326000EF4228D0EF324F66EFF0EF42029
:102B3800F76EF86A000EF8220800F5CF8AF0010E49
:102B48008B6F8A2BAAEF15F0D8908B378A2FA8EFB6
:102B580015F000018B51FF0A891668EF16F08951AC
:102B6800D8B4B9EF15F0BBEF15F0DCEF15F08C51C8
:102B7800040D020EF326000EF4228D0EF324F66ED9
:102B8800FF0EF420F76EF86A000EF8220800F5CF61
:102B98008AF0010E8B6F8A2BD4EF15F0D8908B3703
:102BA8008A2FD2EF15F000018B518A1268EF16F0C8
:102BB8008C51040D020EF326000EF4228D0EF32420
:102BC800F66EFF0EF420F76EF86A000EF822080081
:102BD800F5CF8AF0010E8B6F8A2BF5EF15F0D890A0
:102BE8008B378A2FF3EF15F000018B51FF0A8A16F5
:102BF80068EF16F08951D8B404EF16F006EF16F016
:102C080027EF16F08C51040D020EF326000EF42265
:102C18008D0EF324F66EFF0EF420F76EF86A000EA0
:102C2800F8220800F5CF8AF0010E8B6F8A2B1FEF70
:102C380016F0D8908B378A2F1DEF16F000018B51B4
:102C48008B1268EF16F08C51040D020EF326000E5D
:102C5800F4228D0EF324F66EFF0EF420F76EF86A58
:102C6800000EF8220800F5CF8AF0010E8B6F8A2B30
:102C780040EF16F0D8908B378A2F3EEF16F0000100
:102C88008B51FF0A8B1668EF16F08C51040D010E5C
:102C9800F326000EF4228D0EF324F66EFF0EF420B8
:102CA800F76EF86A000EF8220800F550410AD8B409
:102CB80068EF15F0030AD8B4B3EF15F0010AD8B4D9
:102CC800FEEF15F068EF16F012007698410E00013D
:102CD800896F22EC2FF00009D8A475EF16F077EF72
:102CE80016F03CEF17F00F0120B77DEF16F07FEFDD
:102CF80016F03CEF17F00001C951D8A486EF16F082
:102D080088EF16F094EF16F0C851D8A48EEF16F09D
:102D180090EF16F094EF16F0010EC86F010EC96F10
:102D2800768895C0D9FF96C0DAFF080EDF649FEF5A
:102D380016F0A1EF16F0A7EF16F095C0D9FF96C0D0
:102D4800DAFF080EDF6E20EE01F09551D926965174
:102D5800DA22DF50976F986B8D0E9725F66EFE0E70
:102D68009821F76EF86A000EF8220800F550996F5E
:102D78009A6BCD0E9925F66EFF0E9A21F76EF86ABA
:102D8800000EF8220800F5CF9BF0C939E8461F0B62
:102D98000F0B9B110F01216FC9C097F0070E00019F
:102DA8009717050E986FD8909737982FD7EF16F08A
:102DB80097510F01226F000120EE01F09551D9269D
:102DC8009651DA22DF500F01266F000120EE02F043
:102DD8009551D9269651DA22DF500F01276F00014D
:102DE80020EE03F09551D9269651DA22DF500F01D3
:102DF800286F000120EE04F09551D9269651DA2269
:102E0800DF500F01296F000120EE05F09551D926FA
:102E18009651DA22DF500F012A6F000120EE06F0EA
:102E28009551D9269651DA22DF500F012B6F0001F8
:102E380020EE07F09551D9269651DA22DF500F017E
:102E48002C6F000120EE08F09551D9269651DA2210
:102E5800DF500F012D6F95C0D9FF96C0DAFFDF5004
:102E68000F0B256F20870101A64BA72B56EF17F0F4
:102E7800410E0001896F95C08AF096C08BF084ECF2
:102E880012F00009D8A44BEF17F04DEF17F055EFEB
:102E980017F00101A44BA52B35EC30F0768856EFDE
:102EA80017F076881200000E486E000E496E0B0E61
:102EB800466E020E476E200E4A6E000E436E000EDE
:102EC800446E540E416E010E426E080E456EFE0EA3
:102ED80000018D6F030E8E6F000E8F6F000E65EC74
:102EE8002BF08DC094F08EC095F0000195BF81EF56
:102EF80017F07FEF17F085EF17F0000EC96F87EF17
:102F080017F094C0C9F0000E956F000E946FD8901A
:102F18009435D96E9535DA6E9C0ED926010EDA22D3
:102F2800DE6ADD6A944B952B95BFA4EF17F0955197
:102F380009E1100E945DD8A0A4EF17F0A6EF17F0E2
:102F48008BEF17F0000E406E000E786E800E6F6EDD
:102F58006EAEB1EF17F0B3EF17F0ACEF17F0B00E9D
:102F6800726E000E0E017D6F0F0E436F9E0E446F42
:102F7800030E456F200E706E000EF86F080EF96F85
:102F8800000EFA6F000EFB6F000EE16F000E716FFE
:102F9800000E796F010E466F000E606E000E0F0175
:102FA800306F000E0E01806F000E906F000EA06F44
:102FB800000EB06F000EC06F000ED06F000E7E6F57
:102FC8007F857F977F99000E6F6E6EBEEEEF17F0CC
:102FD800F0EF17F0E9EF17F0000E0F01206F2091C6
:102FE8002093000E256F000E216F000E226F000E39
:102FF800106F10911083400E156FD10EF66EFF0EF4
:10300800F76EF86A0800F5CF93F00001C939E84671
:103018001F0B0F0B93110F01116F22CF12FF000E20
:10302800006F00810083000E056FD10EF66EFF0E53
:10303800F76EF86A0800F5CF93F00001C939E84641
:103048001F0B0F0B93110F01016F22CF02FF000E10
:103058000001C86F75EC2AF089C0A8F08AC0A9F0F1
:103068008BC0AAF08CC0ABF0A8C037F0A9C038F06C
:10307800AAC039F0ABC03AF076807688768A12001A
:1030880005EF19F075EC2AF00001A851895D9B6FD6
:10309800A9518A599C6FAA518B599D6FAB518C5974
:1030A8009E6F9E519D110BE1D50E9B5D300E9C5974
:1030B800D8A061EF18F063EF18F01BEF19F0010EBC
:1030C800A16F400EA125D96EDA6A010EDA22DF6AF5
:1030D800A12B0F0EA16573EF18F075EF18F065EFCF
:1030E80018F0010E0101406F020E0001C86F75EC67
:1030F8002AF089C0A8F08AC0A9F08BC0AAF08CC0B9
:10310800ABF00101B44BB52B0F0110871BEF19F081
:1031180075EC2AF00001A851895D9B6FA9518A5965
:103128009C6FAA518B599D6FAB518C599E6F9E51C4
:103138009D110BE16B0E9B5D180E9C59D8A0A7EF53
:1031480018F0A9EF18F01BEF19F0000EA16FAEEF01
:1031580018F0A12B400EA125D96EDA6A010EDA22E9
:10316800DE28D8A4BAEF18F0BCEF18F0C4EF18F0B6
:103178000F0EA165C2EF18F0C4EF18F0ADEF18F00C
:10318800400EA125D96EDA6A010EDA22DF509F6F50
:103198009F29D8B4D2EF18F0D4EF18F0FBEF18F04D
:1031A800A151080DF3CFA0F0DDEF18F0D8909F33B0
:1031B800A02B9FB1E2EF18F0E4EF18F0DAEF18F067
:1031C800A051D8B4EAEF18F0ECEF18F0FBEF18F0C4
:1031D800640EA061F2EF18F0F4EF18F0FBEF18F0AE
:1031E800A0C0C9F0C95139EC2AF000EF19F001016B
:1031F800BA4BBB2B35EC30F0000E0001C86F1BEF4B
:1032080019F00001C8519B6F9C6B9C51000AD8B4FF
:1032180010EF19F01BEF19F09B51010AD8B446EFD3
:1032280018F0030AD8B48CEF18F01BEF19F012004D
:10323800EAEF19F06F50070BD4EC25F060C06EF080
:1032480061C06FF0779271AC2CEF19F02EEF19F086
:103258002FEF19F0719C000120EE02F06E51D92673
:103268006F51DA22DFB63BEF19F03DEF19F0DBEFD3
:1032780019F0460E606F2EEC22F060C06CF061C051
:103288006DF000016C516D11D8A44DEF19F04FEF9E
:1032980019F05EEF19F00101AA4BAB2B40EC30F0AE
:1032A80077AE59EF19F05BEF19F0F1EF19F0779E4F
:1032B800F1EF19F020EE06F06E51D9266F51DA229F
:1032C80010EE01F06C51E1266D51E222DFCFE7FFED
:1032D80020EE07F06E51D9266F51DA2210EE02F077
:1032E8006C51E1266D51E222DFCFE7FF20EE08F0B6
:1032F8006E51D9266F51DA2210EE03F06C51E12697
:103308006D51E222DFCFE7FF20EE09F06E51D9269A
:103318006F51DA2210EE04F06C51E1266D51E22271
:10332800DFCFE7FF20EE0AF06E51D9266F51DA227F
:1033380010EE05F06C51E1266D51E222DFCFE7FF78
:1033480020EE0BF06E51D9266F51DA2210EE06F0FE
:103358006C51E1266D51E222DFCFE7FF20EE0CF041
:103368006E51D9266F51DA2210EE07F06C51E12622
:103378006D51E222DFCFE7FF20EE0DF06E51D92626
:103388006F51DA2210EE08F06C51E1266D51E222FD
:10339800DFCFE7FF20EE05F06E51D9266F51DA2214
:1033A800DF500F0B6CC0D9FF6DC0DAFFDF6E77AE50
:1033B800E0EF19F0E2EF19F0E3EF19F0779E6EC035
:1033C800D9FF6FC0DAFF7F0EDF16779071BEEFEF7F
:1033D80019F0F1EF19F01EEF19F01200BEEF1AF014
:1033E8006F50070B91EC26F001C00FF002C010F0EF
:1033F800779271AC02EF1AF004EF1AF005EF1AF0A9
:10340800719C20EE02F00F50D9261050DA22DFB658
:1034180010EF1AF012EF1AF0AFEF1AF0460E016E25
:10342800A2EC22F001C00DF002C00EF00D500E10FB
:10343800D8A421EF1AF023EF1AF032EF1AF00101A5
:10344800AA4BAB2B4BEC30F077AE2DEF1AF02FEFE9
:103458001AF0C5EF1AF0779EC5EF1AF020EE06F0C5
:103468000F50D9261050DA2210EE01F00D50E12647
:103478000E50E222DFCFE7FF20EE07F00F50D926EB
:103488001050DA2210EE02F00D50E1260E50E22222
:10349800DFCFE7FF20EE08F00F50D9261050DA22D0
:1034A80010EE03F00D50E1260E50E222DFCFE7FFC9
:1034B80020EE09F00F50D9261050DA2210EE04F051
:1034C8000D50E1260E50E222DFCFE7FF20EE0AF092
:1034D8000F50D9261050DA2210EE05F00D50E126D3
:1034E8000E50E222DFCFE7FF20EE0BF00F50D92677
:1034F8001050DA2210EE06F00D50E1260E50E222AE
:10350800DFCFE7FF20EE0CF00F50D9261050DA225B
:1035180010EE07F00D50E1260E50E222DFCFE7FF54
:1035280020EE0DF00F50D9261050DA2210EE08F0D8
:103538000D50E1260E50E222DFCFE7FF20EE05F026
:103548000F50D9261050DA22DF500F0B0DC0D9FFCB
:103558000EC0DAFFDF6E77AEB4EF1AF0B6EF1AF0EE
:10356800B7EF1AF0779E0FC0D9FF10C0DAFF7F0EB1
:10357800DF16779071BEC3EF1AF0C5EF1AF0F4EFBB
:1035880019F0120077980F0120B7CDEF1AF0CFEF9E
:103598001AF093EF1BF0410E0001606F46EC27F024
:1035A80060C06FF061C070F000016F517011D8B445
:1035B800E0EF1AF0E2EF1AF084EF1BF020EE01F0D2
:1035C8006F51D9267051DA22DF506A6F6B6B8D0EFE
:1035D8006A25F66EFE0E6B21F76EF86A000EF82269
:1035E8000800F5506C6F6D6BCD0E6C25F66EFF0EF6
:1035F8006D21F76EF86A000EF8220800F5CF6EF01C
:10360800C939E8461F0B0F0B6E110F01216FC9C096
:103618006AF0070E00016A17050E6B6FD8906A37BB
:103628006B2F12EF1BF06A510F01226F000120EE81
:1036380001F06F51D9267051DA22DF500F01266F41
:10364800000120EE02F06F51D9267051DA22DF50C6
:103658000F01276F000120EE03F06F51D92670513A
:10366800DA22DF500F01286F000120EE04F06F51BD
:10367800D9267051DA22DF500F01296F000120EEA0
:1036880005F06F51D9267051DA22DF500F012A6FE9
:10369800000120EE06F06F51D9267051DA22DF5072
:1036A8000F012B6F000120EE07F06F51D9267051E2
:1036B800DA22DF500F012C6F000120EE08F06F5165
:1036C800D9267051DA22DF500F012D6F6FC0D9FF54
:1036D80070C0DAFFDF50256FEDEC2AF060C037F0DC
:1036E80061C038F062C039F063C03AF0000E406E35
:1036F8000F01208776880101A64BA72B95EF1BF0B9
:10370800000E376E000E386E000E396E000E3A6EDF
:10371800000E0F01206F7798769895EF1BF0779839
:103728007688120077980F0120B79DEF1BF09FEF66
:103738001BF050EF1CF0410E016E9EEC27F001C00B
:1037480010F002C011F010501110D8B4AEEF1BF0F9
:10375800B0EF1BF041EF1CF020EE01F01050D9261D
:103768001150DA22DF500B6E0C6A8D0E0B24F66EA8
:10377800FE0E0C20F76EF86A000EF8220800F550CD
:103788000D6E0E6ACD0E0D24F66EFF0E0E20F76E2E
:10379800F86A000EF8220800F5CF0FF00001C939C9
:1037A800E8461F0B0F0B0F100F01216FC9C00BF05C
:1037B800070E0B16050E0C6ED8900B360C2EE0EF8C
:1037C8001BF00B50226F20EE01F01050D92611503B
:1037D800DA22DF50266F20EE02F01050D926115061
:1037E800DA22DF50276F20EE03F01050D92611504F
:1037F800DA22DF50286F20EE04F01050D92611503D
:10380800DA22DF50296F20EE05F01050D92611502A
:10381800DA22DF502A6F20EE06F01050D926115018
:10382800DA22DF502B6F20EE07F01050D926115006
:10383800DA22DF502C6F20EE08F01050D9261150F4
:10384800DA22DF502D6F10C0D9FF11C0DAFFDF5028
:10385800256FFCEC29F001C037F002C038F003C036
:1038680039F004C03AF0000E406E0F0120877688C8
:103878000101A64BA72B52EF1CF0000E376E000E6D
:10388800386E000E396E000E3A6E000E0F01206F72
:103898007798769852EF1CF0779876881200000196
:1038A80020EE05F09351D9269451DA22DFAC5FEF70
:1038B8001CF061EF1CF070EF1CF00F01008775EC35
:1038C8002AF089C0A8F08AC0A9F08BC0AAF08CC0E1
:1038D800ABF0000EF7EF1CF020EE02F09351D92662
:1038E8009451DA22DF50956F050E966FD890953374
:1038F800962F7AEF1CF020EE01F09351D9269451BF
:10390800DA22DF50080DF35095257F0B996F020ED0
:10391800C819D8B492EF1CF094EF1CF0A5EF1CF076
:1039280020EE05F09351D9269451DA22DF50956F95
:103938000F0E9517D8A4A3EF1CF0A5EF1CF0C3EF4A
:103948001CF099C095F0070E9517010E966F952BF0
:10395800B0EF1CF0D8909637952FAEEF1CF0000111
:103968009939E8461F0B976F986B400E9725D96ECB
:10397800010E9821DA6E9651DF12E3EF1CF0C85160
:10398800D8A4C9EF1CF0CBEF1CF0E3EF1CF0C95131
:103998009919D8A4D2EF1CF0D4EF1CF0E3EF1CF077
:1039A800010EC86F0101B64BB72B75EC2AF089C020
:1039B800A8F08AC0A9F08BC0AAF08CC0ABF00001B7
:1039C80020EE05F09351D9269451DA22DF50956FF5
:1039D8000F0E9517D8A4F3EF1CF0F6EF1CF0010EAC
:1039E800F7EF1CF0000E120000018B6F58EF1DF06E
:1039F800000EB06F000EB16F9AEF1DF0010EB06FA0
:103A0800000EB16F9AEF1DF0000EB06F030EB16F8C
:103A18009AEF1DF0000EB06F010EB16F9AEF1DF016
:103A2800000EAF6F190EAE6F020EB06F020EB16FBF
:103A38009AEF1DF0C529D8A424EF1DF026EF1DF03C
:103A48002AEF1DF0060EB16F9AEF1DF0C505D8A438
:103A580030EF1DF032EF1DF09AEF1DF0060EB06F3B
:103A68009AEF1DF0C529D8A43CEF1DF03EEF1DF0DC
:103A780042EF1DF0080EB16F9AEF1DF0C505D8A4EE
:103A880048EF1DF04AEF1DF09AEF1DF0080EB06FD9
:103A98009AEF1DF0000EAF6F000EAE6F020EB06F02
:103AA800020EB16F9AEF1DF000018B51896F8A6B7E
:103AB8008A51000AD8B463EF1DF09AEF1DF08951BE
:103AC800000AD8B4FCEF1CF0010AD8B402EF1DF0CC
:103AD800030AD8B408EF1DF0010AD8B40EEF1DF0A0
:103AE800070AD8B414EF1DF0010AD8B40EEF1DF080
:103AF800030AD8B40EEF1DF0010AD8B41EEF1DF06A
:103B08000F0AD8B436EF1DF0010AD8B40EEF1DF035
:103B1800030AD8B40EEF1DF0010AD8B44EEF1DF019
:103B2800070AD8B44EEF1DF09AEF1DF01200FC0EF4
:103B380000018D6F030E8E6F000E8F6F000E65EC07
:103B48002BF08DC094F08EC095F0000195BFB1EFB9
:103B58001DF0AFEF1DF0B7EF1DF0000EB76F000EB0
:103B6800B66FD2EF1DF094C0B7F0FD0E8D6F030E47
:103B78008E6F000E8F6F000E65EC2BF08DC094F0E9
:103B88008EC095F0000195BFCEEF1DF0CCEF1DF073
:103B9800D0EF1DF0B1EF1DF094C0B6F0FB0E8D6FA5
:103BA800030E8E6F000E8F6F000E65EC2BF08DC02C
:103BB80094F08EC095F0000195BFE7EF1DF0E5EF9A
:103BC8001DF0EAEF1DF0C569ECEF1DF094C0C5F0DB
:103BD800F90E8D6F030E8E6F000E8F6F000E65EC61
:103BE8002BF08DC094F08EC095F0000195BF01EFC9
:103BF8001EF0FFEF1DF005EF1EF0040EC36F07EF78
:103C08001EF094C0C3F0CAEC2EF075EC2AF089C0FF
:103C1800A4F08AC0A5F08BC0A6F08CC0A7F0000E57
:103C28000001936F9351020DF350CB0FD96EDA6AEE
:103C3800DE6ADD6A932B050E936525EF1EF027EFEC
:103C48001EF016EF1EF0000EC06F000E336E000E51
:103C5800346E000E356E000E366E000E2F6E000E9E
:103C6800306E000E316E000E326E120000018E6F43
:103C78007BEF1EF0140ECBEF1EF0A50ECBEF1EF05F
:103C8800610ECBEF1EF0FC0ECBEF1EF0000ECBEF5B
:103C98001EF0010ECBEF1EF0BCEC29F0CBEF1EF0AE
:103CA8000F0ECBEF1EF0030E2AEC29F00009D8B452
:103CB80060EF1EF062EF1EF04AEF1EF04DEF1EF0AF
:103CC800080ECBEF1EF0FE0EF66EFF0EF76E3F0EDF
:103CD800F86E0800F550CBEF1EF0FF0EF66EFF0EE3
:103CE800F76E3F0EF86E0800F550CBEF1EF000019E
:103CF8008E51000AD8B43EEF1EF0010AD8B441EF45
:103D08001EF0030AD8B444EF1EF0010AD8B447EFF6
:103D18001EF0070AD8B44AEF1EF0010AD8B44AEFD9
:103D28001EF0030AD8B44AEF1EF0010AD8B44DEFCA
:103D38001EF00F0AD8B450EF1EF0010AD8B454EFA1
:103D48001EF0030AD8B457EF1EF0010AD8B44AEFA0
:103D58001EF0070AD8B464EF1EF0010AD8B44AEF7F
:103D68001EF0030AD8B44AEF1EF01F0AD8B467EF52
:103D78001EF0030AD8B471EF1EF0010AD8B44DEF53
:103D88001EF0070AD8B44DEF1EF04AEF1EF01200DD
:103D9800000E00019E6F9E51020DD20EF324F66EA6
:103DA800FF0EF420F76EF86A000EF8220900F550AD
:103DB8000900F510D8B4E3EF1EF0E5EF1EF036EF7A
:103DC8001FF09E51020DD20EF324F66EFF0EF42062
:103DD800F76EF86A000EF8220900F5CF9AF009008C
:103DE800F5CF9BF0020E9A27000E9B239AC0F6FF90
:103DF8009BC0F7FFF86A0900F5500900F510D8B420
:103E080008EF1FF00AEF1FF036EF1FF09E51020D6A
:103E1800D20EF324F66EFF0EF420F76EF86A000E49
:103E2800F8220900F5CF9AF00900F5CF9BF0020EB1
:103E38009A27000E9B239AC0F6FF9BC0F7FFF86AEB
:103E48000900F5CF9CF00900F5CF9DF002D836EFB8
:103E58001FF00500FA6E9C51FD6E9D51FE6EFF6AC3
:103E6800FA50120000019E2B010E9E653EEF1FF0D6
:103E780040EF1FF0CFEF1EF0FA0E936F030E946F12
:103E8800000E956F010E966F000E19EC2DF06EEC7A
:103E980030F012000101CF51020DD20EF324F66E5C
:103EA800FF0EF420F76EF86A000EF8220900F5CF2D
:103EB800D1F10900F5CFD2F1100ED127000ED2238F
:103EC800D1C1F6FFD2C1F7FFF86A0900F550090021
:103ED800F510D8A472EF1FF074EF1FF077EF1FF002
:103EE800000ECEEF1FF0CF51020DD20EF324F66E66
:103EF800FF0EF420F76EF86A000EF8220900F5CFDD
:103F0800D1F10900F5CFD2F1100ED127000ED2233E
:103F1800D1C1F6FFD2C1F7FFF86A0900F5CFD3F196
:103F28000900F5CFD4F102D8A4EF1FF00500FA6E0E
:103F3800D351FD6ED451FE6EFF6AFA50D02912009B
:103F480089C0D5F18AC0D6F10101D551D611D8A4BE
:103F5800B0EF1FF0B2EF1FF0B4EF1FF074EF1FF0D7
:103F6800B7C0C8F1B6C0C9F1CF29CA6FD029CB6F85
:103F780020EE01F0D551D926D651DA22DF50CC6F88
:103F8800D5C1D9FFD6C1DAFFDF50CD6FC70E87EC98
:103F98002FF0020E1200C00E00018C158F6FFF0E5D
:103FA8008D15906FB2518F1909E1B3519019D8B49A
:103FB800E0EF1FF0E2EF1FF001EF20F0B251B31174
:103FC800D8B4E9EF1FF0EBEF1FF0F8EF1FF0BFA335
:103FD800F0EF1FF0F2EF1FF0F6EF1FF04CEC2CF0B3
:103FE8000001BF9375EC25F0C00E00018C15B26F6F
:103FF800FF0E8D15B36FA2EC2DF03F0E00018C154E
:104008008F6F000E8D15906F000E8F25D96E010EE3
:104018009021DA6EDF50FF0A8E150009D8A417EF39
:1040280020F01BEF20F0916B912B1DEF20F0000189
:10403800916BBF31010B926F915192139237BF511F
:104048009219FD0B9219BF6F3F0E8C158F6F000EE2
:104058008D15906F000E8F25D96E010E9021DA6EA6
:104068008E51DE18D8B43BEF20F03DEF20F04CEF36
:1040780020F0BF813F0E8C158F6F000E8D15906F4D
:10408800000E8F25D96E010E9021DA6E8EC0DFFFEB
:10409800000E1200000EF5EC2DF065EC30F057EC38
:1040A8002FF0050E0001BA6F000E9A6F9A51020D9B
:1040B800D20EF324F66EFF0EF420F76EF86A000EA7
:1040C800F8220900F5500900F510D8B46EEF20F079
:1040D80070EF20F0C1EF20F09A51020DD20EF324B8
:1040E800F66EFF0EF420F76EF86A000EF82209004B
:1040F800F5CF96F00900F5CF97F0040E9627000E3D
:10410800972396C0F6FF97C0F7FFF86A0900F550A5
:104118000900F510D8B493EF20F095EF20F0C1EF27
:1041280020F09A51020DD20EF324F66EFF0EF42001
:10413800F76EF86A000EF8220900F5CF96F009002C
:10414800F5CF97F0040E9627000E972396C0F6FF3A
:1041580097C0F7FFF86A0900F5CF98F00900F5CF86
:1041680099F002D8C1EF20F00500FA6E9851FD6E63
:104178009951FE6EFF6AFA50120000019A2B010E47
:104188009A65C9EF20F0CBEF20F05AEF20F012002B
:10419800000E0001796F7951020DD20EF324F66EEC
:1041A800FF0EF420F76EF86A000EF8220900F550A9
:1041B8000900F510D8B4E3EF20F0E5EF20F036EF72
:1041C80021F07951020DD20EF324F66EFF0EF42081
:1041D800F76EF86A000EF8220900F5CF75F00900AD
:1041E800F5CF76F00C0E7527000E762375C0F6FF16
:1041F80076C0F7FFF86A0900F5500900F510D8B441
:1042080008EF21F00AEF21F036EF21F07951020D85
:10421800D20EF324F66EFF0EF420F76EF86A000E45
:10422800F8220900F5CF75F00900F5CF76F00C0EED
:104238007527000E762375C0F6FF76C0F7FFF86A7B
:104248000900F5CF77F00900F5CF78F002D836EFFE
:1042580021F00500FA6E7751FD6E7851FE6EFF6A07
:10426800FA5012000001792B010E79653EEF21F01A
:1042780040EF21F0CFEF20F070EC30F012004B80CF
:10428800D8CF7AF0E8CF7BF0E0CF7CF0FACF7DF0A2
:10429800FBCF7EF0E1CF7FF0E2CF80F0D9CF81F085
:1042A800DACF82F0F3CF83F0F4CF84F0F6CF85F045
:1042B800F7CF86F0F8CF87F0F5CF88F0CCEC20F078
:1042C80088C0F5FF87C0F8FF86C0F7FF85C0F6FFF6
:1042D80084C0F4FF83C0F3FF82C0DAFF81C0D9FF36
:1042E80080C0E2FF7FC0E1FF7EC0FBFF7DC0FAFF18
:1042F8007CC0E0FF7BC0E8FF7AC0D8FF4B9010007D
:104308004B82FACF1BF0FBCF1CF0E1CF1DF0E2CFC0
:104318001EF0D9CF1FF0DACF20F0F3CF21F0F4CF81
:1043280022F0F6CF23F0F7CF24F0F8CF25F0F5CF21
:1043380026F0B9EC21F026C0F5FF25C0F8FF24C00F
:10434800F7FF23C0F6FF22C0F4FF21C0F3FF20C00F
:10435800DAFF1FC0D9FF1EC0E2FF1DC0E1FF1CC06D
:10436800FBFF1BC0FAFF4B921100000E1A6E1A5089
:10437800020DD20EF324F66EFF0EF420F76EF86AE3
:10438800000EF8220900F5500900F510D8B4CFEF57
:1043980021F0D1EF21F022EF22F01A50020DD20EB7
:1043A800F324F66EFF0EF420F76EF86A000EF8227A
:1043B8000900F5CF16F00900F5CF17F00A0E1626FA
:1043C800000E172216C0F6FF17C0F7FFF86A09009B
:1043D800F5500900F510D8B4F4EF21F0F6EF21F00C
:1043E80022EF22F01A50020DD20EF324F66EFF0EC1
:1043F800F420F76EF86A000EF8220900F5CF16F0DF
:104408000900F5CF17F00A0E1626000E172216C05F
:10441800F6FF17C0F7FFF86A0900F5CF18F0090092
:10442800F5CF19F002D822EF22F00500FA6E1850E5
:10443800FD6E1950FE6EFF6AFA5012001A2A010E1C
:104448001A6429EF22F02BEF22F0BBEF21F071EC78
:1044580030F0120000016051D96EDA6A020ED926D6
:10446800DF50626F636B6051D96EDA6A040ED92629
:10447800DF50646FFF0E6425656F666BFF0E662361
:104488006051D96EDA6A030ED926DF50676F686B00
:10449800010E6727000E682365516715696F66511D
:1044A80068156A6F6251691907E163516A19D8A4DE
:1044B80060EF22F062EF22F068EF22F0000E606FEA
:1044C800000E616FA1EF22F06051D96EDA6A030E17
:1044D800D926DF506B6F6051D96EDA6A030ED92680
:1044E800DF2A6051D96EDA6A040ED9266051E16E6E
:1044F800E26A030EE126DE50E65CD8A086EF22F0E1
:1045080088EF22F08EEF22F06051D96EDA6A030E3E
:10451800D926DF6A6B51090DF3CF62F0F4CF63F04F
:104528006051D96EDA6ADECF64F0DDCF65F0625192
:104538006425606F63516521616F12000150D96E67
:10454800DA6A020ED926DF50036E046A0150D96E6A
:10455800DA6A040ED926DF50056EFF0E0524066EB2
:10456800076AFF0E07220150D96EDA6A030ED926B0
:10457800DF50086E096A010E0826000E092206504F
:1045880008140A6E075009140B6E03500A1807E145
:1045980004500B18D8A4D3EF22F0D5EF22F0DBEFAC
:1045A80022F0000E016E000E026E14EF23F001508F
:1045B800D96EDA6A030ED926DF500C6E0150D96E17
:1045C800DA6A030ED926DF2A0150D96EDA6A040E98
:1045D800D9260150E16EE26A030EE126DE50E65C60
:1045E800D8A0F9EF22F0FBEF22F001EF23F0015001
:1045F800D96EDA6A030ED926DF6A0C50090DF3CF9B
:1046080003F0F4CF04F00150D96EDA6ADECF05F07A
:10461800DDCF06F003500524016E04500620026E1B
:104628001200D0C1D9FFD1C1DAFF030EDF601FEF3E
:1046380023F021EF23F024EF23F0000E84EF23F082
:10464800010120EE02F0D051D926D151DA22DE50F4
:104658000001B719D8B433EF23F035EF23F037EF63
:1046680023F021EF23F0010120EE03F0D051D926E9
:10467800D151DA220001B651DE18D8B446EF23F042
:1046880048EF23F068EF23F021EF23F0010E84EFC9
:1046980023F0D0C1D9FFD1C1DAFF040EDF6057EF94
:1046A80023F059EF23F04AEF23F0B7C0C8F1B6C0A2
:1046B800C9F1710ECA6F010ECB6F010ECC6FAF0E30
:1046C800E7EC2FF04AEF23F0010120EE01F0D05182
:1046D800D926D151DA22DF50D26FD36BD351000AD9
:1046E800D8B479EF23F021EF23F0D2515D0AD8B482
:1046F8004AEF23F0280AD8B44DEF23F021EF23F036
:1047080012000101C56F75EC2AF089C0A4F08AC0B7
:10471800A5F08BC0A6F08CC0A7F0C8EF23F0BAECC8
:1047280010F075EC2AF00001A451895DA06FA55125
:104738008A59A16FA6518B59A26FA7518C59A36FA3
:104748000101C5510001896F8A6B8B6B8C6B240E3C
:104758008D6FF40E8E6F000E8F6F000E906F16EC3B
:104768002CF00001A051895DA1518A59A2518B59A1
:10477800A3518C59D8B0C3EF23F0C5EF23F0C8EF8D
:1047880023F0000EEAEF23F080B4CDEF23F0CFEF53
:1047980023F093EF23F075EC2AF00001A451895D12
:1047A800936FA5518A59946FA6518B59956FA7514C
:1047B8008C59966F240E976FF40E986F000E996FB0
:1047C800000E9A6FF5EC27F00001935112000101D9
:1047D800C56F75EC2AF089C0A4F08AC0A5F08BC01B
:1047E800A6F08CC0A7F02EEF24F0BAEC10F075EC10
:1047F8002AF00001A451895DA06FA5518A59A16FC3
:10480800A6518B59A26FA7518C59A36F0101C551AD
:104818000001896F8A6B8B6B8C6B240E8D6FF40E85
:104828008E6F000E8F6F000E906F16EC2CF000014B
:10483800A051895DA1518A59A2518B59A3518C5914
:10484800D8B029EF24F02BEF24F02EEF24F0000E3F
:1048580050EF24F080A433EF24F035EF24F0F9EF83
:1048680023F075EC2AF00001A451895D936FA551DE
:104878008A59946FA6518B59956FA7518C59966F89
:10488800240E976FF40E986F000E996F000E9A6FB2
:10489800F5EC27F0000193511200000E00018E6F15
:1048A8008CBF5BEF24F059EF24F061EF24F08B6D9F
:1048B8008C1FD8B08C2B010E8E6F8ABF68EF24F046
:1048C80066EF24F06EEF24F0896D8A1FD8B08A2B2A
:1048D800010E8E1B000E906F000E8F6F8B518C1186
:1048E800D8B479EF24F07BEF24F0A3EF24F0010E85
:1048F8008D6F83EF24F0D8908B378C378D2B8CAF4E
:1049080088EF24F08AEF24F07FEF24F0D8908F37D7
:1049180090378B51895D8C518A59D8A096EF24F035
:1049280098EF24F09DEF24F08B51895F8C518A5BBE
:104938008F81D8908C338B338D2F8AEF24F08E5152
:10494800D8B4A9EF24F0ABEF24F0AFEF24F08F6DCB
:10495800901FD8B0902B8FC089F090C08AF01200B9
:104968000001BC29D8A4BBEF24F0BDEF24F0BFEFB1
:1049780024F015EF25F0AC51AD11D8A4C6EF24F002
:10498800C8EF24F0CBEF24F0BC6915EF25F002D86E
:10499800DCEF24F00500FA6EAC51FD6EAD51FE6EF1
:1049A800FF6AFA50BEC0CFF1BBC0D0F1BC511200B3
:1049B8000101D96FFCEF24F00001BD51D8B4E7EF35
:1049C80024F0E9EF24F0C8EF24F0BE2B010EBE65F9
:1049D800F0EF24F0F2EF24F0F4EF24F0C8EF24F025
:1049E800000EBB6F15EF25F00001BB2B15EF25F06E
:1049F800D951D76FD86BD851000AD8B406EF25F033
:104A080015EF25F0D751000AD8B4E0EF24F0010AD9
:104A1800D8B415EF25F0030AD8B4F8EF24F015EF51
:104A280025F0120000018B6F50EF25F0600E896FA2
:104A38000F0E8A6F74EF25F0300E896F0F0E8A6F94
:104A480074EF25F0800E896F0E0E8A6F74EF25F0D3
:104A5800900E896F0E0E8A6F74EF25F0A00E896F85
:104A68000E0E8A6F74EF25F0B00E896F0E0E8A6FE6
:104A780074EF25F0C00E896F0E0E8A6F74EF25F063
:104A8800D00E896F0E0E8A6F74EF25F0000E896FB5
:104A9800000E8A6F74EF25F000018B51000AD8B41C
:104AA8001AEF25F0010AD8B420EF25F0030AD8B48C
:104AB80026EF25F0010AD8B42CEF25F0070AD8B460
:104AC80032EF25F0010AD8B438EF25F0030AD8B43C
:104AD8003EEF25F0010AD8B444EF25F04AEF25F05F
:104AE8001200B2C0F6FFB3C0F7FFF86A000EF86E06
:104AF8000001BFB182EF25F084EF25F086EF25F0A5
:104B0800D3EF25F06CEC30F00009D8B48EEF25F027
:104B180090EF25F086EF25F00001BFA396EF25F072
:104B280098EF25F09AEF25F04CEC2CF0000EF2BE31
:104B3800010E00018A6FF29EF29C000E8B6F000E30
:104B48008B25D96EDA6A010EDA22DF50F56E0D0078
:104B580000018B2B3F0E8B65B4EF25F0B6EF25F0E7
:104B6800A3EF25F0B2C0F6FFB3C0F7FFF86A000E56
:104B7800F86E7F8E7F9C7F987F84550E7E6EAA0E7E
:104B88007E6E7F827F948A51D8B4CDEF25F0CFEF27
:104B980025F0D1EF25F0F28EF28C000EBF6F1200D7
:104BA8000001626F0EEF26F0600E606F0F0E616FEE
:104BB80032EF26F0300E606F0F0E616F32EF26F085
:104BC800800E606F0E0E616F32EF26F0900E606FF0
:104BD8000E0E616F32EF26F0A00E606F0E0E616F41
:104BE80032EF26F0B00E606F0E0E616F32EF26F0D6
:104BF800C00E606F0E0E616F32EF26F0D00E606F40
:104C08000E0E616F32EF26F0000E606F000E616FBE
:104C180032EF26F000016251000AD8B4D8EF25F02F
:104C2800010AD8B4DEEF25F0030AD8B4E4EF25F082
:104C3800010AD8B4EAEF25F0070AD8B4F0EF25F056
:104C4800010AD8B4F6EF25F0030AD8B4FCEF25F032
:104C5800010AD8B402EF26F008EF26F0120080B45B
:104C680038EF26F03AEF26F090EF26F01E0EEBEC28
:104C780023F00101C66FC651D8A445EF26F047EFCF
:104C880026F04BEF26F090EF26F090EF26F0010E7D
:104C9800C66551EF26F053EF26F05FEF26F0060EBB
:104CA800C66159EF26F05BEF26F05FEF26F06FEC58
:104CB80030F090EF26F0090EC66565EF26F067EF35
:104CC80026F090EF26F0040EF8EC1CF0050E85ECAB
:104CD80023F00101C66FC651D8A475EF26F077EF0F
:104CE80026F079EF26F090EF26F0050EEBEC23F096
:104CF8000101C66F010EC66584EF26F086EF26F027
:104D080049EF26F0040EC6618CEF26F08EEF26F0F0
:104D180049EF26F0CCEC1EF01200036ECAEF26F025
:104D2800600E016E0F0E026EEDEF26F0300E016E72
:104D38000F0E026EEDEF26F0800E016E0E0E026E63
:104D4800EDEF26F0900E016E0E0E026EEDEF26F0DE
:104D5800A00E016E0E0E026EEDEF26F0B00E016E83
:104D68000E0E026EEDEF26F0C00E016E0E0E026EF4
:104D7800EDEF26F0D00E016E0E0E026EEDEF26F06E
:104D8800000E016E000E026EEDEF26F00350000AD1
:104D9800D8B494EF26F0010AD8B49AEF26F0030AA3
:104DA800D8B4A0EF26F0010AD8B4A6EF26F0070A77
:104DB800D8B4ACEF26F0010AD8B4B2EF26F0030A53
:104DC800D8B4B8EF26F0010AD8B4BEEF26F0C4EF85
:104DD80026F0120000018951D96EDA6A020ED9262E
:104DE8008951E16EE26A030EE126DE50E618D8A486
:104DF80000EF27F002EF27F008EF27F0000E896F89
:104E0800000E8A6F45EF27F08951D96EDA6A020ED3
:104E1800D926DF508B6F8B51090DF3CF8CF0F4CF6F
:104E28008DF08951D96EDA6ADECF8EF0DDCF8FF042
:104E38008C518E25906F8D518F21916F8951D96E2C
:104E4800DA6A020ED926DF2A8951D96EDA6A040E87
:104E5800D9268951E16EE26A020EE126DE50E65C4F
:104E6800D8A039EF27F03BEF27F041EF27F0895121
:104E7800D96EDA6A020ED926DF6A90C089F091C02D
:104E88008AF0120000016051D96EDA6A020ED92642
:104E98006051E16EE26A030EE126DE50E618D8A4FE
:104EA80058EF27F05AEF27F060EF27F0000E606FF9
:104EB800000E616F9DEF27F06051D96EDA6A020E1D
:104EC800D926DF50626F6251090DF3CF63F0F4CF3A
:104ED80064F06051D96EDA6ADECF65F0DDCF66F036
:104EE80063516525676F64516621686F6051D96E9B
:104EF800DA6A020ED926DF2A6051D96EDA6A040E00
:104F0800D9266051E16EE26A020EE126DE50E65CC7
:104F1800D8A091EF27F093EF27F099EF27F0605191
:104F2800D96EDA6A020ED926DF6A67C060F068C0F7
:104F380061F012000150D96EDA6A020ED9260150CA
:104F4800E16EE26A030EE126DE50E618D8A4AFEF60
:104F580027F0B1EF27F0B7EF27F0000E016E000E33
:104F6800026EF4EF27F00150D96EDA6A020ED926E4
:104F7800DF50036E0350090DF3CF04F0F4CF05F0B2
:104F88000150D96EDA6ADECF06F0DDCF07F00450A3
:104F98000624086E05500720096E0150D96EDA6A9A
:104FA800020ED926DF2A0150D96EDA6A040ED926F4
:104FB8000150E16EE26A020EE126DE50E65CD8A0FE
:104FC800E8EF27F0EAEF27F0F0EF27F00150D96E6D
:104FD800DA6A020ED926DF6A08C001F009C002F0B9
:104FE8001200000E00019B6F000E9C6F000E9D6F5B
:104FF800000E9E6F9751981199119A11D8B407EF26
:1050080028F009EF28F03FEF28F0010E9F6F13EF0B
:1050180028F0D8909737983799379A379F2B9AAFB7
:1050280018EF28F01AEF28F00DEF28F0D8909B37EA
:105038009C379D379E379751935D98519459995154
:1050480095599A519659D8A02CEF28F02EEF28F0B0
:1050580037EF28F09751935F9851945B9951955B7E
:105068009A51965B9B81D8909A33993398339733AA
:105078009F2F1AEF28F09BC093F09CC094F09DC01E
:1050880095F09EC096F01200010E0101D0654FEF19
:1050980028F051EF28F054EF28F0000E94EF28F094
:1050A800B7C0C8F1B6C0C9F1D029CA6FD051020D36
:1050B800D20EF324F66EFF0EF420F76EF86A000E97
:1050C800F8220900F5CFD1F10900F5CFD2F1D1C10D
:1050D800F6FFD2C1F7FFF86A0800F5CFCBF1D0513F
:1050E800020DD20EF324F66EFF0EF420F76EF86A66
:1050F800000EF8220900F5CFD3F10900F5CFD4F15D
:10510800010ED327000ED423D3C1F6FFD4C1F7FF75
:10511800F86A0800F5CFCCF1AC0EE7EC2FF0020EE0
:1051280012000101C76FC7C1BDF19CC0BCF19DC091
:10513800BEF19EC0BFF19FC0C0F1A0C0C1F1A1C027
:10514800C2F1A2C0C3F1A3C0C4F10001B851B911A2
:10515800D8B4B1EF28F0B3EF28F0DFEF28F0B8C0EB
:10516800F6FFB9C0F7FFF86A0900F5500900F51015
:10517800D8B4C1EF28F0C3EF28F0DFEF28F0BC0E59
:10518800956F010E966FB8C0F6FFB9C0F7FFF86AC1
:105198000900F5CFC5F10900F5CFC6F102D8DFEF58
:1051A80028F00500FA6E0101C551FD6EC651FE6E6C
:1051B800FF6AFA5012001200000EF2BE010E000142
:1051C8008E6F00018C51756E8BC074FF8DC073FF9C
:1051D8007F9E7F9C7F84F29EF29C550E7E6EAA0E67
:1051E8007E6E7F827FB2FBEF28F0FDEF28F0F6EFAE
:1051F80028F0B7AC02EF29F004EF29F0FDEF28F012
:10520800B79C00018E51D8B40CEF29F00EEF29F0AD
:1052180010EF29F0F28EF28C7F948BC089F08CC04D
:105228008AF03EEC2FF000018D19D8A41EEF29F06A
:1052380020EF29F022EF29F028EF29F0D14BD22BCB
:1052480035EC30F0E5EF28F0000E120000018B6F0E
:10525800000E00018C6F8C51020DD20EF324F66EF5
:10526800FF0EF420F76EF86A000EF8220900F550D8
:105278000900F510D8B443EF29F045EF29F068EF9D
:1052880029F08C51020DD20EF324F66EFF0EF42095
:10529800F76EF86A000EF8220900F5CF89F00900C8
:1052A800F5CF8AF089C0F6FF8AC0F7FFF86A0800D0
:1052B800F5508B19D8A463EF29F065EF29F068EF52
:1052C80029F0010E72EF29F08C2B010E8C656FEF1F
:1052D80029F071EF29F02FEF29F0000E12000001DC
:1052E8008B6F000E00018C6F8C51020DD20EF324CF
:1052F800F66EFF0EF420F76EF86A000EF822090029
:10530800F5500900F510D8B48CEF29F08EEF29F08C
:10531800B1EF29F08C51020DD20EF324F66EFF0E78
:10532800F420F76EF86A000EF8220900F5CF89F02C
:105338000900F5CF8AF089C0F6FF8AC0F7FFF86A3E
:105348000800F5508B19D8A4ACEF29F0AEEF29F07E
:10535800B1EF29F08C51BBEF29F08C2B010E8C6535
:10536800B8EF29F0BAEF29F078EF29F0FF0E120014
:10537800000E00018D6F060E2AEC29F00009D8B442
:10538800C8EF29F0CAEF29F0CCEF29F000018D8190
:10539800050E2AEC29F00009D8B4D5EF29F0D7EF8B
:1053A80029F0D9EF29F000018D8300018D51D8A48F
:1053B800E0EF29F0E2EF29F0E3EF29F08D890A0EFA
:1053C8002AEC29F00009D8B4ECEF29F0EEEF29F027
:1053D800F0EF29F000018D870001C3A1F6EF29F055
:1053E800F8EF29F0F9EF29F08D8B8D8D8D51120092
:1053F800000E096E000E0A6EF29A000EF2B4010E4B
:10540800066ED6CF07F0D7CF08F0000EF2B4010E23
:10541800056E05500618D8A414EF2AF016EF2AF0E6
:1054280001EF2AF00650D8B41CEF2AF01EEF2AF03C
:105438002AEF2AF0F2940001C72BC751D8A427EF0E
:105448002AF029EF2AF02AEF2AF0C62B0001C751CB
:105458000926C6510A26F28A07C001F008C002F0E0
:1054680009C003F00AC004F0120000019A6F00019D
:105478009A51D8B442EF2AF044EF2AF074EF2AF098
:10548800640E9A614AEF2AF04CEF2AF074EF2AF082
:105498009AC0C9F0F00E0F01111700019A39E846B9
:1054A8001F0B0F0B0F01111322CF12FFF00E011764
:1054B80000019A39E8461F0B0F0B0F01011322CF89
:1054C80002FFFE0E0001936F030E946F000E956F9E
:1054D8009AC096F0000E19EC2DF00101B84BB92BCB
:1054E8001200000E0001916F000E926FF29A000EEA
:1054F800F2B4010E8E6FD6CF8FF0D7CF90F0000E9A
:10550800F2B4010E8D6F8D518E19D8A48EEF2AF04A
:1055180090EF2AF07BEF2AF08E51D8B496EF2AF05C
:1055280098EF2AF0A3EF2AF0F294C72BC751D8A41A
:10553800A0EF2AF0A2EF2AF0A3EF2AF0C62BC7515A
:105548009127C6519227F28A8FC089F090C08AF0BD
:1055580091C08BF092C08CF012000F0120ABB7EF16
:105568002AF0B9EF2AF0C9EF2AF0010E406E000EBA
:10557800376E000E386E000E396E000E3A6E2097A8
:105588000101B24BB32B40EC30F00F0120A9CFEF53
:105598002AF0D1EF2AF0E1EF2AF0010E406E000E5A
:1055A800376E000E386E000E396E000E3A6E209778
:1055B80001019E4B9F2B40EC30F04050D8B4E7EFF0
:1055C8002AF0E9EF2AF0EBEF2AF0C6EC1AF0779A06
:1055D8001200000E0001686F000E696FF29A000E4B
:1055E800F2B4010E656FD6CF66F0D7CF67F0000E24
:1055F800F2B4010E646F64516519D8A406EF2BF05C
:1056080008EF2BF0F3EF2AF06551D8B40EEF2BF02A
:1056180010EF2BF01BEF2BF0F294C72BC751D8A437
:1056280018EF2BF01AEF2BF01BEF2BF0C62BC751FE
:105638006827C6516927F28A66C060F067C061F0C2
:1056480068C062F069C063F012000F0120AB2FEF51
:105658002BF031EF2BF041EF2BF0010E406E000ED6
:10566800376E000E386E000E396E000E3A6E2097B7
:105678000101B24BB32B4BEC30F00F0120A947EFDF
:105688002BF049EF2BF059EF2BF0010E406E000E76
:10569800376E000E386E000E396E000E3A6E209787
:1056A80001019E4B9F2B4BEC30F04050D8B45FEF7C
:1056B8002BF061EF2BF063EF2BF096EC1BF0779A51
:1056C80012000001926F89EF2BF08DC089F08EC017
:1056D8008AF03EEC2FF00001906F90518D6F8E6B29
:1056E8009FEF2BF08DC089F08EC08AF076EC2DF0FC
:1056F8000001906F90518D6F8E6B9FEF2BF0FF0E16
:105708008E6F020E8D6F9FEF2BF000019251906FFC
:10571800916B9151000AD8B494EF2BF083EF2BF0E2
:105728009051000AD8B469EF2BF0010AD8B476EF8B
:105738002BF083EF2BF0120075EC2AF03B500001A0
:10574800895D936F3C508A59946F3D508B59956F82
:105758003E508C59966F965195110BE1250E935D2D
:10576800F40E9459D8A0BBEF2BF0BDEF2BF0DAEF75
:105778002BF0CA51D8B4C3EF2BF0C5EF2BF0C9EF0B
:105788002BF0000ECA6FCBEF2BF0010ECA6FCAC008
:1057980089F0000E5BEC15F075EC2AF089C03BF03F
:1057A8008AC03CF08BC03DF08CC03EF01200000E69
:1057B8000001B76F000EB66FFC0E936F030E946F67
:1057C800000E956FB7C096F0000E19EC2DF0FD0E87
:1057D8000001936F030E946F000E956FB6C096F09C
:1057E800000E19EC2DF00001C569C469FB0E936F1A
:1057F800030E946F000E956FC5C096F0000E19EC5D
:105808002DF0000E0001C36FC3C0C2F0F90E936FF4
:10581800030E946F000E956FC3C096F0000E19EC3E
:105828002DF01200000E0001916F000E926F000E15
:10583800936F000E946F89A124EF2CF026EF2CF0C3
:105848002EEF2CF08D5191278E5192238F51932357
:1058580090519423D8908D378E378F379037D890C2
:105868008C338B338A33893389518A118B118C118C
:10587800D8A441EF2CF043EF2CF01FEF2CF091C08F
:1058880089F092C08AF093C08BF094C08CF012001B
:105898006CEC30F00009D8B454EF2CF056EF2CF033
:1058A8004CEF2CF0000EF2BE010E0001896FB2C061
:1058B800F6FFB3C0F7FFF86A000EF86E7F8E7F9C84
:1058C8007F847F88F29EF29C550E7E6EAA0E7E6EB5
:1058D8007F827FB272EF2CF074EF2CF06DEF2CF01A
:1058E8007F9400018951D8B47CEF2CF07EEF2CF026
:1058F80080EF2CF0F28EF28C1200375038103910ED
:105908003A10D8B48AEF2CF08CEF2CF0B4EF2CF0CE
:10591800EDEC2AF037500001605D716F3850615925
:10592800726F39506259736F3A506359746F74517A
:1059380073110BE1250E715DF40E7259D8A0A7EF13
:105948002CF0A9EF2CF0B4EF2CF0010E406E0F01F3
:105958002097C6EC1AF001019E4B9F2B40EC30F0CB
:1059680012003750381039103A10D8B4BEEF2CF066
:10597800C0EF2CF0E7EF2CF0FCEC29F03750015C7D
:10598800126E38500258136E39500358146E3A503C
:105998000458156E155014100BE1250E125CF40E08
:1059A8001358D8A0DAEF2CF0DCEF2CF0E7EF2CF04E
:1059B800010E406E0F01209796EC1BF001019E4BE3
:1059C8009F2B4BEC30F012000001906F90C0BCF0A0
:1059D80000018D51D8A4F3EF2CF0F5EF2CF0FBEF7C
:1059E8002CF0010EBD6F000EBE6F12EF2DF0000EF1
:1059F800BD6F8D51D8B403EF2DF005EF2DF00DEFED
:105A08002DF0020E8D650BEF2DF00DEF2DF010EF40
:105A18002DF0BC6918EF2DF08D05BE6F000EBB6F21
:105A28008EC0ACF08FC0ADF012000001996F31EF5D
:105A38002DF093C08BF094C08CF096C08DF0E0EC04
:105A480028F047EF2DF093C08CF094C08DF096C0ED
:105A58008EF0CFEC1FF047EF2DF000019951976FB2
:105A6800986B9851000AD8B43CEF2DF047EF2DF011
:105A78009751000AD8B41DEF2DF0010AD8B427EFCA
:105A88002DF047EF2DF012009B8CD08E56EC30F0A5
:105A9800FA0E00018D6F030E8E6F000E8F6F000ED1
:105AA80065EC2BF000018D058E11D8B45EEF2DF05A
:105AB80060EF2DF062EF2DF0CCEC1EF04EEC20F0F4
:105AC800F28EF28C33EC26F0F29EF29CA9EC2EF0CA
:105AD800F28EF28CBAEC0CF0A0EC2BF06EEF2DF0FD
:105AE8000EEF00F0C00E000189158B6FFF0E8A15AE
:105AF8008C6FB2518B1907E1B3518C19D8A487EF79
:105B08002DF089EF2DF098EF2DF03F0E89158B6F52
:105B1800000E8A158C6F000E8B25D96E010E8C2114
:105B2800DA6EDF50A1EF2DF089C0F6FF8AC0F7FFCB
:105B3800F86A000EF86E0800F5501200800E7F6EAD
:105B4800B2C0F6FFB3C0F7FFF86A000EF86E000E99
:105B58000001896F09000000000E00018925D96E37
:105B6800DA6A010EDA22F5CFDFFF892B3F0E89654D
:105B7800C0EF2DF0C2EF2DF0AEEF2DF0B2C0F6FF62
:105B8800B3C0F7FFF86A000EF86E000EBF6F120080
:105B98008BC092F08CC093F089C090F08AC091F0CD
:105BA800E6EF2DF092C0D9FF93C0DAFFDF508F6F78
:105BB800924B932B90C0D9FF91C0DAFF8FC0DFFFC3
:105BC800904B912B00018D07D8A08E078D2906E1F7
:105BD8008E29D8A4F2EF2DF0F4EF2DF0D6EF2DF0AA
:105BE80012000001896F000E00018A6F400E8B6F52
:105BF8008A2BD8908B338B51D8A405EF2EF007EF62
:105C08002EF0FCEF2DF08AC0D5FFD59CD59A000E5A
:105C1800D76E000ED66E89B102D0F19401D0F1840E
:105C2800F294F28AD58E000E0001C76F000EC66F7F
:105C3800120000018D6F00018D51D8B426EF2EF0AF
:105C480028EF2EF030EF2EF0100E8D652EEF2EF08F
:105C580030EF2EF036EF2EF0000E896F000E8A6FAF
:105C680042EF2EF08D518B6F8C6BD8908B378C3721
:105C78009A0E8B25896F010E8C218A6F12004BA218
:105C880048EF2EF0E8EF2EF077A04DEF2EF04FEF13
:105C98002EF051EF2EF01CEC19F077AA56EF2EF0EB
:105CA80058EF2EF05AEF2EF0B1EC2AF077A85FEFFC
:105CB8002EF061EF2EF063EF2EF0C6EC1AF081ECB7
:105CC8002CF0120000018C6F00018C51D8B46FEFDA
:105CD8002EF071EF2EF079EF2EF0060E8C6577EF2F
:105CE8002EF079EF2EF07FEF2EF0000E896F000E68
:105CF8008A6F87EF2EF08C51020DF350C90F8B6F0E
:105D08008BC089F08A6B120002EE0BF011EE20F0C6
:105D1800EE6AE550E150FCE1E250FAE101EE00F0F4
:105D2800C50EEE6AE806FDE100EEA4F0330EEE6A59
:105D3800E806FDE100EE27F0240EEE6AE806FDE134
:105D48004B904B92000148EF2DF0FA0E0001B86F0E
:105D5800FF0EB96F050E60EC30F0000E0001896F80
:105D6800000E6FEC0AF075EC2AF089C03BF08AC08F
:105D78003CF08BC03DF08CC03EF0000E0001CA6FB5
:105D8800CAC089F0000E5BEC15F01200DBEF2EF0B4
:105D9800010EF8EC1CF0E7EF2EF0020EF8EC1CF008
:105DA800E7EF2EF0030EF8EC1CF0E7EF2EF0000101
:105DB800C551000AD8B4D1EF2EF0FF0AD8B4CCEF01
:105DC8002EF0D6EF2EF0120077A0EDEF2EF0EFEFC9
:105DD8002EF0F1EF2EF0F2EC19F077AAF6EF2EF094
:105DE800F8EF2EF0FAEF2EF029EC2BF077A8FFEF62
:105DF8002EF001EF2FF003EF2FF096EC1BF0B5EC2F
:105E08002CF01200130E0101D0650DEF2FF00FEFEB
:105E18002FF012EF2FF0000E21EF2FF0B7C0C8F1CE
:105E2800B6C0C9F1D029CA6FD0293AEC1EF00101D9
:105E3800CB6F9B0E9FEC2FF0020E120000018951D0
:105E4800D96EDA6A020ED926DF508A6F8951D96E67
:105E5800DA6A030ED926DF508B6F8A518B5D8C6FFF
:105E68008951D96EDA6A040ED926DF508D6F8D05F7
:105E78008C1512007FB243EF2FF045EF2FF03EEF65
:105E88002FF000018A51756E89C074FF7F9E7F9C38
:105E98007F807FB052EF2FF054EF2FF04DEF2FF0AF
:105EA800000073501200000E0F015C6F5CCF5DFFA5
:105EB800939E939C9284000E0001AE6F000EAF6F0C
:105EC80075EC2AF089C02BF08AC02CF08BC02DF01D
:105ED8008CC02EF012000101CF6F080E00019C6FDC
:105EE800C8C19DF0C9C19EF0CAC19FF0CBC1A0F046
:105EF800CCC1A1F0CDC1A2F0CEC1A3F00101CF5118
:105F080095EC28F012000101CE6F070E00019C6F7E
:105F1800C8C19DF0C9C19EF0CAC19FF0CBC1A0F015
:105F2800CCC1A1F0CDC1A2F0000EA36F0101CE51EA
:105F380095EC28F012000101CC6F050E00019C6F52
:105F4800C8C19DF0C9C19EF0CAC19FF0CBC1A0F0E5
:105F5800000EA16F000EA26F000EA36F0101CC51BD
:105F680095EC28F012000101CB6F040E00019C6F24
:105F7800C8C19DF0C9C19EF0CAC19FF0000EA06FB4
:105F8800000EA16F000EA26F000EA36F0101CB518E
:105F980095EC28F012000101CA6F030E00019C6FF6
:105FA800C8C19DF0C9C19EF0000E9F6F000EA06F82
:105FB800000EA16F000EA26F000EA36F0101CA515F
:105FC80095EC28F012000101CD6F060E00019C6FC0
:105FD800C8C19DF0C9C19EF0CAC19FF0CBC1A0F055
:105FE800CCC1A1F0000EA26F000EA36F0101CD512C
:105FF80095EC28F01200F2A404EF30F006EF30F030
:1060080012EF30F0F2940001C72BC751D8A40FEF5C
:1060180030F011EF30F012EF30F0C62B1200000113
:10602800896F1DEF30F0010E25EF30F0000E25EFDF
:1060380030F000018951000AD8B417EF30F01AEF98
:1060480030F01200000E0001C96FFE0E936F030EB0
:10605800946F000E956FC9C096F0000E19EC2DF0E4
:1060680012000001CB29D8B43CEF30F03EEF30F0FD
:106078003FEF30F0CB2B12000001CB29D8B447EF0B
:1060880030F049EF30F04AEF30F0CB2B120000012E
:10609800CB29D8B452EF30F054EF30F055EF30F050
:1060A800CB2B1200000E0001BF6F000EB36F000E65
:1060B800B26F000EF86E12000001896F89C0BAF045
:1060C80012000001BC691200000E1200000E12003E
:0C60D800010E1200120012001200120053
:10FE8C00000101030202020203020203010000014D
:10FE9C000101010101010101010101010101010146
:10FEAC000101010101010101010101010101010136
:10FEBC000101010101010101010101010101010126
:10FECC00000101010101010101010001010000001B
:10FEDC000000000000000000000000000000010114
:10FEEC0001010103010101010101010100000000F8
:10FEFC0000000000010001010101010100010101EC
:10FF0C0001010101000101010101010001000000DA
:10FF1C0000000000000000000000000000010101D2
:10FF2C0001010101010101010000010100000000BB
:10FF3C0000000000010000010101000000010101AE
:10FF4C000101010100010101010101010100000099
:10FF5C00000000010100000101010000000101008E
:10FF6C00010101000001000101010101000000007C
:10FF7C000000000000000000000000010000000074
:10FF8C00000B4300FF0C4301FF0D4302FF0E430324
:10FF9C00FF0F4304FF104305FF114306FF124307F5
:10FFAC00FF1542000A16420108194204091A4205BB
:10FFBC00FF03410101024100000541030307410514
:10FFCC00047060504000E8FFD6FF0101B657363B85
:10FFDC005008881D0000FE5F0000CC5C03014C60E3
:10FFEC00AE2E2A460000865C865C26603A5CD22CDB
:03FFFC0078280062
:020000040030CA
:0E00000015036650FF8981FF0FC00FE00F400F
:00000001FF
